:020000040800F2
:1000000058120020B9020008E7630008BF5D00082D
:10001000D9630008C10A0008FF6F00080000000053
:10002000000000000000000000000000CD69000892
:10003000710F000800000000556700084F6A0008B3
:10004000D3020008D3020008D3020008D30200083C
:10005000D3020008D3020008D3020008D30200082C
:10006000D3020008D3020008D3020008010D0008E3
:10007000D3020008D3020008D3020008D30200080C
:10008000D3020008D302000859070008D302000871
:10009000D3020008C1120008D3020008D3020008EE
:1000A000C96A0008D56A0008D3020008D302000814
:1000B000E16A0008ED6A0008D3020008D3020008D4
:1000C000D3020008D3020008D302000859670008D1
:1000D000D3020008D3020008D3020008D3020008AC
:1000E000D3020008D3020008D3020008D30200089C
:1000F000D3020008D3020008D3020008D30200088C
:10010000D3020008D3020008D3020008D30200087B
:10011000D3020008D3020008D3020008D30200086B
:100120000D0D0008190D0008D3020008D3020008C5
:10013000D3020008D3020008D3020008D30200084B
:10014000D3020008D3020008D3020008D30200083B
:10015000D3020008D3020008D3020008D30200082B
:10016000D3020008D3020008D3020008D30200081B
:10017000D3020008D3020008D3020008D30200080B
:10018000D3020008D3020008D3020008D3020008FB
:10019000D302000800000000D3020008D3020008C8
:1001A000D3020008D3020008D3020008D3020008DB
:1001B000D3020008D3020008D3020008D3020008CB
:1001C000D3020008D3020008D3020008D3020008BB
:1001D000D3020008D302000800F002F800F05CF837
:1001E0000AA090E8000C82448344AAF10107DA4592
:1001F00001D100F051F8AFF2090EBAE80F0013F088
:10020000010F18BFFB1A43F001031847907B000051
:10021000B07B00000A444FF0000C10F8013B13F0D3
:10022000070408BF10F8014B1D1108BF10F8015B4F
:10023000641E05D010F8016B641E01F8016BF9D142
:1002400013F0080F1EBF10F8014BAD1C0C1B09D199
:100250006D1E58BF01F801CBFAD505E014F8016B0B
:1002600001F8016B6D1EF9D59142D6D3704700009D
:100270000023002400250026103A28BF78C1FBD8AF
:10028000520728BF30C148BF0B6070471FB507F049
:10029000C2F81FBD10B510BD00F0A5F91146FFF75B
:1002A000F5FF06F0EDFE00F0C3F903B4FFF7F2FF2F
:1002B00003BC00F0D3F90000094880470948004713
:1002C000FEE7FEE7FEE7FEE7FEE7FEE7FEE7FEE706
:1002D000FEE7FEE704480549054A064B7047000063
:1002E000B96A0008D9010008580C002058120020F3
:1002F000580E0020580E00209FED1A1AF5EE000A45
:1003000040EE010ABDEEE00AF5EEC00A10EE100A5A
:10031000F1EE10FA38BF401E00EE100A1349F7EE56
:10032000001AB8EEC00A30EEC00ADFED0F0A20EE68
:10033000200AFCEEC00A10EE900AC0F3080000EE9E
:10034000900A01EB8000F8EE600A90ED011A70EE61
:10035000600A90ED000A71EEE01A21EE800A00EECC
:10036000810A704783F9223E000000449875000816
:10037000B5EEC00AF1EE10FA07D2DFED1E0AB4EEB8
:10038000E00AF1EE10FAA8BF7047DFED1B0AB5EEE8
:10039000C00A60EE200ABDEEE01A11EE100AF1EE7E
:1003A00010FA38BF401E00EE100A1549F7EE001A89
:1003B000B8EEC00A30EEC00ADFED100A60EE200A87
:1003C000BCEEE00A10EE100AC0F3080000EE100ABE
:1003D00001EB8000B8EE400A90ED011A70EEC00A01
:1003E00090ED000A71EEE01A21EE800A00EE810A1B
:1003F00070470000CD024CB483F9223E0000004457
:100400009875000853EA020C00F069802DE9F04B62
:100410004FF00006002B1FBFB3FA83F503FA05F473
:1004200024FA05F65E4012BF1643B2FA82F502FACC
:1004300005F4C5F120051EBF22FA05FC44EA0C04B0
:10044000203556EA044C4FEA144418BF641C4FF0A0
:1004500000084FF00009904271EB030C39D30029DA
:1004600019BFB1FA81F701FA07F6B0FA80F700FA7E
:1004700007F6C7F120071EBF20FA07FC46EA0C0664
:100480002037B6FBF4FCA7EB0507103F07F01F0B66
:10049000CBF120060CFA0BFB2CFA06F644BFB34650
:1004A0000026202FA4BF5E464FF0000B5BEA060C2F
:1004B00008BF4FF0010B19EB0B09ABFB027C48EBBB
:1004C0000608C01B06FB02CC0BFB03CC71EB0C0136
:1004D000C1E70B46024641464846BDE8F08B13B5DE
:1004E0004FF000004FF00001AFF30080BDE81C406A
:1004F000704710B5203AC0F00B80B1E81850203A90
:10050000A0E81850B1E81850A0E81850BFF4F5AFB3
:100510005FEA027C24BFB1E81850A0E8185044BF3D
:1005200018C918C0BDE810405FEA827C24BF51F8AA
:10053000043B40F8043B08BF7047D20728BF31F89E
:10054000023B48BF11F8012B28BF20F8023B48BFEF
:1005500000F8012B70474FF0000200B51346944697
:100560009646203922BFA0E80C50A0E80C50B1F10B
:100570002001BFF4F7AF090728BFA0E80C5048BF1F
:100580000CC05DF804EB890028BF40F8042B08BFBD
:10059000704748BF20F8022B11F0804F18BF00F8B9
:1005A000012B704770477047704700000048704744
:1005B000F40B00201FB584B000200A9C06AB04AAEF
:1005C00002A90094AFF3008018B1DDE9020108B080
:1005D00010BD0348204000F039F800200146F6E73E
:1005E0000000207C70477546FFF7E0FFAE4605002F
:1005F0006946534620F00700854618B020B5FFF73E
:1006000069FEBDE820404FF000064FF000074FF0B4
:1006100000084FF0000B21F00701AC46ACE8C00920
:10062000ACE8C009ACE8C009ACE8C0098D46704729
:1006300010B50446AFF300802046BDE81040FFF738
:1006400034BE002801D000F009B8704710B500F0A2
:1006500025F8BDE81040FFF7F4BF0000014918205D
:10066000ABBEFEE72600020070B505460C460A2028
:1006700000E06D1C00F068F835B128780028F8D14A
:1006800002E0641C00F060F814B120780028F8D172
:10069000BDE870400A2000F057B8000010B50228ED
:1006A00003D0410103D50DA112E0002010BD0101CE
:1006B00001D50FA10CE0C10001D511A108E0810016
:1006C00001D512A104E0400001D513A100E00021F2
:1006D00015A0FFF7C9FF012010BD0000496E76612B
:1006E0006C6964204F7065726174696F6E00000000
:1006F000446976696465204279205A65726F00000A
:100700004F766572666C6F7700000000556E646509
:1007100072666C6F77000000496E657861637420C3
:10072000526573756C7400005349474650453A2032
:1007300041726974686D657469632065786365707A
:1007400074696F6E3A20000008B569468DF80000A4
:100750000320ABBE08BD0000014802F081B90000D3
:100760007001002010B5846AE16D11F0500F06D0C1
:10077000E16DC90625D5204602F070F910BDE06D87
:1007800040F40070E06520680168090716D505F09F
:1007900071FB78B12068C068800400280ADBE06D36
:1007A00020F48070E065E06DC00403D4E06D40F09B
:1007B0000100E065204602F04FF910BDC0688007D7
:1007C000EBE7616D496BBDE81040084710B5806AE2
:1007D000C16D41F04001C165016E41F00401016647
:1007E00002F03CF910BD10B5806A02F036F910BD78
:1007F00070B50446006881688268C1F3400112F058
:10080000010F28D039BB816801F00D01012914D1F5
:100810008168124A1140891C8160216803200860A8
:1008200003F0E0FA054612E003F0DCFA401B022870
:100830000DD920688068C00709D0E06D40F0100035
:10084000E065206E40F001002066012070BD206848
:100850008068C007E8D1002070BD0000C0FFFF7FA6
:10086000F8B50446002000902068816811F0010F5F
:100870004AD18168254A114237D18168D543294040
:10088000491C81602068B0F1A04F02D02049884205
:1008900001D1204800E02048806800F0E0700002AC
:1008A0000DD51E481E490068B0FBF1F0401C00EB5E
:1008B0004000800000E0401E00900028FBD103F0C3
:1008C00091FA06461BE0816811F0010F03D181689F
:1008D0002940491C816003F085FA801B02280ED94B
:1008E00020680068C043C00709D0E06D40F01000E8
:1008F000E065206E40F0010020660120F8BD206810
:100900000168C943C907DED10020F8BD3F0000805F
:1009100000010050000300500007005010000020AC
:10092000400D03009FED090A80ED000A80ED010AE9
:1009300080ED020A80ED030A80ED050A80ED060ACB
:10094000B7EE000A80ED070A7047000000000000C3
:1009500070B51748FFF7E6FF1548DFED160A144D8E
:1009600090ED070A1448002420EE200A703DA5F1FE
:10097000700680ED000A00BF05EB041106EB0410C1
:10098000042206F025F8641C072CF5DB0B480068F0
:10099000416841F0200141607F21084801F096F94B
:1009A000064801F0C5FCBDE87040642002F014BDAB
:1009B000500800206740533A3001002070010020A9
:1009C0002DE9F047174EDFF8608000248146371F7D
:1009D000A8F11C0556F82410484601F091FC00EEE1
:1009E000100AD7ED000A08EB0410B8EE400A20EE1A
:1009F000200A06F00DF805EB8400641C80ED000A67
:100A0000032CE7DB084895ED000AE03080ED000A92
:100A100095ED010A80ED010A95ED020A80ED020ACA
:100A2000BDE8F08734010020700700202DE9F04177
:100A30001E4E1F4F032406F12C0806F1100500BFBF
:100A400036F81400D7ED000A00EE100A08EB041087
:100A5000B8EE400A20EE200A05F0DAFF05EB84002C
:100A6000641C80ED000A072CEADB95ED030AF2EE28
:100A7000060A104820EE200ADFED0F0A9FED0F1A3C
:100A800080ED030A95ED040A80ED040A95ED050A50
:100A900070EE600AB0EE000A00EE810A80ED050AF1
:100AA00095ED060A80ED060ABDE8F08144070020B6
:100AB00030010020500800205C8F423F0000C843F6
:100AC000FEE70000FEB59FED751A754820EE812AFD
:100AD000B0EE081A60EE012A90ED011A22EE013AFA
:100AE000DFED701A72EE223A72EE624A23EE214A6C
:100AF000B6EE003AF5EEC00A21EE031A63EE813A33
:100B000024EE811A63EEA13A61EE214AF1EE10FA69
:100B100001DD012000E00020F4EEC22AF1EE10FA1F
:100B200001DD012100E00021B8EE081A00EB4101CF
:100B300020EE011AB4EEC21AF1EE10FA01DD012026
:100B400000E0002001EB80005749085C9FED531A3C
:100B50005349B6EE002A20EE811AF0EE080AD1EDD4
:100B6000012A60EE200A22EE825A31EE600A20EE5F
:100B7000052A9FED4C0A71EE200A21EE221A22EE80
:100B8000402A072860EE850A60EEC00A21EE400A7E
:100B900021D2DFE800F02004090E13181D00B0EE8A
:100BA000421AB0EE440A1AE0B0EE641AB0EE630ADC
:100BB00015E0B0EE441AB0EE600A10E0B0EE401A54
:100BC000B0EE640A0BE0B0EE601AB0EE420A06E046
:100BD000B0EE631A03E09FED350AB0EE401A344AD6
:100BE00071EE000A10EE901A914205DD81EEA02A06
:100BF00021EE021A20EE020A2B4900EB400071EEB2
:100C0000C10AF5EE001A0831084470EEC00A6B46BE
:100C1000294D60EEA11A2E1D371DCDED001AF0EE04
:100C2000610A41EE030ACDED010AB0EE601A00EE52
:100C3000031A8DED021A017803EB810191ED000A90
:100C4000BCEEC00A10EE101A8AB24178807803EB2D
:100C5000810103EB800091ED000ABCEEC00A10EEAA
:100C6000101A90ED000A89B2BCEEC00A10EE100A0C
:100C700083B2104890F8B140012C01D024B107E0B4
:100C80002A6031603B6003E000242C6034603C60EB
:100C900020F8682F41808380FEBD0000D7B3DD3F80
:100CA0008C0000200080D44578750008000000000A
:100CB0000080D445BC040020342C014010B5084C01
:100CC00001221146204603F088F8642002F084FBDC
:100CD00020460022BDE81040012103F07EB800004C
:100CE0000004004880ED000A30EEC10ADFED030A7F
:100CF00020EE200A81ED000A704700003ACD133F34
:100D0000014802F065BA0000DC010020014802F051
:100D10005FBA000004030020014802F059BA000045
:100D2000640300200D4902688A4201D20C4901E0A7
:100D30000B492031D2B21423083AB2FBF3F2436CD0
:100D400002F01F0223F00303194481640449803137
:100D5000C164012191400165704700000804024010
:100D6000000802400179074A02EB81024265054A08
:100D70004432491E826501F01F0201219140C16584
:100D800070470000FC08024030B5D0E913456560AB
:100D9000446D14B1D0E91645656090F8444004F004
:100DA0001F050124AC40056C6C60046863608368B7
:100DB000102B036803D099600068C26030BD9A6050
:100DC0000068C16030BD000010B501220221044856
:100DD00003F003F8BDE810400A2002F0FDBA00005D
:100DE0000004004810B5FFF7EFFFBDE81040FFF723
:100DF00065BF00000C4908B50A480A78002A0FD1DF
:100E000001220A70094A52680092026A009B9A42C3
:100E100002D9C269521CC261009A026200200870A5
:100E200008BD0000B808002048010020001000E0C4
:100E30000B480A4A4168D2ED050A4268521AF8EE98
:100E4000601A01EE102AB8EE411A61EE801AB4EE73
:100E5000E11AF1EE10FAF0D370470000B808002054
:100E6000001000E010B5084C00F038F80749206881
:100E70004843616801EB4102C2EBC11100EBC100C4
:100E800021890844002110BDB808002040420F000D
:100E90000F4A10B50D49136843F0807313600D4B72
:100EA00000225A601C6844F001041C600A4B58433D
:100EB0004FF47A730861B0FBF3F04861064B0869A0
:100EC000B0FBF3F0C1E906020A6210BDB8080020C9
:100ED000FCED00E0001000E040420F002DE9F84377
:100EE0002248214C40680090FFF784FFE26900250A
:100EF00000984FF0FF332946E2FB0301C4E90A01E1
:100F0000D4F8108007460E4642462B46FFF77AFA81
:100F100002460B463146C446ACFB028605FB026620
:100F20000CFB0363B7EB080061EB0301226007468B
:100F30000E4600236269FFF765FA02466060606949
:100F400000234243B81A66EB0501A269FFF75AFA7B
:100F50002081D4E9001001EB4102C2EBC11100EB8A
:100F6000C100E060BDE8F883B8080020001000E090
:100F70007047000070B50446006800230122104944
:100F800003F04DFF0E4D00230122691C206803F081
:100F900046FF00230122A91C206803F040FF04F152
:100FA00058010D46204600F00FF80A230322294677
:100FB000206803F075FE0349C889401CC88170BDD4
:100FC00060010020A80400202DE9F0410D462DED20
:100FD000028B0446FFF746FF07460E4628786978DD
:100FE000800201F0FC0140EA8101A87841EA101179
:100FF00000F00102524800EE101A0270AA78B8EE12
:10100000C00AC2F340024270AA78C2F38002827022
:10101000AA78C2F3C002C270AA78C2F300120271A9
:10102000AA78C2F340124271AA78C2F38012827188
:10103000AA78D209C271DFED430A434960EE200A63
:10104000C4ED050A94ED061A30EEC10A10EE100A3E
:1010500084ED070ADFED3D1A884202DD30EE610AB9
:1010600006E010EE100A3A49884203D930EE210A10
:1010700084ED070AB5EEC00A3648F1EE10FA36499B
:101080000AD211EE102A824206DA10EE902A8A4223
:1010900002DD208A401E0EE0B5EEC00AF1EE10FA25
:1010A0000ADD11EE102A8A4206DD10EE901A814206
:1010B00002DA208A401C2082206B05F0A9FC84ED16
:1010C0000B0AE068B0EE408A381A66F1000106F0BB
:1010D00053F900EE100A9FED211ADFED211AE760A7
:1010E000C0EE010A94ED0F1A84ED101A88EE210A61
:1010F000DFED1C1A60EE211A81EEA00A84ED0F0AC2
:1011000030EE411A206D81EE200A05F081FC84ED5D
:10111000130A94ED0F0AD4ED120A20EE200A84ED92
:10112000110A94ED050A84ED060A606A05F070FC68
:1011300084ED080A208A6082BDEC028BBDE8F08154
:10114000630100200000B43A000034430000B443BF
:10115000000034C30000B4420000874300247449F7
:1011600000003443DA0F494090ED080AB0F910004E
:101170009FED041A00EE900AF8EEE00A00EE810AF4
:10118000704700000000B4432DE9F0471F4608AB4C
:1011900015460446DDE90B0293E800070E460D995B
:1011A000C4E90002218184ED120A002020829FED13
:1011B000180A608284ED080A84ED0B0AA06384EDAE
:1011C0000F0A84ED100A84ED110A84ED050A84EDFE
:1011D000060A84ED070A02F005FEE060C4E90C652A
:1011E000C4E90978C4E9149A30462946802205F0FA
:1011F000EFFBD4E90901012205F0EAFBD4E914016F
:10120000202205F0E5FB2046BDE8F04704F068BE6B
:101210000000000072B6FEE72DE9F0411E4C1F49A8
:101220001F4FA07900254006060EA671E079400602
:10123000030EE371207A4006020E2272607A4000AB
:101240006072C868B84205DD46F00106A671FF2E3F
:1012500000D16570B0F1834F05DA43F00100E07111
:10126000FF2800D1A5700869B0F17F5F05DA42F070
:1012700001002072FF2800D1E5700421094802F026
:101280009FFD002806D1607A40F001006072FF28BF
:1012900000D12571BDE8F0819400002050080020A5
:1012A0000000E0410004004801210170417081709C
:1012B000C170017100218171C17101724172704769
:1012C000014802F006BA00003C020020F0B5D1E966
:1012D00001650C692C430D68C6B145F080452C436F
:1012E000D1E90665354391F820704E69406D46EAB4
:1012F000076635438E8903EBC30300EBC30045EA61
:101300000645E0E802450023084C0AE044EA85442B
:10131000E6E7D618D55CD6F801601B1D45EA062520
:1013200020C0CD68655D9D42F3D8F0BD50750008C2
:10133000704730B50024039D0160B1F5006F03D301
:101340004FF08041416000E04460C0E90242C0E9E2
:101350000443C0E90654046230BD000010B588B0F3
:1013600000240220CDE90240012004904FF4846063
:10137000059001944FF4FE60069001A9144802F014
:10138000D2F808B1FFF7D4FF02220023114610481B
:10139000009402F0F6F808B1FFF7CAFF0C4802F01B
:1013A000CEFB08B1FFF7C4FF00220121084802F07C
:1013B00025F808B1FFF7BCFF00224FF400210448D4
:1013C00002F01CF8002801D0FFF7B2FF08B010BDF2
:1013D0003C02002070B505468AB01E464FF400104E
:1013E0000C4643100090314601A8FFF7A2FF2422CB
:1013F00001A90548FFF77DF8224601A9284602F019
:101400006DF80AB070BD0000700800202DE9FF41A2
:10141000574D0C46022695F8B01040F2235701288C
:1014200011D0032202281AD005282CD007284AD030
:10143000092868D00B2824D120784E4991287DD0E6
:1014400078287CD08BE0022904D04B4805F00EF9B7
:1014500085F8B06094ED000A85ED210A07E00329C4
:1014600001D085F8B02094ED000A85ED0F0A694699
:10147000032000F09BF83B46082269463F48FFF7EF
:10148000A9FFBDE8FF81032901D085F8B0203C48C1
:1014900094ED000A694680ED010A94ED010A80EDA1
:1014A000020A94ED020A80ED030A94ED030A80ED2E
:1014B000060A94ED040A80ED070A062000F076F88B
:1014C00040F2265344E0032901D085F8B0202D488E
:1014D00094ED000A694680ED010A94ED010A80ED61
:1014E000020A94ED020A80ED030A94ED030A80EDEE
:1014F000060A94ED040A80ED070A082000F056F869
:101500004FF4A56324E0022904D01B4805F0AEF88F
:1015100085F8B060184894ED000A80ED010A94ED5A
:10152000010A80ED020A94ED020A80ED030A94EDAF
:10153000030A80ED060A94ED040A01E00AE00BE0DC
:1015400080ED070A69460A2000F030F840F22A537D
:101550000A2292E7012000E0002081F87500694628
:10156000042000F023F840F22453012285E7000014
:10157000BC04002014000020A80600203C0200202B
:101580000C0600207005002010B502F02BFC064967
:1015900048600A68801A642801D2012000E0002017
:1015A00081F8740010BD00001400002030B52D4AF1
:1015B000032809D004281DD006282FD008282FD0B2
:1015C0000A2816D128482CE012F87C0F08705078B1
:1015D000487090788870D078C87012F8440C087100
:1015E00012F8430C487112F8420C887112F8410C41
:1015F000C87130BD1D4892F8B12003784478C57891
:1016000043EA440384780079A40044EAC5042343F0
:1016100043EA001040EA4210087030BD144800E070
:10162000144802790A7042794A7082798A70C279C4
:10163000CA70027A0A71427A4A71827A8A71C27ACF
:10164000CA71027B0A72427B4A72827B8A72C27BB7
:10165000CA72027F0A73427F4A73827F8A73C07F95
:10166000C87330BDBC040020A806002094000020F0
:101670000C06002070050020F2EE0C0A60EE200A35
:101680009FED0D0A20EE800ABDEEC00AB8EEC01A2A
:101690009FED0A0A41EE400AF5EEC00AF1EE10FA9B
:1016A00001D270EE800A06489FED061A90ED290AD5
:1016B00010EE810A70470000610B363B0000B44316
:1016C000BC04002036FA8EBC00B53C482DED028BE0
:1016D00087B000F027FA3A48FFF7E6FDAA20FFF7A7
:1016E000D7FB39480DF1080C10234FF090423549D3
:1016F0008CE80F0035493648CDE900019FED350AE9
:10170000354B364A36493748FFF73EFDFFF726FE90
:10171000FFF71EF9FFF766FB00F092F99FED328AA2
:1017200026482030B0EE480A00F0BCFA2348B0EE5C
:10173000480A403000F0B6FA20489FED2C0A883065
:1017400000F0B0FA2B489FED2A0A80ED010A2A48E2
:1017500003F0F4FE284803F031FF0021264804F08E
:1017600055FA0421244804F051FA0821224804F0D3
:101770004DFA0021204804F0BFF904211E4804F06E
:10178000BBF908211C4804F0B7F900211A4803F0FE
:1017900003FE0421184803F0FFFD0821164803F05A
:1017A000FBFD0A2005F0E8FC05F080FC07B01348BB
:1017B000BDEC028B5DF804EB03F000BFBC0400201D
:1017C00094000020A0020020740B00206409002077
:1017D0006C0100200AD7233C540900207409002022
:1017E00044090020E80800208FC2F53C0AD7A33B3B
:1017F000ABAA2A3D8C000020C40300201004002066
:101800002DE9F0415F4890ED080AFFF735FF5E4C87
:101810005E4884ED280A90ED000A9FED5D1A04F100
:10182000100131EE400A84ED000AD0ED010A71EE9C
:10183000600AC4ED010AD0ED021A081F31EE611AE8
:1018400084ED021AFFF74EFA04F1380194ED281ADC
:10185000D4ED040A94ED030AA1F1200004F050FF36
:1018600094ED060A04F1200000F0BCF904F1B40084
:1018700004F040FF94ED070A04F1B40004F03DFFCA
:1018800004F1B40004F0B0FDD4ED160A04F14000F8
:1018900030EE200A84ED160A94ED0E0A00F0A2F94B
:1018A00004F5A87004F026FF94ED0F0A04F5A87063
:1018B00004F023FF04F5A87004F096FDD4ED170A98
:1018C0003448354930EE201A84ED171A21EE010A0A
:1018D000D4ED160A00EEA00A80ED000A10EE100A00
:1018E000884204DC10EE100A2C4988420DD99FED85
:1018F0002C2AC2EE001AB1EEE10A21EE001A20EE07
:10190000800A84ED171A84ED160A1F4994ED281AEF
:101910006431D4ED170A94ED160A081F04F064FA36
:10192000D4ED190A94ED180AFFF7CCF8164D42F2DF
:101930001076143D00232A891A484FF40071B242F0
:1019400003D394F8B160012E11D0174EB2F5FA6F9F
:1019500005D394F8B17017B93778012F07D0B2F5D5
:10196000FA7F07D394F8B12022B9327812B92B81CB
:1019700002F02BFA2889401C28812868401C286026
:10198000BDE8F081E8080020BC04002050080020D9
:10199000E17AD43F8C00002000001043000010C307
:1019A000000010430004004894000020204910B5B6
:1019B00091F8750091F8741008401E4909780840A4
:1019C00000D001201C4C84F8B1001C48FFF7D2FA6B
:1019D0001A48FFF7C9FB00F0E7F884ED1F0A94F8F6
:1019E000B000022822D194ED210A04F1880000F011
:1019F000F9F884ED200A94ED1F0A04F5F67004F05E
:101A000079FE94ED200A04F5F67004F076FE04F5F4
:101A1000F67004F0E9FC04F5F6700078002805D1B2
:101A200004F5F67004F042FE84ED0F0A10BD0000CC
:101A30001400002094000020BC040020E8080020CE
:101A400010B5F3EE042A2DED048B01219FED278ABA
:101A5000DFED288A9FED269AF0EE484AB0EE484A1C
:101A6000F0EE483AB0EE493AB0EE682AF0EE681A65
:101A7000B0EE681ADFED200A9FED200A204804F03E
:101A800018FE1F48F0EE484AB0EE484AF0EE483AD9
:101A9000B0EE493AF3EE042AB0EE682AF0EE681A86
:101AA000B0EE681ADFED170A9FED170A01219C308E
:101AB00004F0FFFDF0EE484AB0EE484AF0EE483A36
:101AC000B0EE682AF0EE681ABDEC048B0021BDE888
:101AD00010409FED0E3ADFED0E2A9FED0E1ADFED5E
:101AE0000E0A9FED0E0A0E4804F0E3BDCDCCCC3DAE
:101AF000CDCC4C3E000000009A99993E0000204257
:101B000070050020CDCCCC3E000070426666663F7A
:101B10000000FA43A69B443B6F12033A9A99993FFF
:101B2000A80600209FED1D0ADFED1D0A80ED000ACA
:101B300080ED010A80ED020A80ED030A80ED040ABF
:101B400080ED060A80ED070A80ED0E0A80ED0F0A8F
:101B500080ED160A80ED170A80ED180A80ED190A4B
:101B6000C0ED2B0A80ED2A0A80ED1F0A80ED200AC5
:101B700080ED210A80ED280A9FED0A0A002180ED00
:101B8000290AA0F86810A0F86A10A0F86C100322C7
:101B900080F8B02080F8B11070470000000000000D
:101BA0000000C8C2333333400B48F2EE0C1AB0EEDB
:101BB000401AD0ED290A80EEA10ADFED080A31EEC5
:101BC000201ABDEEC11AB8EEC11AC1EE201ADFED1F
:101BD000040A11EEA00A7047BC0400200000B443C0
:101BE000DB0FC94070B504462DED028BB0EE408A84
:101BF00002F0F8F800EE100AD4ED020AB8EE400A3E
:101C000030EE600ABCEEC00A10EE105A02F0EAF89C
:101C100000EE100AB8EE400A84ED020AD4ED010A83
:101C2000F5EEC00AF1EE10FA32DD10EE900AB0F1D6
:101C30007E5F2DDCB7EE000A94ED051A30EE600AE7
:101C400020EE011A00EE881A84ED041AB0EE410A63
:101C500084ED051A7DB101EE105ADFED0F1AB8EED2
:101C6000411A21EE211ADFED0D1A21EE211AC0EEE4
:101C7000811AC4ED001A00EE905A9FED091AF8EE91
:101C8000600AC1EE201AC4ED031ABDEC028B70BDD0
:101C9000B0EE480AF9E70000DB0FC9406F12833A43
:101CA00000007A4480ED010A9FED020A80ED020AED
:101CB000704700000000000004220249024801F0C1
:101CC000B5B900004A07002070010020F8B50026D1
:101CD0000446009690F858000D4601280BD00120CC
:101CE00084F858002046FEF783FD0100E06D04D023
:101CF00040F010002AE00220F8BD20F4885040F0A7
:101D00000200E06520688268134B1A4005F08043AA
:101D10001A4342F000428260104A20680EE0009BA5
:101D20005B1C0093934209D3E06D20F0020040F069
:101D30001000E06584F858600120F8BD8368DB0F6F
:101D4000EDD1E06D20F0020040F00100E06584F884
:101D500058600846F8BD0000C0FFFF3F02DE0400E7
:101D6000704700002DE9F84F4FF000090446CDF808
:101D700000900D4694F85820DFF8EC8361694F46D7
:101D80004846012A0AD00126F84A84F8586041B131
:101D9000296A012905D0A36EEBB129E00220BDE834
:101DA000F88F6868092838D1A96A4FF4785041B192
:101DB0002B6801F07C0100EA53400843E96A0843BC
:101DC00002E0296800EA51402368D96C11400143C0
:101DD000D964606621E0C4E91971A96A286A31B141
:101DE00001F07C01401E0843E96A084300E0401E00
:101DF00029682B79C1F3846103F01F0399400143E3
:101E0000A06E401EA066636E43EA0103636604D1C0
:101E10002168C86C10401843C864206804F01EF89C
:101E200058B995F8250098B12068C16895F8262022
:101E300021F4401141EA4251C160206804F016F8D3
:101E40008246206804F00AF85AEA00000DD0FCE04F
:101E500095F8260095F82410400540EA01512068C5
:101E6000C26822F440121143E6E7A86A30B1E86A7A
:101E700020B195F8250001285ED003E095F82500F3
:101E8000012804D02068C16821F0007103E02068B7
:101E9000C16841F00071C16095F83000012852D04E
:101EA0002068016921F002010161AA68296820689F
:101EB000B2F1004F38D003F0F4FF2068416921F0FF
:101EC0000041416120686969C268C2F3C1025200E1
:101ED00091402A69042A45D000EB82002B68026EEB
:101EE000DFF88CC203F0F84302EA0C020B431A43FA
:101EF00042F00041016620682A69A96900EB82006E
:101F0000026E22F080720A430266297F22682869E5
:101F1000012924D05FF0000102EB8000026E22F064
:101F200000720A43026690E0002203F0BAFF2068C4
:101F3000416941F00041C4E7E06D40F02000E065F8
:101F40004FF00109A8E7D5E90D01084321680A69A6
:101F500022F4FF7242F0020210430861A5E74FF03D
:101F60000071D9E7002103F06FFF400320684FF0B4
:101F7000000172D003F068FF90FAA0F0B0FA80F18F
:101F8000286842036ED090FAA0F0B0FA80F0814247
:101F900004D100221146206803F09AFF0121206835
:101FA00003F052FF400320684FF001015DD003F0C1
:101FB0004BFF90FAA0F0B0FA80F12868420359D0A4
:101FC00090FAA0F0B0FA80F0814204D10022012101
:101FD000206803F07DFF0221206803F035FF4003F5
:101FE00020684FF0020148D003F02EFF90FAA0F0D5
:101FF000B0FA80F12868420344D090FAA0F0B0FA19
:1020000080F0814204D100220221206803F060FFA9
:102010000321206803F018FF400320684FF00301FC
:1020200033D003F011FF90FAA0F0B0FA80F12868E5
:1020300042032FD090FAA0F0B0FA80F0814204D190
:1020400000220321206803F043FF2068816811F01B
:10205000010F22D0B5E000E004E003F0F5FEC0F38C
:1020600084618DE7C0F3846091E703F0EDFEC0F377
:102070008461A2E7C0F38460A6E703F0E5FEC0F345
:102080008461B7E7C0F38460BBE703F0DDFEC0F313
:102090008461CCE7C0F38460D0E72A7B296850F8DC
:1020A000B03FC1F3120C23EA0C0302F0180C314AC2
:1020B00022FA0CF20A4013430360E96841457DD1DE
:1020C000286841031BD090FAA0F1B1FA81F1491CB4
:1020D00001F01F0109294FEA403131D8002911D000
:1020E00090FAA0F1B1FA81F101F1010101F01F01B3
:1020F00006FA01F609D100BFC0F3846109E0C0F31C
:102100008461E4E7C0F38461EEE790FAA0F1B1FAEC
:1021100081F101F1010101F01F0146EA816102D163
:10212000C0F3846003E090FAA0F0B0FA80F000F110
:10213000010000F01F0000EB400041EA00513AE0CE
:1021400000290ED090FAA0F1B1FA81F101F101015C
:1021500001F01F0106FA01F60ED100BFC0F3846141
:102160000EE0C0F38461F1E700007F4000401004FE
:1021700000F0FF03FFFF070090FAA0F1B1FA81F130
:1021800001F1010101F01F0146EA816102D1C0F3B2
:10219000846003E090FAA0F0B0FA80F000F1010052
:1021A00000F01F003A4A00EB400002EB005041EA09
:1021B000000141F00071AA68206800E001E003F02E
:1021C00070FE34482B6803425ED022684FF0A04C6A
:1021D0003148324E324D624501D0AA4201D101460A
:1021E00000E031468968DFF8BC8001F0E0714345CA
:1021F00003D0DFF8B480434520D15FEA01281DD425
:10220000624505D0294B9A423ED1AA4200D03046C1
:1022100041F40001826822F0E0720A43826024489F
:1022200024490068B0FBF1F0801C00EB4000800006
:1022300000E0401E00900028FBD125E0DFF8788008
:1022400043450FD15FEAC1180CD4AA4202D11B4BFF
:102250009A4219D0624502D0AA4200D0304641F0DD
:1022600080710CE0DFF8588043450DD14B020BD450
:10227000AA4209D0624500D0304641F4800182680C
:1022800022F0E0720A43826084F85870484686E57E
:10229000000020FE000008800003005000070050EE
:1022A00000010050000021C31000C0900006005043
:1022B00010000020400D0300000052C70005005030
:1022C000000084CB0C4910B5884213D10B4801683B
:1022D000C9070FD0094910390968C906016821F0FA
:1022E0000101016006D50448FEF76AFBBDE8104015
:1022F000FFF786BA10BD000070010020102C0140CD
:102300000068A1F580710F390ED0B1F5837F08D038
:10231000B1F5037F02D0D0F880007047D0F88C0070
:102320007047D0F888007047D0F884007047704735
:102330002DE9F041044600684FF0A0454C4FA842FB
:1023400001D0B84201D14B4900E04B49896801F006
:102350001F0603F083FD08BB2168C868C96C00F044
:10236000004011F4C07F00D190B194F858000128CA
:1023700014D0012084F858002046FEF771FA0100BD
:102380004FF000020CD084F858200846BDE8F081D8
:10239000E06D40F02000E0650120F7E70220F5E75E
:1023A000E06DC00504D5206E20F00800206600E036
:1023B0002266E06D42F20103984340F48050E065EC
:1023C00020682E4BDFF8B8C0B84201D1AE4604E019
:1023D000984201D1E64600E08646864500D02EB9F7
:1023E000D4F85CE02EF4801EC4F85CE04FF0600E80
:1023F000C0F800E084F858202068C268920203D533
:10240000426842F480624260A069082820684268FD
:1024100007D022F0400242602068426842F0200269
:1024200006E022F0200242602068426842F040024A
:1024300042602068B84204D0984201D1654600E06D
:102440000546854209D046B1062E06D0072E04D097
:10245000E06D40F48010E06597E7C26812F0007FFD
:1024600093D18268074B1A4042F0080282608CE7E1
:10247000000100500003005000070050000500500C
:1024800000040050C0FFFF7F704770472DE9F04FF8
:10249000044690F858009BB00F464FF0000B0128FF
:1024A00012D0012084F8580000261796189620684C
:1024B0004FF0A048DFF81C91DFF81CA1474D4045C4
:1024C00006D12846009508E002201BB0BDE8F08F39
:1024D00048450AD15046CDF800A003F0C7FC009053
:1024E000206803F0C3FC40B109E0E06D40F020003B
:1024F000E06584F858600120E7E7009850B1E06D8E
:1025000040F02000E0654FF0010B00BF84F85860F8
:102510005846DAE720684146884201D0A84201D1F6
:102520002F4800E02F48D7F800C02F4B40F61F720D
:10253000BCF1000F2DD0D0F808C094F838802CF4EE
:10254000604C4CEA483CD7F804804CEA080CC0F8D0
:1025500008C0D4F800C08C4501D0AC4504D18968CE
:10256000AB6801F0010109E0D9F80810DAF8085069
:1025700001F0010105F001059B68294303F0010307
:102580001943C3D1BB68396819438368934319431E
:102590001DE0876827F46047876027688F4201D075
:1025A000AF4204D18968AB6801F0010109E0D9F8B4
:1025B0000810DAF8085001F0010105F001059B68E8
:1025C000294303F001031943A0D18168914381603D
:1025D0009CE700000004005000050050000100507E
:1025E0000003005000070050000600502DE9F84F8E
:1025F00000270446009790F85800DFF81C840D4629
:10260000B946012811D0012684F85860206803F0EB
:1026100029FC60B1E06D40F02000E0655FF001074B
:1026200084F858903846BDE8F88F0220FBE7D5E9DA
:1026300000210C23206803EA91131844036B01F076
:102640001F014FF01F0C0CFA01FCC2F3846223EA55
:102650000C038A4013430363206803F003FC8246A3
:10266000206803F0F7FB5AEA00003CD1AA68296809
:102670002068B2F1004F37D003F004FC20684169B4
:1026800021F00041416120686969C268C2F3C1025A
:10269000520091402A69042A31D000EB82002B6855
:1026A000026EDFF878C303F0F84302EA0C020B4332
:1026B0001A4342F00041016622682869A96902EBC9
:1026C0008000026E22F080720A430266297F22682F
:1026D0002869012910D0002102EB8000026E22F04F
:1026E00000720A4302667DE0002203F0CBFB206803
:1026F000416941F00041C5E74FF00071ECE700216E
:1027000003F09CFB400320684FF0000172D003F0FF
:1027100095FB90FAA0F0B0FA80F1286842036ED0E1
:1027200090FAA0F0B0FA80F0814204D10022114664
:10273000206803F0C5FB0121206803F07FFB400304
:1027400020684FF001015DD003F078FB90FAA0F013
:10275000B0FA80F12868420359D090FAA0F0B0FA9C
:1027600080F0814204D100220121206803F0A8FBFF
:102770000221206803F062FB400320684FF0020151
:1027800048D003F05BFB90FAA0F0B0FA80F1286823
:10279000420344D090FAA0F0B0FA80F0814204D114
:1027A00000220221206803F08BFB0321206803F044
:1027B00045FB400320684FF0030133D003F03EFB9C
:1027C00090FAA0F0B0FA80F1286842032FD090FA76
:1027D000A0F0B0FA80F0814204D1002203212068E9
:1027E00003F06EFB2068816811F0010F22D0ACE08D
:1027F00000E004E003F022FBC0F384618DE7C0F346
:10280000846091E703F01AFBC0F38461A2E7C0F390
:102810008460A6E703F012FBC0F38461B7E7C0F35E
:102820008460BBE703F00AFBC0F38461CCE7C0F32C
:102830008460D0E72A7B296850F8B03FC1F3120CBE
:1028400023EA0C0302F0180C754A22FA0CF20A4033
:1028500013430360E968414577D1286841031CD0E0
:1028600090FAA0F1B1FA81F1491C01F01F01092988
:102870004FEA403132D8002912D000BF90FAA0F1BF
:10288000B1FA81F101F1010101F01F0106FA01F62F
:1028900009D100BFC0F3846109E0C0F38461E3E7BC
:1028A000C0F38461EEE790FAA0F1B1FA81F101F191
:1028B000010101F01F0146EA816102D1C0F3846089
:1028C00003E090FAA0F0B0FA80F000F1010000F00F
:1028D0001F0000EB400041EA005132E000290ED019
:1028E00090FAA0F1B1FA81F101F1010101F01F01AB
:1028F00006FA01F606D100BFC0F3846106E0C0F31A
:102900008461F1E790FAA0F1B1FA81F101F10101DE
:1029100001F01F0146EA816102D1C0F3846003E047
:1029200090FAA0F0B0FA80F000F1010000F01F0072
:102930003C4A00EB400002EB005041EA000141F04C
:102940000071AA68206803F09DFA37482B6803429B
:102950003FF466AE21684FF0A04C3448344E354DFC
:10296000614501D0A94201D1024600E03246926899
:10297000DFF8C48002F0E072434503D0DFF8BC808A
:10298000434521D15FEA02281ED4614506D02C4B75
:1029900099427FF445AEA94200D0304642F400018E
:1029A000826822F0E0720A43826026482649006865
:1029B000B0FBF1F0401C00EB4000800000E0401E46
:1029C00000900028FBD12BE6DFF8808043450FD133
:1029D0005FEAC2180CD4A94202D11D4B9942F2D031
:1029E000614502D0A94200D0304642F080710CE02F
:1029F000DFF860804345E6D15302E4D4A942E2D037
:102A0000614500D0304642F48001826822F0E072D5
:102A10000A43826004E6000000007F4000F0FF03EC
:102A2000FFFF0700000020FE0000088000030050A8
:102A30000007005000010050000021C31000C090AA
:102A40000006005010000020400D0300000052C797
:102A500000050050000084CB7047704770470000AD
:102A60002DE9F84F04460068066845684FF0A04815
:102A7000DFF89092404501D0484501D1A24800E0DE
:102A8000A248806800F01F07B0070ED5A8070CD534
:102A9000E06DC00603D4E06D40F40060E0652046C0
:102AA000FFF75EF9216802200860DFF864B2DFF802
:102AB00064A2700701D5680703D430073FD5280703
:102AC0003DD5E06DC00603D4E06D40F40070E065D4
:102AD000206803F0CFF960B32068484501D1424631
:102AE00004E0584501D1524600E00246824208D037
:102AF0003FB1052F05D0092F03D0484503D14146EA
:102B000006E0C16805E0584501D1514600E00146A4
:102B1000C96889040DD4016809070AD503F0A2F930
:102B200058B3E06D40F01000E065206E40F0010009
:102B300020662046FFF790FF21680C200860B00651
:102B400001D5A80603D470065FD568065DD5E06D93
:102B5000C00603D4E06D40F40050E0652068C16C0D
:102B600011F4C07F1AD00021009103F083F90246CE
:102B70002068484514D1434617E02068416821F099
:102B80000C014160E06D20F48070E065E06DC004F0
:102B9000CFD4E06D40F00100E065CAE70121E3E732
:102BA000584501D1534600E00346834208D03FB167
:102BB000062F05D0072F03D0484503D1414606E034
:102BC000C16805E0584501D1514600E00146C96899
:102BD000009BA3B18B0102D58AB18A040FD402688D
:102BE00052060CD589020AD403F034F9F0B3E06D33
:102BF00040F01000E065206E40F0010020662046A5
:102C0000FFF760FB21686020086030060BD52806BE
:102C100009D5E06D40F48030E065204600F094F97D
:102C2000216880200860F0050CD5E8050AD5E06D24
:102C300040F40030E0652046FFF726FC21684FF4A1
:102C400080700860B0050CD5A8050AD5E06D40F489
:102C50008020E0652046FFF718FC21684FF40070E3
:102C60000860F00631D5E8062FD500E009E0E06BFA
:102C7000E8B12068EFB3404501D0484512D1224861
:102C800011E02068416821F060014160E06D20F4AE
:102C90008050E065E06DC005B1D4E06D40F001000A
:102CA000E065ACE71948806800F4604050B1E06D21
:102CB00040F48060E065206E40F00200206620460F
:102CC000FFF7CCFE216810200860700517D5680555
:102CD00015D5E06D40F48040E065206E40F00800BE
:102CE000206621684FF4806008602046BDE8F84FF8
:102CF00000E001E0FFF71BBBC068C007D6E7BDE8F6
:102D0000F88F000000010050000300500007005041
:102D10000005005000040050F8B54FF00005040015
:102D20002E46009502D0E06D10B107E00120F8BDFD
:102D3000204600F00BF9266684F858602068816808
:102D4000C1F3407119B18168734A114081602068F4
:102D50008168C1F3007189B98168704A114041F0FE
:102D6000805181606E486F490068B0FBF1F040000F
:102D7000801C00E0401E00900028FBD12068816884
:102D8000C1F3007141B9E16D41F01001E165216EBF
:102D900041F001012166012503F064F8E16DC906E7
:102DA00000D430B1E06D40F01000E0650125284608
:102DB000F8BDE06D20F4807040F00200E06520680E
:102DC000816811F0010F27D14FF0A043564A984275
:102DD00001D0904204D19968966801F001010AE09F
:102DE00052498968524E01F00101B66806F00106A9
:102DF0003143504EB66806F0010631430CD198427B
:102E000001D0904201D14C4800E04C486168826892
:102E100022F47C120A438260E168E06B627F08431F
:102E2000A16841EA4231084394F8241040EA014085
:102E3000012904D1218D424A02EB41410843E16A54
:102E400029B101F47871226B014342EA0100226842
:102E5000D1683C4B19400143D16020680169626B25
:102E600021F0406111430161206802F0F3FF70BB63
:102E7000207F94F838102268800340EA4100D1682E
:102E800044F2020399430143D1602069002820687D
:102E900001690AD041F480310161206850F8C01FF7
:102EA00022696FF30D01114307E021F480310161C4
:102EB000206850F8C01F6FF30D01016094F84000C6
:102EC00001280CD02068016921F0010101616069CD
:102ED00001282068016B21F00F0111D013E0D4E923
:102EE00011010843D4E913121143084321680A6908
:102EF00040F2FC739A43104340F001000861E6E79A
:102F0000226A521E11430163E06D20F0020040F07E
:102F10000100E0654BE70000C0FFFF5FC0FFFF7FDF
:102F200010000020400D030000010050000400507C
:102F3000000500500006005000030050000700503C
:102F40000000FEFF0740F0FF7047000070B59CB026
:102F50000646142115A8FDF7FEFA54216846FDF730
:102F6000FAFA3068B0F1A04F56D14FF4004000900B
:102F700080031190684601F055F808B1FEF74AF950
:102F80002649C86C40F40050C864C86C00F4005076
:102F90001A90C86C40F00100C864C86C00F00100D1
:102FA0001A90C86C40F00200C864C86C15A900F003
:102FB00002001A900F200324002581E831004FF011
:102FC000904000F0D9FD15A94FF4006081E8310070
:102FD000134800F0D1FD144C124820600520C4E9CC
:102FE00001058020C4E90350400060618000C4E90D
:102FF00006054FF440502062204600F047F908B122
:10300000FEF708F97465002211461220A66200F04E
:1030100071FF122000F060FF1CB070BD0010024074
:103020000004004808000240DC0100202DE9F047C0
:10303000044600684FF0A0483D4F91468A464045FF
:1030400001D0B84201D13B4900E03B49896801F019
:103050001F0502F007FF002868D194F858000128E6
:1030600064D0012084F8580034492068884201D196
:10307000012000E00020401E28424FF0000605D04D
:10308000052D03D0092D01D0012003E02046FDF7D6
:10309000E7FB18B184F85860BDE8F087E06D40F6B2
:1030A0000161884340F48070E0652068B84201D136
:1030B000414605E02249884201D1224900E001460B
:1030C000814200D01DB9E06D20F48010E065E06D14
:1030D000C00404D5206E20F00600206600E02666BD
:1030E000616D1948C862616D18480863616D1848C0
:1030F000486321681C20086084F858602068416893
:1031000041F0100141602068C16841F00101C160D7
:1031100021684B4652464031606D00F017F9216836
:103120008A680C4B1A40121D8A60B5E70220B3E78B
:10313000000100500003005000070050000600503E
:10314000000500500004005065070008E70700086C
:10315000CD070008C0FFFF7F70B590F82520002440
:1031600001212346022A07D00422C26380F82510D9
:1031700080F82430012429E00268156825F00E0546
:1031800015600268156825F001051560826C1568E8
:1031900025F48075156090F84420056C02F01F023C
:1031A00001FA02F26A60D0E913255560426D32B12E
:1031B000156825F480751560D0E91625556080F8EE
:1031C000251080F82430816B01B18847204670BDFE
:1031D000F0B4016C0C6801680D6890F8442002F0AE
:1031E0001F06042202FA06F3234211D06B070FD503
:1031F0000B689B0603D40B6823F004030B6090F864
:10320000441001F01F018A40016C4A60016B1DE00F
:10321000022303FA06F727424FF0000C4FF0010299
:1032200018D0AF0716D50C68A40605D40C6824F096
:103230000A040C6080F8252090F8441001F01F016A
:103240008B40016C4B6080F824C0C16A00291AD001
:10325000F0BC08470823B340234214D02B0712D5F3
:103260000B6823F00E030B6090F84410036C01F020
:103270001F0102FA01F15960C26380F8252080F82D
:1032800024C0416BE2E7F0BC7047000070B5040059
:103290000CD02B4A21681420914209D2294A0A44B1
:1032A000B2FBF0F08000606427480AE0012070BDA6
:1032B000234A52420A44B2FBF0F080006064204886
:1032C00008382064022084F825000A6847F6F07068
:1032D0008243D4E902031843D4E904352B4318434D
:1032E000A3691843E3691843236A1843104308602D
:1032F0002046FDF717FDA0680025B0F5804F00D1EE
:103300006560A16C20790860D4E9130141606068B0
:10331000401E032808D82046FDF724FD606D056097
:10332000D4E91601416002E06565A565E565E563E0
:10333000012084F8250084F82450002070BD00008E
:1033400008040240F8FFFDBF0000024070B50446CB
:1033500090F82400002501280CD0012084F82400D6
:1033600094F825600020012E06D084F82400022560
:10337000284670BD022070BD022684F82560E063F7
:103380002068066826F0010606602046FDF7FCFC72
:10339000206B00282068016802D041F00E0106E091
:1033A00021F0040101602068016841F00A01016018
:1033B000A06C0168C90303D5016841F48071016004
:1033C000606D18B1016841F4807101602068016886
:1033D00041F001010160CBE770B5044600F002FD49
:1033E0000546601C02D004484068044400F0FAFC22
:1033F000401BA042FAD370BD0400002030B590F805
:103400005C30012B07D0022B05D0016E41F0020188
:103410000166012030BD0468A36D4D0701D0DD07B2
:103420001DD011F0380F01D09D0718D511F4E07FA1
:1034300001D05D0713D511F4F05F01D01D070ED543
:1034400011F4604F01D0DD0609D511F4403F01D0E1
:103450009D0604D511F47C0F05D05D0603D4E56DFF
:1034600045F00105E5654C0701D0DC071DD111F0E1
:10347000380F01D09C0718D411F4E07F01D05C070D
:1034800013D411F4F05F01D01C070ED411F4604F77
:1034900001D0DC0609D411F4403F01D09C0604D4CD
:1034A00011F47C0F06D05B0604D50368DC6D44F094
:1034B0000204DC650B0604D5036853F8DC4F1443A3
:1034C0001C60CB0504D5036853F8E04F14431C601F
:1034D0000068426D0A434265002030BD70B5044665
:1034E00090F85C00022803D0206E40F0080007E04E
:1034F0002068D0F8C4309B0205D5206E40F40070DF
:103500002066012070BDD0F8C400C0F301452B46F1
:103510002046FDF7DBFE21680120A840C1F8CC0061
:10352000A065002070BD10B590F85C20012A07D07E
:10353000022A05D0016E41F002010166012010BD92
:103540000A687AB10B7B0A690C7A42EA43734A69CA
:10355000406C496842EA847200EBC100C0E9003265
:10356000002010BD0B7A4A690C8A42EA83720B7BF9
:10357000006CDB06496843EA04431A4340F8212003
:10358000EEE730B590F85C50039C012D05D0016E3C
:1035900041F004010166012030BD0901006841EAE3
:1035A000820141EA430150F8802F214322F03F027B
:1035B00011430160002030BD70477047F0B590F8AE
:1035C0005C400025022C03D0016E41F0080160E050
:1035D0000468402946D0D4F89860360756D0D4F80D
:1035E0009860F60104D5D4F88060F60500D5012571
:1035F000D4F89840C4F301246619C46C06EBC605E0
:1036000004EBC504256815F080455560256843D056
:1036100025F06045156025682C4F05F00055956034
:1036200020CC05F00045156134F8045BADB2D561DE
:1036300054F8045CC5F30345D56054F8045C05F404
:103640008015556154F8045C05F40015956154F833
:10365000045CC5F30665156254F8045CED0F556211
:10366000002522E0D4F8906036070FD0D4F890609F
:10367000F60104D5D4F88060B60500D50125D4F84C
:103680009040C4F301246619846CB7E7016E41F4DD
:10369000807101660120F0BDC5F38A45BAE700BF1D
:1036A00014F805C003F805C06D1CD2F80CC017F85B
:1036B0000CC0AC45F4D80068402903D0C0F89C6029
:1036C0000020F0BDC0F89460FAE7000050750008D3
:1036D00070472DE9F05F04460068016D426D01F40A
:1036E000E05102EA0108016D426D01F0070102EAB2
:1036F0000109016D426D01F0380102EA010A016D14
:10370000476D01F471010F40016D426D01F46021BC
:10371000456D02EA010B016DCE43710607D4E94302
:10372000490604D4402101652046FFF7D1FFF0058A
:103730000ED4E843C0050BD42068D0F8D820D0F8C8
:10374000E01011404FF480720265204600F00FFA3D
:10375000B8F1000005D0216808654146204600F018
:1037600008FAB9F1000005D02168086549462046ED
:1037700000F0B4F9BAF1000005D02168086551469F
:10378000204600F0DBF9B00509D4E843800506D4F3
:1037900021684FF400700865204600F0EBF9300610
:1037A0000DD4E84300060AD42068D0F8D420D0F81D
:1037B000DC10114080220265204600F0D9F9B004E7
:1037C00009D4E843800406D421684FF4005008650A
:1037D000204600F0CBF9300409D4E843000406D4B5
:1037E00021684FF400400865204600F0BEF97004DF
:1037F0000AD4E843400407D421684FF480400865A8
:10380000206E40F080002066BBF1000005D02168EA
:10381000086559462046FFF7D0FE27B120680765A6
:10382000206E38432066206E002802D02046FFF725
:10383000C3FEBDE8F09F00002DE9F041040006D072
:10384000DFF8F48194F85C00002518B107E001204E
:10385000BDE8F08184F85D50204600F0F9F820685A
:10386000816921F01001816100F0BCFA064603274E
:1038700005E000BF00F0B6FA801B0A2811D82068C6
:1038800080690007F6D42068816941F001018161F7
:1038900000F0A8FA06460BE000F0A4FA801B0A2804
:1038A00006D9206E40F00100206684F85C70CEE7F7
:1038B00020688069C007EFD02068816941F002016B
:1038C00081612168414502D15C4960680860207CC3
:1038D00001282068816937D041F040018161607C16
:1038E00001282068816932D021F480418161A07C67
:1038F0000128206881692DD041F4805181612068C0
:103900008169A26821F44071114381612068816955
:1039100021F0A40181612068016921F01001016199
:10392000E068012819D010B302281BD020688169F3
:1039300041F0800181612068016941F0100101615D
:10394000E06803280ED012E021F04001C6E741F400
:103950008041CBE721F48051D0E72068816941F0B4
:10396000040103E02068816941F020018161207E2B
:10397000E26940066FF0FF0101EB0222A0F1007046
:103980001043226AA38A521E10430A0202EB034329
:1039900018432368D861A068B0F5407F10D1D4E9FE
:1039A0000A0301EB0321401E0843216B131303EBB1
:1039B00001110843A18C02EB014108432168C86052
:1039C000206850F8C01FE26B114301601D4A216856
:1039D0001B48914200D11C481C4A914201D100F57C
:1039E000D460206451F8802FA38E22F4F81242EAAA
:1039F00003420A6000F170016164216851F8802F70
:103A000094F8383022F0706242EA03620A6000F1F2
:103A1000B001A164D831E164D83121651831616504
:103A2000D83100E020C08842FCD3A565256601207E
:103A300084F85C0000200BE7006400400065004053
:103A400000A400400068004050A70040006C004007
:103A500010B59CB00446142115A8FCF77CFD542138
:103A60006846FCF778FD1B492068884230D18014F5
:103A7000009040030E90684600F0D4FA08B1FDF7BC
:103A8000C9FB1548816D41F000718165816D01F0C0
:103A900000711A91C16C41F00101C164C06C002138
:103AA00000F001001A904FF4C05015900220CDE9AB
:103AB000160118900920199015A9C00600F05CF8AD
:103AC00000220421152000F015FA152000F004FA58
:103AD0001CB010BD006400400010024070B50446E8
:103AE000C80726D013492068884222D1124B4021B2
:103AF0001D4603F140022046FFF760FD0E4A0C3AD6
:103B0000B2F84C1001F00F0001F4FE61B1F5846FC2
:103B100004D1516811602946FDF778FC002201218B
:103B20002046FFF76BFC002803D0BDE87040FDF78E
:103B3000FFBB70BD0064004020000020704790F87B
:103B40005C10012905D0016E41F0040101660120DD
:103B50007047022180F85C1001688A6922F0010236
:103B60008A610021016608467047704770477047B8
:103B700070477047704700002DE9F04FDFF8209242
:103B8000002301260324A9F1040B85B00F2709F1B6
:103B9000040AABF1040EFAE006FA03F52A407CD0E1
:103BA00091F804C00CF0030CBCF1010F02D0BCF181
:103BB000020F26D1D0F808C0CDF800C04FEA430C60
:103BC00004FA0CF8CDF810C0DDF800C02CEA080C9F
:103BD000CDF800C0D1F80C80DDF810C008FA0CF860
:103BE000DDF800C048EA0C08C0F80880D0F804C02E
:103BF0002CEA050C0D79C5F300159D4045EA0C052E
:103C000045600D79ED43AD070ED0C5684FEA430816
:103C100004FA08FC25EA0C05D1F808C00CFA08FCE7
:103C20004CEA050CC0F80CC00D7905F00305022D17
:103C300016D1DD0800EB850CCDF808C0DCF820803B
:103C40005D074FEAD56C07FA0CF528EA05080D69FF
:103C500005FA0CF5DDF808C045EA0805CCF8205057
:103C600005684FEA430CCDF808C004FA0CFC25EABD
:103C70000C0591F804C00CF00308DDF808C008FA40
:103C80000CF848EA0508C0F800804D6815F4403F7C
:103C90007CD0444DD5F860C000E077E04CF0010CDA
:103CA000C5F860C02D6E23F0030C05F001050095EA
:103CB0003D4D65440295AD684FEA837C4FEA1C7820
:103CC00007FA08FC25EA0C05B0F1904F06D0DFF8A2
:103CD000DCC0604505D14FF0010C20E04FF0000C36
:103CE0001DE0DFF8CCC0604502D14FF0020C16E0B9
:103CF000DFF8C0C0604502D14FF0030C0FE0DFF8E1
:103D0000B8C0604502D14FF0040C08E0DFF8ACC049
:103D1000604502D14FF0050C01E04FF0060C0CFAA3
:103D200008FC4CEA050C029DC5F808C0D9F8005003
:103D3000CC46D1F8048095435FEAC82800D51543E6
:103D4000CCF80050DAF80050D446D1F804809543FE
:103D50005FEA882800D51543CCF80050DBF8005006
:103D6000DC46D1F8048095435FEA883800D51543D6
:103D7000CCF80050DEF80050F446D1F804809543AA
:103D80005FEAC83800D51543CCF800505B1C0A68C0
:103D900032FA03F57FF400AF05B0BDE8F08F000004
:103DA00008040140001002400000014000040048E7
:103DB00000080048000C00480010004800140048AB
:103DC0000069084000D001207047426921EA0203DF
:103DD0000A4043EA0241816170470AB1816170473C
:103DE000816270470148806870470000040000202D
:103DF00002488168426811448160704704000020D5
:103E000010B50024032000F095F80F2000F008F80A
:103E100008B1012401E000F047F8204610BD000081
:103E200030B505461C4887B0816D41F001018165C0
:103E3000806D06A900F00100009001A800F060FB71
:103E400000F07EFB15494FF08042B0FBF1F11448C1
:103E5000491E0260416040F2E7320021C0E90321BF
:103E6000816001F000FB040012D10D4801F0A6FBB7
:103E700004000DD11C2000F02FF8102D07D20022D5
:103E800029461C2000F036F80648056000E00124B1
:103E900007B0204630BD00000010024040420F0035
:103EA0005C040020040000200A4882B0016E41F04A
:103EB00001010166016E01F001010091816D41F087
:103EC00080518165806D00F08050009002B000F05C
:103ED000A1B8000000100240002809DB00F01F021A
:103EE000012191404009800000F1E020C0F800115C
:103EF00070470000F0B40E4B1B680C46C3F302235E
:103F0000C3F10705042D00D90425191D072901D285
:103F1000002300E0DB1E012606FA05F1491E2140C0
:103F200099409E40761E16403143F0BC03F068B8BD
:103F30000CED00E0064900F0070208684FF6FF03A9
:103F4000184040EA0220034A10430860704700000E
:103F50000CED00E00000FA052B492C4B0A683221D9
:103F60004A432B4940B1B0F5007F086829D020F4BE
:103F7000C06040F480602CE00868C0F34120022853
:103F800004D051F8800F20F4807022E0D1F8800036
:103F900020F48070C1F88000086820F4C06040F40C
:103FA00000700860B2FBF3F0401C00E0401E4A695C
:103FB000520501D50028F9D1486940050AD50320EA
:103FC0007047C0F34120022806D051F8800F40F41A
:103FD0008070086000207047D1F8800040F4807045
:103FE000C1F88000086820F4C06040F400700860E8
:103FF000B2FBF3F0401C00E0401E4A695205DBD5DD
:104000000028F9D1D8E700001000002040420F003E
:10401000007000400248816841F48041816070472F
:10402000007000402DE9F843044600680026BB4DAF
:1040300000035ED5A86D0027C00008D4A86D40F02D
:104040008050A865A86D012700F080500090DFF82F
:10405000D092D9F8001041F48071C9F80010FFF730
:10406000C1FE804606E000BFFFF7BCFEA0EB0800E3
:1040700002282BD8D9F80000C005F5D5D5F8900056
:1040800010F4407014D0216D814211D0D5F8900009
:10409000D5F8901020F4407041F48031C5F89010AC
:1040A000D5F8901021F48031C5F89010C5F8900033
:1040B000C00711D0FFF796FE804641F2883907E02D
:1040C000FFF790FEA0EB0801494501D903260BE05C
:1040D000D5F890008007F3D5D5F89000216D20F435
:1040E00040700843C5F890001FB1A86D20F08050C3
:1040F000A8652078C00707D0D5F88800616820F04F
:1041000003000843C5F888002078800707D5D5F854
:104110008800A16820F00C000843C5F888002078CA
:10412000400707D5D5F88800E16820F03000084343
:10413000C5F888002078000707D5D5F888002169E0
:1041400020F0C0000843C5F888002078C00607D5D5
:10415000D5F88800616920F440700843C5F88800EC
:104160002078800607D5D5F88800A16920F4406042
:104170000843C5F888002078400607D5D5F88800A0
:10418000E16920F440500843C5F888002078000613
:1041900007D5D5F88800216A20F440400843C5F8C7
:1041A00088002088C00507D5D5F88800616A20F40A
:1041B00040300843C5F888002068800307D5D5F84B
:1041C0009C00A16A20F003000843C5F89C002088E9
:1041D000800507D5D5F88800E16A20F4402008431F
:1041E000C5F88800208840050FD5D5F88800216BD8
:1041F00020F440100843C5F88800206BB0F5801FFC
:1042000003D1E86840F48010E860208800050FD5ED
:10421000D5F88800616B20F440000843C5F8880099
:10422000606BB0F5800F03D1E86840F48010E8605F
:104230002088C0040FD5D5F88800A16B20F040700D
:104240000843C5F88800A06BB0F1807F03D1E8680F
:1042500040F48010E86020884FF0006180040ED5A3
:10426000D5F88800E26B20F040601043C5F8880064
:10427000E06B884203D1E86840F48010E860208851
:1042800040040ED5D5F88800226C20F04060104321
:10429000C5F88800206C884203D1E86840F480109B
:1042A000E860208800040FD5D5F88800616C20F004
:1042B00040500843C5F88800606CB0F1805F03D1BE
:1042C000E86840F48030E8602068C0030FD5D5F876
:1042D0008800A16C20F040400843C5F88800A06C1D
:1042E000B0F1804F03D1E86840F48030E860206886
:1042F00040030FD5D5F89C00E16C20F44010084332
:10430000C5F89C00E06CB0F5001F03D1E86840F4EC
:104310008010E8603046BDE8F883000000100240DD
:10432000007000402DE9F0470E4605004FF00007F1
:1043300025D0DFF8AC81D8F8000000F00F00B042C3
:104340000CD2D8F8001021F00F013143C8F800104A
:10435000D8F8000000F00F00B04210D12968614C7D
:10436000C80741F2883A5AD06868DFF87C91032880
:1043700008D0022820682DD0400500282CDB012021
:10438000BDE8F08720688001F9D5E06800F00302FD
:10439000E068C0F30310401C032A19D0534A00BF41
:1043A000B2FBF0F0E268C2F306225043E268C2F3C7
:1043B0004162521C5200B0FBF2F0484517D9A06888
:1043C00010F0F00F0CD0880711D5A86840B10EE0AE
:1043D000474AE5E78003D0E700F0C4F8484506D92E
:1043E000A06820F0F00040F08000A0608027A06866
:1043F000696820F003000843A060FFF7F3FC8146E2
:1044000006E000BFFFF7EEFCA0EB090151453AD8EA
:10441000A068696800F00C00B0EB810FF2D1286849
:10442000810714D5400703D5A06840F4E060A06080
:104430002878000705D5A06820F4605040F4E060BB
:10444000A060A068A96820F0F000084304E0802F75
:1044500003D1A06820F0F000A060D8F8001040461A
:1044600001F00F01B14216D9016821F00F0131436B
:104470000160FFF7B7FC074607E000BFFFF7B2FC9B
:10448000C11B514501D903207AE7D8F8000000F09C
:104490000F00B042F2D12878400705D5A068E9683E
:1044A00020F4E0600843A0602878000706D5A068E3
:1044B000296920F4605040EAC100A06000F052F881
:1044C000A1680C4AC1F30311515C01F01F01C840FF
:1044D0000949086009480068BDE8F047FFF7A0BC3B
:1044E000002002400010024000B4C4040024F40084
:1044F00000127A00607500081000002004000020FF
:104500000F2202600C4A936803F003034360936830
:1045100003F0F0038360936803F4E063C360926880
:104520004FF4E06303EAD20202610448006800F03D
:104530000F00086070470000001002400020024099
:104540000548064900688968054AC1F30221515CA3
:1045500001F01F01C8407047100000200010024009
:1045600070750008184910B58868C0F381021748B3
:10457000012A0BD08A684310C2F38102022A06D0B6
:104580008A68C2F38102032A03D0002010BD1846B6
:1045900010BDCA6802F00304CA68C2F30312521CB9
:1045A000032C02D0B0FBF2F001E0B3FBF2F0CA68DA
:1045B000C968C2F306225043C1F34161491C490056
:1045C000B0FBF1F010BD0000001002400024F40028
:1045D0002DE9F84304007AD02078F84DC00747D081
:1045E000A868E96800F00C0001F003010C2802D073
:1045F000082817D001E0032914D06068B0F5803F87
:1046000017D0B0F5A02F286817D020F4803028608C
:10461000286820F4802028606068E0B1FFF7E2FBA2
:10462000064614E02868800322D560680028D2D0AE
:104630001EE0286840F48030EDE740F480202860D8
:10464000F7E700BFFFF7CEFB801B642870D828680F
:104650008003F7D50CE0FFF7C5FB064605E000BF79
:10466000FFF7C0FB801B6428F0D828688003F7D4CC
:10467000207880074CD5A868E96800F00C0001F0AC
:1046800003010C2802D004280DD001E002290AD031
:10469000E068002828682BD040F480702860FFF77D
:1046A000A1FB064619E02868400502D5E06800280D
:1046B00091D06868217C20F0FE4040EA016068608B
:1046C000BF480068FFF7ACFB002800D120E072E192
:1046D000FFF788FB801B0228B8D828684005F7D56B
:1046E0006868217C20F0FE4040EA016068600FE0CD
:1046F00020F480702860FFF775FB064605E000BFD8
:10470000FFF770FB801B0228A0D828684005F7D46B
:104710002078000729D560690028D5F8940013D0C7
:1047200040F00100C5F89400FFF75CFB064606E088
:1047300090E000BFFFF756FB801B022886D8D5F813
:1047400094008007F6D510E020F00100C5F8940031
:10475000FFF748FB064604E0FFF744FB801B0228F6
:1047600078D8D5F894008007F6D42078400761D532
:10477000A86D0026C00008D4A86D40F08050A86540
:10478000A86D012600F0805000908E480168C90590
:1047900011D40168804641F480710160FFF722FB6B
:1047A000074604E0FFF71EFBC01B022852D8D8F8CA
:1047B0000000C005F6D5A068012815D00528D5F859
:1047C000900016D020F00100C5F89000D5F89000B8
:1047D00020F00400C5F89000A06841F28838B8B114
:1047E000FFF700FB07460EE0D5F8900040F001000F
:1047F000F0E740F00400C5F89000F5E7FFF7F2FAA3
:10480000C11B414526D8D5F890008007F6D50CE0AD
:10481000FFF7E8FA074604E0FFF7E4FAC11B414559
:1048200018D8D5F890008007F6D41EB1A86D20F0F6
:104830008050A8652078800629D5A0690028D5F881
:10484000980013D040F00100C5F89800FFF7CAFAAD
:10485000064606E075E000BFFFF7C4FA801B022899
:104860006FD8D5F898008007F6D510E020F0010049
:10487000C5F89800FFF7B6FA064604E0FFF7B2FA6B
:10488000801B02285DD8D5F898008007F6D4E0692F
:10489000F0B3A968C1F3810103295DD0022828681B
:1048A00020F08070286003D0FFF79CFA04464BE0AC
:1048B000FFF798FA064604E0FFF794FA801B0228F7
:1048C0003FD828688001F7D4F4E908016FF00F029F
:1048D00002EB01110843218A5204490802EB4151BD
:1048E000A26841EA02210843217D4FF07E42490837
:1048F00002EB41610843217B40EAC160E968324A2A
:1049000011400843E860286840F08070286000E0AB
:104910005EE0E86840F08070E860FFF763FA044604
:1049200005E000BFFFF75EFA001B022809D82868DF
:104930008001F7D54CE000BFFFF754FA001B0228B6
:1049400002D90320BDE8F88328688001F4D4E86820
:104950001E490840E8603BE00128F3D0E868226A7D
:1049600000F00301914226D1616A00F0F0020901D2
:10497000103991421FD1A26A00F4FE41B1EB022F1F
:1049800019D194F82C2000F07841B1EBC26F12D10C
:10499000218E00F4C00249084905A1F50011914299
:1049A00009D194F8341000F0C06049084906A1F11B
:1049B000007181420CD00120C4E7000000100240C9
:1049C00004000020007000400C809F01FCFFEEFE00
:1049D0000020B7E77047000038B5016804464A6810
:1049E0008868C043430606D5C30704D1D3435B069A
:1049F00001D4E16C05E0830708D4D3431B0605D43A
:104A0000216D01B02046BDE830400847830603D53C
:104A1000430601D5C30551D4D3439B064ED4430668
:104A20000AD494F85D30032B49D0236E43F004037D
:104A30002366CB688B680093830609D4236E43F00A
:104A4000010323668B6800930B6823F040030B601F
:104A5000C00506D4206E40F00800206620688068FB
:104A60000090206E002829D02068416821F0E001E4
:104A70004160012084F85D00900701D4D00722D066
:104A80002068416821F003014160114DA06D40B1E3
:104A90008563A06DFEF760FB18B1206E40F040000A
:104AA0002066606D002809D08563606DFEF754FBB9
:104AB000002803D0206E40F04000206638BDC86852
:104AC0008868009038BD2046FFF784FF38BD00009D
:104AD0006567000870B5040009D0606A002540B120
:104AE00025616561A56294F85D0040B10CE001208C
:104AF00070BD6068B0F5827FF4D0E561F2E784F8BC
:104B00005C50204600F05CF8022084F85D002068CC
:104B1000016821F040010160E1684FF4E0629142D8
:104B200001D9002001E04FF48050B1F5706F02D040
:104B3000914200D0A562A188228901F4827102F419
:104B400004421143227C02F002021143227D02F052
:104B500001021143228B02F400721143227F02F002
:104B60003802114394F8202002F080021143228D74
:104B700002F40052114322681160A169042202EA82
:104B8000114194F8242000F4805002F010021143E7
:104B900094F8342002F008021143A28902F47062F2
:104BA00011430143206841602068C16921F400611C
:104BB000C1612566012084F85D00002070BD000001
:104BC0002DE9F04186B0064614216846FBF7C3FC88
:104BD0002F493068884257D12E48016E41F48051E8
:104BE0000166016E01F480510591C16C41F0010133
:104BF000C164C06C012100F001000590E02000902C
:104C00000220CDE9010103900520049069464FF090
:104C10009040FEF7B1FF214C1F48002520600A207C
:104C2000C4E901054FF08008C4E9035865614FF4F9
:104C30000057A561C4E907572046FEF727FB08B1D6
:104C4000FCF7E8FAB465A662144C134860341430DB
:104C500020600B20606004F10801102081E8210130
:104C60006561A561C4E907572046FEF70FFB08B14F
:104C7000FCF7D0FA7465002202212320A662FFF718
:104C800039F92320FFF728F906B0BDE8F0810000CC
:104C900000300140001002400804024004030020DC
:104CA0002DE9F84F044690F85D001D4616460F4664
:104CB00001283FD1002F75D0002E73D060684FF0CF
:104CC0000408B0F5827F01D1A06848B3FFF78AF8E5
:104CD000824694F85C0001282CD04FF0010984F83A
:104CE0005C9084F85D804FF00008C4F86080276411
:104CF000A4F84460A4F84660C4F83880A4F83C8066
:104D0000A4F83E80C4F84C80C4F85080E0684FF4AA
:104D1000E0618842206842680ED922F480520DE09A
:104D200084F85D80009313460A46204600F03EF961
:104D3000BDE8F88F0220FBE742F480524260A06891
:104D4000B0F5004F09D12068026822F040020260ED
:104D50002068026822F480420260206802685206DD
:104D600003D4026842F040020260E06888421BD926
:104D700039E020688168C9070BD0017B206C017085
:104D8000206C401C2064B4F84600401EA4F8460085
:104D90000AE0FFF727F8A0EB0A00A84203D3681C3B
:104DA00002D036E032E09DB3B4F846000028E0D1EE
:104DB0001DE020688168C9070BD0C068216C08809D
:104DC000206C801C2064B4F84600401EA4F8460005
:104DD00009E0FFF707F8A0EB0A00A84202D3681C1D
:104DE00001D016E0A5B1B4F846000028E1D1524642
:104DF0002946204601F0BFFC08B12020206684F837
:104E00005D9084F85C80206E002891D001208FE7AF
:104E1000FFE784F85D9084F85C80032088E72DE943
:104E2000F84F984616468A460446FEF7DBFF814651
:104E300094F85D00012820D1BAF1000F6FD0002E48
:104E40006DD094F85C00012817D0012784F85C70BD
:104E5000032084F85D0000252566C4F838A0A687E5
:104E6000E6872564A4F84450A4F846502565E56417
:104E7000A068B0F5004F03D00CE00220BDE8F88F29
:104E80002068016821F0400101602068016841F458
:104E90008041016020680168490603D4016841F03F
:104EA00040010160E068B0F5E06F606826D908B1A4
:104EB000012E1FD1A06B21680088C86006E0206821
:104EC0008168890709D5A16B0988C160A06B801C26
:104ED000A063E08F401EE0870CE0FEF783FFA0EBAD
:104EE0000901414503D3B8F1FF3F03D04BE0B8F1CE
:104EF000000F48D0E08F0028E1D139E008B1012E41
:104F000033D1E08F0128A06B03D921680088C860E5
:104F100010E021680078087314E0E08725E043E0A2
:104F200020688168890713D5E18F0129A16B07D912
:104F30000988C160A06B801CA063E08F801EECE735
:104F400009780173A06B401CA063E08F401EE4E76A
:104F5000FEF748FFA0EB0901414503D3B8F1FF3F3D
:104F600003D010E0B8F1000F0DD0E08F0028D7D1AA
:104F70004A464146204601F038FC08B12020206610
:104F8000A06830B109E084F85D7084F85C500320BB
:104F900074E72068C1688068009084F85D7004F848
:104FA0005C5F60680028F3D0012067E72DE9FF5FB0
:104FB0001D46934604464FF001090E9EFEF712FF70
:104FC000074694F85D006168012806D0B1F5827F3C
:104FD00039D1A168B1BB042835D1019800287CD013
:104FE000BBF1000FFBD0002DF9D094F85C00012834
:104FF00029D04FF0010A84F85CA094F85D000428E1
:1050000002D0052084F85D004FF00008C4F86080ED
:10501000C4F840B0A4F84650A4F844500199A163E4
:10502000E587A587C4F84C80C4F85080E0684FF449
:10503000E061884201D8012D09D92068426822F434
:10504000805208E0FFE7022004B0BDE8F09F20682E
:10505000426842F48052426020680268520603D4DB
:10506000026842F040020260E0688842606846D907
:1050700008B1012D3BD1A06B01882068C160A06BF5
:10508000801CA063E08F401EE08730E020688168CC
:1050900089070FD5E18F69B1B9F1010F0AD1A16B71
:1050A0000988C160A06B801CA063E08F401EE08770
:1050B0004FF0000920688168C90711D0B4F8461084
:1050C00071B1C068216C0880206C801C2064B4F829
:1050D0004600401EA4F8460000E09EE04FF00109A3
:1050E000FEF780FEC01BB04201D3701C74D1E08F6C
:1050F0000028CBD1B4F846000028C7D175E008B12C
:10510000012D6BD1E08F0128A06B08D921680088A0
:10511000C860A06B801CA063E08F801E07E0216840
:1051200000780873A06B401CA063E08F401EE087EE
:1051300054E02068816889071AD5E18FC1B1B9F1BF
:10514000010F15D1E18F0129A16B07D90988C16031
:10515000A06B801CA063E08F801E06E009780173BD
:10516000A06B401CA063E08F401EE0874FF0000959
:1051700020688168C90728D0B4F8461029B3B4F86C
:105180004610012914D9C068216C0880206C801C4D
:105190002064B4F84600801EA4F84600B4F8460027
:1051A000012810D82068416841F4805141600AE02C
:1051B000007B216C0870206C401C2064B4F8460011
:1051C000401EA4F846004FF00109FEF70BFEC01B7D
:1051D000B04202D3701C01D012E08EB1E08F0028E3
:1051E000A7D1B4F846000028A3D13A46314620465C
:1051F00001F0FBFA50B12020206684F85C800CE0BE
:1052000084F85DA084F85C8003201DE784F85DA02D
:1052100084F85C80206E0028F7D0012014E77047E6
:105220007047704730B590F83C20012A45D00122E4
:1052300080F83C20CA688B6822F440721A434B689D
:1052400022F480621A430B6822F400621A430B694D
:1052500022F480521A434B6922F400521A430B6B1A
:1052600022F480421A430B8B22F4702242EA03425A
:10527000CB6922F080521A43114D03680024AB42DF
:1052800005D0104DAB4202D00F4DAB4210D10D8D69
:1052900022F4700242EA05520D6A22F080722A431B
:1052A0004D6A22F000722A43C96A22F000520A4372
:1052B0005A6480F83C40002030BD022030BD000020
:1052C000002C01400034014000500140704700684C
:1052D000416D41F4003141650020704770477047CF
:1052E000F0B590F83C20012A43D0012580F83C50CD
:1052F000022280F83D2003685A689C681E4E1F4FAA
:10530000DFF87CC0B34203D0BB4201D0634504D177
:1053100022F4700E4A6842EA0E02DFF868E002EA00
:105320000E02D1F800E04EEA020EC3F804E0026873
:10533000B24212D0B2F1804F0FD0134B9A420CD030
:10534000124B9A4209D0124B9A4206D0BA4204D06C
:10535000104B9A4201D0624504D1896824F0800341
:105360001943916080F83D50002180F83C100846B8
:10537000F0BD0220F0BD0000002C014000340140CF
:10538000005001408FFFFFFD000400400008004076
:10539000000C00400040014010B50446022249B113
:1053A00004290ED0082913D094F84700012816D0FC
:1053B000012010BD94F844000128F9D184F844205C
:1053C0000FE094F845000128F2D184F8452008E068
:1053D00094F846000128EBD184F8462001E084F8D7
:1053E00047200422206801F006FC2068416C41F44B
:1053F0000041416413492068884214D0B0F1804FC5
:1054000011D0114988420ED0104988420BD0104962
:10541000884208D00F49884205D00F49884202D0FF
:105420000E49884207D181680D4A1140062906D0ED
:10543000B1F5803F03D0016841F001010160002017
:1054400010BD0000002C0140000400400008004096
:10545000000C004000340140004001400050014079
:1054600007000100704710B5040003D094F83D0018
:1054700010B107E0012010BD002084F83C00204658
:1054800000F022F8022084F83D00211D206801F080
:1054900033FB012084F8480084F83E0084F83F0084
:1054A00084F8400084F8410084F8420084F8430006
:1054B00084F8440084F8450084F8460084F84700E6
:1054C00084F83D00002010BD08B5194A016819484C
:1054D000914216D1016E41F400610166006E002216
:1054E00000F40060009011461820FEF703FD18201C
:1054F000FEF7F2FC002211461920FEF7FBFC1920F2
:1055000010E00D4A914211D1816D41F00201816597
:10551000806D002200F00200009001211D20FEF7A6
:10552000E9FC1D20BDE80840FEF7D6BC08BD000020
:10553000002C0140001002400004004090F83D1093
:10554000012901D001207047022180F83D10006838
:105550001249884214D0B0F1804F11D010498842CE
:105560000ED0104988420BD00F49884208D00F490D
:10557000884205D00E49884202D00E49884207D1A0
:1055800081680D4A1140062906D0B1F5803F03D04D
:10559000016841F00101016000207047002C0140CA
:1055A0000004004000080040000C004000340140AE
:1055B00000400140005001400700010090F83D10FC
:1055C000012901D001207047022180F83D100168B7
:1055D000CA6842F00102CA6000681349884214D0C8
:1055E000B0F1804F11D0114988420ED01049884245
:1055F0000BD01049884208D00F49884205D00F4986
:10560000884202D00E49884207D181680D4A114074
:10561000062906D0B1F5803F03D0016841F00101B1
:105620000160002070470000002C01400004004091
:1056300000080040000C00400034014000400140E0
:10564000005001400700010070B5044690F83C008E
:10565000002501281CD0012684F83C60022084F833
:105660003D0022689068334B184020F47F409060E2
:105670000868B0F5005F2ED016DC402849D009DC60
:10568000D0B1102818D0202816D0302849D113E0E6
:10569000022070BD50282AD0602830D070280FD04A
:1056A000B0F5805F3DD13DE010F00F0F39D1011111
:1056B000A1F58031072934D822680146104625E03B
:1056C000CB68D1E90121206801F0A2FA2068816845
:1056D00041F0770109E0CB68D1E90121206801F0B0
:1056E00097FA2068816841F4804181601AE0CA68B5
:1056F0004968206801F060FC5021206806E0CA6813
:105700004968206801F069FC6021206801F08AFA8C
:1057100008E0CA684968206801F04EFC4021206812
:10572000F4E7012584F83D60002084F83C00284619
:1057300070BD000088FFCEFF70472DE9F0410446A0
:105740000068C66805694FF00007A90713D5B107BF
:1057500011D5F91E0161012020772068806980073A
:10576000204602D0FFF7E8FF04E000F0FFF82046F3
:1057700000F0C1F92777680716D5700714D521689E
:105780006FF004000861022020772068806910F41F
:10579000407F204602D0FFF7CFFF04E000F0E6F89C
:1057A000204600F0A8F92777280715D5300713D52C
:1057B00021686FF008000861042020772068C06924
:1057C0008007204602D0FFF7B7FF04E000F0CEF8D4
:1057D000204600F090F92777E80616D5F00614D594
:1057E00021686FF010000861082020772068C069E8
:1057F00010F4407F204602D0FFF79EFF04E000F047
:10580000B5F8204600F077F92777E80708D0F007C9
:1058100006D021686FF001000861204600F096FA7A
:10582000280601D4A80408D5300606D521686FF4EF
:10583000025008612046FFF7F3FCE80508D5300662
:1058400006D521686FF4807008612046FFF7E7FCF9
:10585000680608D5700606D521686FF0400008611B
:10586000204600F0ABFAA80608D5B00606D5216898
:105870006FF0200008612046FFF7D3FCE80208D54E
:10588000F00206D521686FF4801008612046FFF70A
:1058900025FDA80208D5B00206D521686FF40010D6
:1058A00008612046FFF712FD680208D5700206D590
:1058B00021686FF4800008612046FFF710FD280280
:1058C0000AD5300208D521686FF40000086120462F
:1058D000BDE8F041FFF7C6BDBDE8F081F0B587B087
:1058E000044614216846FAF736FE1D4920688842AE
:1058F00033D11C48C16C41F00201C164C16C01F09C
:1059000002010591C16C41F00101C164C06C022427
:1059100000F0010005904FF4C04000258DE83100F3
:105920000626114FCDE9034669463846FEF724F9AD
:10593000A0038DE831000420CDE9034069463846D4
:10594000FEF71AF94FF4E0608DE83100CDE9034627
:1059500069464FF09040FEF70FF907B0F0BD000028
:10596000002C01400010024000040048704770B550
:10597000044690F83C0000260D4601280BD001207B
:1059800084F83C000C2A4AD007DC82B1042A20D0DB
:10599000082A06D131E0022070BD102A53D0142A03
:1059A00063D00126002084F83C00304670BD20689A
:1059B00001F042F92068816941F0080181612068A5
:1059C000816921F004018161206881692A6911439C
:1059D00011E0206801F086F92068816941F40061D6
:1059E00081612068816921F4806181612068816919
:1059F0002A6941EA02218161D4E7206801F0C2F9F5
:105A00002068C16941F00801C1612068C16921F0C5
:105A10000401C1612068C1692A69114311E020684D
:105A200001F000FA2068C16941F40061C161206899
:105A3000C16921F48061C1612068C1692A6941EAB4
:105A40000221C161AEE7206801F03CFA2068016DD7
:105A500041F0080101652068016D21F00401016534
:105A60002068016D2A69114311E0206801F066FA8F
:105A70002068016D41F4006101652068016D21F429
:105A8000806101652068016D2A6941EA0221016592
:105A900088E710B5040003D094F83D0010B107E08A
:105AA000012010BD002084F83C00204600F022F8C0
:105AB000022084F83D00211D206801F01DF801201E
:105AC00084F8480084F83E0084F83F0084F84000E1
:105AD00084F8410084F8420084F8430084F84400CC
