:020000040800F2
:10000000D811002079020008F7600008035B00089F
:10001000E9600008990A00089B6C000800000000D5
:1000200000000000000000000000000069660008F9
:10003000650F00080000000065640008EB6600081A
:10004000930200089302000893020008930200083C
:10005000930200089302000893020008930200082C
:10006000930200089302000893020008F50C0008B0
:10007000930200089302000893020008930200080C
:100080009302000893020008350700089302000855
:1000900093020008911200089302000893020008DE
:1000A0006567000871670008930200089302000862
:1000B0007D67000889670008930200089302000822
:1000C0009302000893020008930200086964000884
:1000D00093020008930200089302000893020008AC
:1000E000930200089302000893020008930200089C
:1000F000930200089302000893020008930200088C
:10010000930200089302000893020008930200087B
:10011000930200089302000893020008930200086B
:10012000010D00080D0D000893020008930200085D
:10013000930200089302000893020008930200084B
:10014000930200089302000893020008930200083B
:10015000930200089302000893020008930200082B
:10016000930200089302000893020008930200081B
:10017000930200089302000893020008930200080B
:1001800093020008930200089302000893020008FB
:100190009302000800000000930200089302000888
:1001A00093020008930200089302000893020008DB
:1001B00093020008930200089302000893020008CB
:1001C00093020008930200089302000893020008BB
:1001D000930200089302000800F002F800F03CF8D7
:1001E0000AA090E8000C82448344AAF10107DA4592
:1001F00001D100F031F8AFF2090EBAE80F0013F0A8
:10020000010F18BFFB1A43F001031847188B0000B9
:10021000388B0000103A24BF78C878C1FAD852074A
:1002200024BF30C830C144BF04680C607047000070
:100230000023002400250026103A28BF78C1FBD8EF
:10024000520728BF30C148BF0B6070471FB508F088
:1002500004F81FBD10B510BD00F0B3F91146FFF74B
:10026000F5FF06F079FD00F0D1F903B4FFF7F2FFD6
:1002700003BC00F0E1F90000094880470948004745
:10028000FEE7FEE7FEE7FEE7FEE7FEE7FEE7FEE746
:10029000FEE7FEE704480549054A064B70470000A3
:1002A00055670008D9010008D80B0020D81100209C
:1002B000D80D0020D80D00209FED1A1AF5EE000A87
:1002C00040EE010ABDEEE00AF5EEC00A10EE100A9B
:1002D000F1EE10FA38BF401E00EE100A1349F7EE97
:1002E000001AB8EEC00A30EEC00ADFED0F0A20EEA9
:1002F000200AFCEEC00A10EE900AC0F3080000EEDF
:10030000900A01EB8000F8EE600A90ED011A70EEA1
:10031000600A90ED000A71EEE01A21EE800A00EE0C
:10032000810A704783F9223E0000004420850008BE
:10033000B5EEC00AF1EE10FA07D2DFED1E0AB4EEF8
:10034000E00AF1EE10FAA8BF7047DFED1B0AB5EE28
:10035000C00A60EE200ABDEEE01A11EE100AF1EEBE
:1003600010FA38BF401E00EE100A1549F7EE001AC9
:10037000B8EEC00A30EEC00ADFED100A60EE200AC7
:10038000BCEEE00A10EE100AC0F3080000EE100AFE
:1003900001EB8000B8EE400A90ED011A70EEC00A41
:1003A00090ED000A71EEE01A21EE800A00EE810A5B
:1003B00070470000CD024CB483F9223E0000004497
:1003C0002085000853EA020C00F069802DE9F04B0B
:1003D0004FF00006002B1FBFB3FA83F503FA05F4B4
:1003E00024FA05F65E4012BF1643B2FA82F502FA0D
:1003F00005F4C5F120051EBF22FA05FC44EA0C04F1
:10040000203556EA044C4FEA144418BF641C4FF0E0
:1004100000084FF00009904271EB030C39D300291A
:1004200019BFB1FA81F701FA07F6B0FA80F700FABE
:1004300007F6C7F120071EBF20FA07FC46EA0C06A4
:100440002037B6FBF4FCA7EB0507103F07F01F0BA6
:10045000CBF120060CFA0BFB2CFA06F644BFB34690
:100460000026202FA4BF5E464FF0000B5BEA060C6F
:1004700008BF4FF0010B19EB0B09ABFB027C48EBFB
:100480000608C01B06FB02CC0BFB03CC71EB0C0176
:10049000C1E70B46024641464846BDE8F08B13B51E
:1004A0004FF000004FF00001AFF30080BDE81C40AA
:1004B000704710B5203AC0F00B80B1E81850203AD0
:1004C000A0E81850B1E81850A0E81850BFF4F5AFF4
:1004D0005FEA027C24BFB1E81850A0E8185044BF7E
:1004E00018C918C0BDE810405FEA827C24BF51F8EB
:1004F000043B40F8043B08BF7047D20728BF31F8DF
:10050000023B48BF11F8012B28BF20F8023B48BF2F
:1005100000F8012B70474FF0000200B513469446D7
:100520009646203922BFA0E80C50A0E80C50B1F14B
:100530002001BFF4F7AF090728BFA0E80C5048BF5F
:100540000CC05DF804EB890028BF40F8042B08BFFD
:10055000704748BF20F8022B11F0804F18BF00F8F9
:10056000012B704770477047704710B500F00CF8CA
:10057000006810BD10B5044600F006F8046010BD18
:1005800000487047740B002000487047740B00202F
:100590001FB584B000200A9C06AB04AA02A90094EF
:1005A000AFF3008018B1DDE9020108B010BD0348C7
:1005B000204000F039F800200146F6E70000207CDA
:1005C00070477546FFF7DCFFAE46050069465346A7
:1005D00020F00700854618B020B5FFF75BFEBDE8A8
:1005E00020404FF000064FF000074FF000084FF09A
:1005F000000B21F00701AC46ACE8C009ACE8C0092B
:10060000ACE8C009ACE8C0098D46704710B5044697
:10061000AFF300802046BDE81040FFF726BE00285B
:1006200001D000F009B8704710B500F025F8BDE81A
:100630001040FFF7F4BF000001491820ABBEFEE7F1
:100640002600020070B505460C460A2000E06D1C2D
:1006500000F068F835B128780028F8D102E0641C71
:1006600000F060F814B120780028F8D1BDE870409F
:100670000A2000F057B8000010B5022803D041014D
:1006800003D50DA112E0002010BD010101D50FA17D
:100690000CE0C10001D511A108E0810001D512A133
:1006A00004E0400001D513A100E0002115A0FFF7F0
:1006B000C9FF012010BD0000496E76616C6964209D
:1006C0004F7065726174696F6E00000044697669ED
:1006D0006465204279205A65726F00004F7665721A
:1006E000666C6F7700000000556E646572666C6F13
:1006F00077000000496E65786163742052657375F8
:100700006C7400005349474650453A204172697461
:10071000686D6574696320657863657074696F6E70
:100720003A20000008B569468DF800000320ABBEF2
:1007300008BD0000014802F0C1B90000FC00002023
:1007400010B5846AE16D11F0500F06D0E16DC90655
:1007500025D5204602F0B0F910BDE06D40F40070E0
:10076000E06520680168090716D505F025FA78B11B
:100770002068C068800400280ADBE06D20F48070E7
:10078000E065E06DC00403D4E06D40F00100E06579
:10079000204602F08FF910BDC0688007EBE7616D5D
:1007A000496BBDE81040084710B5806AC16D41F043
:1007B0004001C165016E41F00401016602F07CF95F
:1007C00010BD10B5806A02F076F910BD70B5044610
:1007D000006881688268C1F3400112F0010F28D0DF
:1007E00039BB816801F00D01012914D18168124AD9
:1007F0001140891C816021680320086003F01EFB02
:10080000054612E003F01AFB401B02280DD92068B0
:100810008068C00709D0E06D40F01000E065206EF0
:1008200040F001002066012070BD20688068C0078C
:10083000E8D1002070BD0000C0FFFF7FF8B504467E
:10084000002000902068816811F0010F4AD1816872
:10085000254A114237D18168D5432940491C81601E
:100860002068B0F1A04F02D02049884201D1204831
:1008700000E02048806800F0E07000020DD51E48BE
:100880001E490068B0FBF1F0401C00EB4000800006
:1008900000E0401E00900028FBD103F0CFFA06468E
:1008A0001BE0816811F0010F03D181682940491CC8
:1008B000816003F0C3FA801B02280ED9206800680B
:1008C000C043C00709D0E06D40F01000E065206E25
:1008D00040F0010020660120F8BD20680168C9438E
:1008E000C907DED10020F8BD3F00008000010050A4
:1008F000000300500007005010000020400D0300CE
:100900009FED090A80ED000A80ED010A80ED020AE0
:1009100080ED030A80ED050A80ED060AB7EE000AB5
:1009200080ED070A704700000000000070B517480E
:10093000FFF7E6FF1548DFED160A144D90ED070AA4
:100940001448002420EE200AC03DA5F1600680ED89
:10095000000A00BF05EB441106EB0410082205F065
:1009600085FE641C062CF5DB0B480068416841F0ED
:10097000200141607F21084801F0D6F9064801F0C6
:1009800005FDBDE87040642002F054BD6C090020F4
:100990006740533AC4000020FC0000202DE9F047D6
:1009A000174EDFF8608000248146371FA8F1180534
:1009B00056F82410484601F0D1FC00EE100AD7ED9D
:1009C000000A08EB0410B8EE400A20EE200A05F0F9
:1009D0006DFE05EB8400641C80ED000A042CE7DB4F
:1009E000094895ED000A80ED000A95ED020A80EDB8
:1009F000010A95ED010A80ED020ABDE8F0870000CA
:100A0000C80000204C0800206C0900202DE9F041AE
:100A10001C4E1D4F042406F1240806F10C0500BFEE
:100A200036F81400D7ED000A00EE100A08EB0410A7
:100A3000B8EE400A20EE200A05F038FE05EB8400EF
:100A4000641C80ED000A062CEADB95ED030AF2EE49
:100A5000060A0E4820EE200ADFED0D0A9FED0D1A62
:100A600080ED030A95ED050A70EE600AB0EE000A0B
:100A700000EE810A80ED050A95ED060A80ED060A72
:100A8000BDE8F08128080020C40000206C09002087
:100A90005C8F423F0000C843FEE700001EB59FED9B
:100AA0006E1A6E4820EE812A90ED013AB0EE081AD7
:100AB00020EE011A62EE032ADFED691AF5EEC00A94
:100AC00072EE013A22EEA14AF6EE002A72EE414A97
:100AD00023EE223A63EE833A24EE833A63EEA13AA0
:100AE00023EE213AF1EE10FA01DD012000E00020B2
:100AF000B4EEC21AF1EE10FA01DD012100E000218E
:100B0000B8EE081A00EB410120EE011AB4EEC21A49
:100B1000F1EE10FA01DD012000E0002001EB800081
:100B20005049085C9FED4C1A4C49B6EE002A20EE65
:100B3000811AF0EE080AD1ED014A20EE200A24EED7
:100B4000825A71EE400A60EE850A9FED452A31EE29
:100B5000000A21EE241A60EEC20A072820EE050AD8
:100B600020EE420A21EE422A21D2DFE800F02004E2
:100B7000090E11161B00B0EE601AB0EE440A1AE01E
:100B8000B0EE431AB0EE630A15E0B0EE441A12E07C
:100B9000B0EE421AB0EE430A0DE0B0EE401AB0EEED
:100BA000600A08E0B0EE631AB0EE420A03E09FED7F
:100BB0002E0AB0EE401A2D4A71EE000A10EE901A7D
:100BC000914205DD81EEA02A21EE021A20EE020AF2
:100BD000244900EB400071EEC10AF5EE001A08311D
:100BE000084470EEC00A6B46214C60EEA11ACDEDB0
:100BF000001AF0EE610A41EE220ACDED010AB0EED4
:100C0000601A00EE221A8DED021A0178427803EB89
:100C1000810103EB820291ED000A8078BCEEC00AEC
:100C200003EB8000002310EE101A92ED000ABCEED8
:100C3000C00A10EE102A90ED000A2360BCEEC00A34
:100C400010EE100A241D2360241D2360094B198710
:100C50005A8798871EBD0000D7B3DD3F14000020DF
:100C600000D00446028500080000000000D00446C1
:100C7000342C0140B004002010B50C4C9FED0A0A42
:100C800084ED010AB0EE080A06F018F8D4ED010A66
:100C900020EE200A84ED020AB7EE080A20EE800A50
:100CA00084ED030A10BD0000ABAA2A3D1400002009
:100CB00010B5084C01221146204603F0BAF8642012
:100CC00002F0B8FB20460022BDE81040012103F0ED
:100CD000B0B800000004004880ED000A30EEC10A00
:100CE000DFED030A20EE200A81ED000A70470000C4
:100CF0003ACD133F014802F099BA00006801002084
:100D0000014802F093BA000090020020014802F06E
:100D10008DBA0000F00200200D4902688A4201D21B
:100D20000C4901E00B492031D2B21423083AB2FB3E
:100D3000F3F2436C02F01F0223F0030319448164B1
:100D400004498031C1640121914001657047000070
:100D500008040240000802400179074A02EB8102C0
:100D60004265054A4432491E826501F01F02012195
:100D70009140C16570470000FC08024030B5D0E9E1
:100D800013456560446D14B1D0E91645656090F86F
:100D9000444004F01F050124AC40056C6C600468FD
:100DA00063608368102B036803D099600068C26099
:100DB00030BD9A600068C16030BD000010B50122EE
:100DC0000221044803F035F8BDE810400A2002F083
:100DD00031BB00000004004810B5FFF7EFFFBDE88D
:100DE0001040FFF765BF00000C4908B50A480A78B3
:100DF000002A0FD101220A70094A52680092026A41
:100E0000009B9A4202D9C269521CC261009A0262D6
:100E10000020087008BD0000D8090020D80000207C
:100E2000001000E00B480A4A4168D2ED050A42680A
:100E3000521AF8EE601A01EE102AB8EE411A61EE6D
:100E4000801AB4EEE11AF1EE10FAF0D37047000008
:100E5000D8090020001000E010B5084C00F038F868
:100E6000074920684843616801EB4102C2EBC111A8
:100E700000EBC10021890844002110BDD8090020E1
:100E800040420F000F4A10B50D49136843F08073BC
:100E900013600D4B00225A601C6844F001041C6072
:100EA0000A4B58434FF47A730861B0FBF3F0486182
:100EB000064B0869B0FBF3F0C1E906020A6210BDF7
:100EC000D8090020FCED00E0001000E040420F00D7
:100ED0002DE9F8432248214C40680090FFF784FF39
:100EE000E269002500984FF0FF332946E2FB030139
:100EF000C4E90A01D4F8108007460E4642462B4644
:100F0000FFF760FA02460B463146C446ACFB028648
:100F100005FB02660CFB0363B7EB080061EB030102
:100F2000226007460E4600236269FFF74BFA02462D
:100F30006060606900234243B81A66EB0501A2694C
:100F4000FFF740FA2081D4E9001001EB4102C2EB27
:100F5000C11100EBC100E060BDE8F883D8090020B2
:100F6000001000E07047000038B504460189406871
:100F7000002202F05EFF0020009004F148020323EB
:100F800015460949206803F0B7FE2946204600F0BF
:100F90000FF821890122606802F04BFF0349C889DC
:100FA000401CC88138BD0000F00000209C040020D7
:100FB0002DE9F0410F462DED028B0446FFF74CFF63
:100FC00005460E463878B978800240EA111000EEE6
:100FD000100ADFED3D1ADFED3D0AB8EEC00A3C49CC
:100FE00020EE210A60EE200AC4ED050A94ED061AEF
:100FF00030EEC10A10EE100A84ED070A884202DDC5
:1010000030EE610A06E010EE100A3249884203D938
:1010100030EE210A84ED070AB5EEC00A2E48F1EE43
:1010200010FA2E490AD211EE102A824206D910EE89
:10103000902A8A4202DD208A401E0EE0B5EEC00AE8
:10104000F1EE10FA0ADD11EE102A8A4206DD10EEEA
:10105000901A814202D9208A401C2082206B05F020
:1010600025FB84ED0B0AE068B0EE408A281A66F191
:10107000000107F02AF800EE100A9FED191AE5604A
:10108000C0EE010A9FED170A88EE001A9FED160ABE
:1010900021EE001A81EE200A84ED0F0AD4ED110A28
:1010A00020EE200A84ED100A94ED050A84ED060A6C
:1010B000606A05F0FBFA84ED080A208A6082BDECC4
:1010C000028BBDE8F08100000000B44300008036D0
:1010D00000003443000034C30000B4C20000B44236
:1010E0000024744900003443DA0F494090ED080AA7
:1010F000B0F910009FED041A00EE900AF8EEE00A35
:1011000000EE810A704700000000B44390ED0F0A22
:10111000704700002DE9F04115460446DDE907025D
:101120000E46DDF818800999C4E90002218184ED9A
:10113000110A002020829FED130A608284ED080AC4
:1011400084ED0B0AA06384ED0F0A84ED100A84ED90
:10115000050A84ED060A1F4684ED070A02F06EFEBA
:10116000E060C4E90C65C4E90978304629464022AC
:1011700005F07CFAD4E90901BDE8F041012205F04F
:1011800075BA00000000000072B6FEE770B5324C80
:101190003249A07A4000A072207A40002072607A22
:1011A00040006072E07A4000E072207B40002073D3
:1011B000607B4000607391ED030AD1ED040A01F1F8
:1011C000140020EE000A00EEA00AB5EEC00AF1EE0F
:1011D00010FA04DBF1EEC00AC0ED000A03E09FED57
:1011E000200A80ED000A48691E490025884207DD73
:1011F000A07A40F00100A072FF2800D1E57070BD18
:1012000019491A4AC868904207DD207A40F0010067
:101210002072FF28F3D1657070BD154A904207DA3D
:10122000607A40F001006072FF28F5D1A57070BDB2
:1012300048691049884207DD207B40F00100207397
:10124000FF28F4D1657170BD04210B4802F0E4FD64
:101250000028F8D1A57170BD24000020B004002042
:1012600000000000000070416C0900200000D8411F
:101270000000A841000096430004004801210170CD
:1012800041708170C17001714171817170470000BE
:10129000014802F04CBA0000C8010020F0B5D1E9C5
:1012A00001650C692C430D68C6B145F080452C439F
:1012B000D1E90665354391F820704E69406D46EAE4
:1012C000076635438E8903EBC30300EBC30045EA91
:1012D0000645E0E802450023084C0AE044EA85445C
:1012E000E6E7D618D55CD6F801601B1D45EA062551
:1012F00020C0CD68655D9D42F3D8F0BDDA8400085A
:10130000704730B50024039D0160B1F5006F03D331
:101310004FF08041416000E04460C0E90242C0E912
:101320000443C0E90654046230BD000010B588B023
:1013300000240220CDE90240012004904FF4866091
:101340000590019440F2FA70069001A9144802F049
:1013500018F908B1FFF7D4FF022200231146104804
:10136000009402F03CF908B1FFF7CAFF0C4802F004
:1013700012FC08B1FFF7C4FF00220121084802F067
:101380006BF808B1FFF7BCFF00224FF400210448BE
:1013900002F062F8002801D0FFF7B2FF08B010BDDC
:1013A000C801002070B505468AB01E464FF40010F3
:1013B0000C4643100090314601A8FFF7A2FF2422FB
:1013C00001A90548FFF775F8224601A9284602F051
:1013D000B3F80AB070BD00008C0900207CB51B4C2E
:1013E0000D4640F2335694F8682001281BD002289D
:1013F00018D1042A02D0042084F86800E97828680B
:1014000061F31F6000EE100AB8EEC00A84ED090A0D
:101410006946032000F020F83346052269460C484F
:10142000FFF7C0FF7CBD032A05D00A4804F0A6FFE1
:10143000032084F86800E978286861F31F6000EEF3
:10144000100AB8EEC00A84ED140AE1E7B0040020E7
:10145000C8010020F006002010B5032817D004288A
:1014600014D1164802784378C47842EA430283785C
:101470009B0043EAC4031A43037942EA0312437907
:10148000807942EA431242EA8010087010BD0C488D
:1014900010F84C2F0A7042784A7082788A70C278AD
:1014A000CA7010F82C2C0A7110F82B2C4A7110F805
:1014B0002A2C8A7110F8290CC87110BD2400002054
:1014C000B0040020DFED0F0AB2EE0C1A4FF4B47135
:1014D00030EE200A20EE010ABDEEC00A10EE100A1E
:1014E00090FBF1F201FB120000EE100A0648B8EE84
:1014F000C00A80EE201A90ED160ADFED040A11EE04
:10150000200A70470000B443B0040020DB0FC9403C
:101510001FB52B4800F036FB2A48FFF7AFFEAA2084
:10152000FFF7B0FC294810234FF0904226498DE880
:101530000F009FED270A274B274A28492848FFF725
:10154000E9FDFFF7F3FEFFF7F1F9FFF745FC00F0C7
:101550006BFAFFF791FB234803F096FE214803F056
:10156000D3FE00211F4804F0F9F904211D4804F0BE
:10157000F5F908211B4804F0F1F90021194804F09D
:1015800063F90421174804F05FF90821154804F0B5
:101590005BF90021134803F0A5FD0421114803F075
:1015A000A1FD08210F4803F09DFD0A2005F050FC25
:1015B00005F0E8FB04B00C48BDE8104003F0A4BE01
:1015C000B0040020240000202C020020F80000209D
:1015D0000AD7233C640A0020740A0020540A002021
:1015E000080A0020500300209C03002010B5834C03
:1015F0002DED028B94F86800D8B9814890ED000A6F
:10160000DFED800A60EE200AC4ED170AD4ED180A57
:101610009FED7D1A00EE810A10EE101A80ED000A8F
:10162000B1F17E5F05DBF7EE000A30EE600A80ED77
:10163000000A764890ED080AFFF744FF744884EDED
:10164000150A90ED000A9FED731A6C4931EE400ABD
:10165000103184ED000AD0ED010A71EE600AC4ED8C
:10166000010AD0ED021A081F31EE611A84ED021A48
:10167000FFF732FB614994ED151A2031D4ED040ACD
:1016800094ED030AA1F1080004F0C2FE94F868008A
:10169000D8B35A4894ED060A6C3004F0B3FE5748AC
:1016A00094ED070A6C3004F0B0FE54486C3004F03E
:1016B00023FDD4ED0A0A584830EE200A84ED0A0AC8
:1016C00094ED080A04F09EFE94ED090A524804F0D5
:1016D0009CFE514804F010FDD4ED0B0A30EE200AB8
:1016E00084ED0B0AD4ED0B0A4C4A10EE900A4C49DB
:1016F000904203D210EE900A88422DDA10EE900A42
:1017000090422BD3FAEE080A28E0FFE79FED450A46
:1017100084ED0A0A606E06F09BFC41EC180B206E0B
:1017200006F096FC9FED401B53EC112B05F0EEFFED
:1017300053EC182B05F01EFE9FED3D1B53EC112BB7
:1017400005F0F2FC9FED3C1B53EC112B05F0DEFF86
:1017500005F088FBE062C5E7F2EE080AC4ED0B0A6B
:1017600094ED0A0A364910EE100A364A884203D22E
:1017700010EE100A904206DA10EE100A884204D3E6
:10178000BAEE040A01E0B2EE040A1C4884ED0A0A2B
:1017900094F8682000F134013030DAB194ED151A74
:1017A00004F0C4F9D4ED0D0A94ED0C0AFFF776F9B4
:1017B000124C143C2089A0F51C51103906D1002090
:1017C00020814FF40071204802F02BFB207A400763
:1017D00003D009E094ED171AE2E7FFF717F900F0DC
:1017E00099FA6089401C60812089401C2081206812
:1017F000401C2060BDEC028B10BD0000B004002036
:1018000014000020DB0FC9403480373A080A00205A
:101810006C090020E17AD43FB8050020000040C1E7
:1018200000004041000000009A9999999999D93F88
:10183000333333333333E33F000000A09999214021
:10184000000020C1000020410004004870B572482B
:10185000FFF78AFB714C94F86800E8B34FF08046BC
:101860007542022868D0032865D16B48FFF73EFC1B
:1018700000F0C8F9B1EE400A84ED130A04F51070C7
:1018800004F0C0FD94ED140A04F5107004F0BDFDE1
:1018900004F5107004F030FC04F510700078002896
:1018A0007ED0012847D104F5107004F087FDD4EDF7
:1018B000090A30EE200A10EE100AA8420BD204F5F5
:1018C000107004F07BFDD4ED090A30EE200A10EE12
:1018D000100AB04265DA00E013E0514804F06EFDF2
:1018E000D4ED090A30EE200A10EE100AA8427DD28B
:1018F0004B4800BF04F062FDD4ED090A30EE200A27
:101900005DE0474894ED180A9C3004F07BFD4448A4
:1019100094ED190A9C3004F078FD41489C3004F0A5
:10192000EBFB3F489C3004F049FDD4ED180A30EE43
:10193000200A84ED180A70BD3748FFF7E7FB3848E6
:10194000B1EE400A84ED180A9C3804F05BFD94ED7A
:10195000190ADFED340A324820EE200A9C3804F0E0
:1019600054FD2F489C3804F0C7FB2D489C3804F0E8
:1019700025FDD4ED090A30EE200A10EE100AA84227
:101980000BD227489C3804F019FDD4ED090A30EE3B
:10199000200A10EE100AB0423ADA21489C3801E0E1
:1019A00010E035E004F00AFDD4ED090A30EE200A1B
:1019B00010EE100AA84228D219489C389AE784ED04
:1019C000090A70BD164804F0F9FCB1EE400A10EEA9
:1019D000100AA84208D2124804F0F0FCB1EE400A06
:1019E00010EE100AB04213DA0D4800E00DE004F0EA
:1019F000E5FCB1EE400A10EE100AA84205D20848F4
:101A000004F0DCFCB1EE400AD9E7B8EE000AD6E7F4
:101A1000B0EE000AD3E70000080A0020B00400205E
:101A2000F0060020DB0FC94010B52DED068B9FEDB1
:101A3000458AB6EE003AF0EE484AB0EE484AF0EE7B
:101A4000483A9FED419AF0EE492ADFED408AB0EE28
:101A5000682AF0EE681AB0EE681ADFED3D9A9FED45
:101A60003DAA0121F0EE690AB0EE4A0A3A4804F0B4
:101A7000A8FC3948F0EE484AB0EE484AF0EE483A41
:101A8000B6EE003AF0EE492AB0EE682AF0EE681A97
:101A9000B0EE681AF0EE690AB0EE4A0A01219C30F5
:101AA00004F08FFC9FED2D9AF0EE484AB0EE484AC4
:101AB000F0EE483AB7EE083AF0EE492AB0EE682A5E
:101AC000F0EE681A9FED261ADFED260A9FED260A32
:101AD0000121264804F075FC2448F0EE484AB0EE97
:101AE000484AF0EE483A9FED223AF0EE492AB0EE2D
:101AF000682AF0EE681AB0EE681ADFED1E0AB0EE42
:101B0000080A00219C3004F05CFCF0EE484AB0EE7C
:101B1000484AF0EE483AF0EE492AB0EE682AF0EE74
:101B2000681AB0EE681ABDEC068BB7EE083A0121D0
:101B3000BDE81040DFED100A9FED100A104804F0D8
:101B400040BC0000CDCCCC3D9A99B94000000000CB
:101B500052B89E3F6666A6411C0500200000FA436D
:101B6000B00FA134A48C3837BC74133C5406002049
:101B70006666E63F17B7D13952491D3954E3A53D92
:101B80008C0700209FED1B0ADFED1B0A80ED000A89
:101B900080ED010A80ED020A80ED030A80ED040A5F
:101BA00080ED060A80ED070A80ED080A80ED090A3B
:101BB00080ED0A0A80ED0B0A80ED0C0A80ED0D0A1B
:101BC000C0ED190A80ED180ADFED0C0A80ED130A4A
:101BD000C0ED140ADFED0A0A80ED150AC0ED160A01
:101BE00080ED170A0021018741878187032180F852
:101BF0006810704700000000CDCC9C40DB0FC9C0CE
:101C00002ED802BF0B48F2EE0C1AB0EE401AD0EDFF
:101C1000160A80EEA10ADFED080A31EE201ABDEEA9
:101C2000C11AB8EEC11AC1EE201ADFED040A11EE96
:101C3000A00A7047B00400200000B443DB0FC94085
:101C400070B504462DED028BB0EE408A02F0F6F836
:101C500000EE100AD4ED020AB8EE400A30EE600A37
:101C6000BCEEC00A10EE105A02F0E8F800EE100ABE
:101C7000B8EE400A84ED020AD4ED010AF5EEC00A7E
:101C8000F1EE10FA32DD10EE900AB0F17E5F2DDC3D
:101C9000B7EE000A94ED051A30EE600A20EE011A44
:101CA00000EE881A84ED041AB0EE410A84ED051A9C
:101CB0007DB101EE105ADFED0F1AB8EE411A21EE98
:101CC000211ADFED0D1A21EE211AC0EE811AC4EDA2
:101CD000001A00EE905A9FED091AF8EE600AC1EE64
:101CE000201AC4ED031ABDEC028B70BDB0EE480A99
:101CF000F9E70000DB0FC9406F12833A00007A4415
:101D000080ED010A9FED020A80ED020A7047000093
:101D10000000000003220249024801F0B5B90000AA
:101D200030080020FC000020F8B50026044600968C
:101D300090F858000D4601280BD0012084F8580077
:101D40002046FEF743FD0100E06D04D040F0100096
:101D50002AE00220F8BD20F4885040F00200E0653F
:101D600020688268134B1A4005F080431A4342F002
:101D700000428260104A20680EE0009B5B1C0093CA
:101D8000934209D3E06D20F0020040F01000E065BE
:101D900084F858600120F8BD8368DB0FEDD1E06D59
:101DA00020F0020040F00100E06584F85860084629
:101DB000F8BD0000C0FFFF3F02DE040070470000D6
:101DC0002DE9F84F4FF000090446CDF800900D467C
:101DD00094F85820DFF8EC8361694F464846012AA1
:101DE0000AD00126F84A84F8586041B1296A0129CD
:101DF00005D0A36EEBB129E00220BDE8F88F68683A
:101E0000092838D1A96A4FF4785041B12B6801F004
:101E10007C0100EA53400843E96A084302E029686C
:101E200000EA51402368D96C11400143D9646066CF
:101E300021E0C4E91971A96A286A31B101F07C0175
:101E4000401E0843E96A084300E0401E29682B79D8
:101E5000C1F3846103F01F0399400143A06E401E4B
:101E6000A066636E43EA0103636604D12168C86C0F
:101E700010401843C864206803F092FE58B995F8E2
:101E8000250098B12068C16895F8262021F44011FA
:101E900041EA4251C160206803F08AFE8246206810
:101EA00003F07EFE5AEA00000DD0FCE095F8260013
:101EB00095F82410400540EA01512068C26822F4D8
:101EC00040121143E6E7A86A30B1E86A20B195F8FC
:101ED000250001285ED003E095F82500012804D0F4
:101EE0002068C16821F0007103E02068C16841F0FA
:101EF0000071C16095F83000012852D02068016956
:101F000021F002010161AA6829682068B2F1004F3E
:101F100038D003F068FE2068416921F0004141613A
:101F200020686969C268C2F3C102520091402A69FF
:101F3000042A45D000EB82002B68026EDFF88CC2C9
:101F400003F0F84302EA0C020B431A4342F000414B
:101F5000016620682A69A96900EB8200026E22F0FE
:101F600080720A430266297F22682869012924D0E9
:101F70005FF0000102EB8000026E22F000720A4363
:101F8000026690E0002203F02EFE2068416941F0D5
:101F90000041C4E7E06D40F02000E0654FF001092A
:101FA000A8E7D5E90D01084321680A6922F4FF7208
:101FB00042F0020210430861A5E74FF00071D9E733
:101FC000002103F0E3FD400320684FF0000172D0D0
:101FD00003F0DCFD90FAA0F0B0FA80F1286842032B
:101FE0006ED090FAA0F0B0FA80F0814204D10022C5
:101FF0001146206803F00EFE0121206803F0C6FDA3
:10200000400320684FF001015DD003F0BFFD90FA5E
:10201000A0F0B0FA80F12868420359D090FAA0F0FD
:10202000B0FA80F0814204D100220121206803F03F
:10203000F1FD0221206803F0A9FD400320684FF064
:10204000020148D003F0A2FD90FAA0F0B0FA80F1AE
:102050002868420344D090FAA0F0B0FA80F08142A0
:1020600004D100220221206803F0D4FD032120685E
:1020700003F08CFD400320684FF0030133D003F0E0
:1020800085FD90FAA0F0B0FA80F1286842032FD0C5
:1020900090FAA0F0B0FA80F0814204D1002203212E
:1020A000206803F0B7FD2068816811F0010F22D08D
:1020B000B5E000E004E003F069FDC0F384618DE762
:1020C000C0F3846091E703F061FDC0F38461A2E78F
:1020D000C0F38460A6E703F059FDC0F38461B7E75D
:1020E000C0F38460BBE703F051FDC0F38461CCE72B
:1020F000C0F38460D0E72A7B296850F8B03FC1F371
:10210000120C23EA0C0302F0180C314A22FA0CF2EA
:102110000A4013430360E96841457DD128684103C3
:102120001BD090FAA0F1B1FA81F1491C01F01F0116
:1021300009294FEA403131D8002911D090FAA0F195
:10214000B1FA81F101F1010101F01F0106FA01F676
:1021500009D100BFC0F3846109E0C0F38461E4E702
:10216000C0F38461EEE790FAA0F1B1FA81F101F1D8
:10217000010101F01F0146EA816102D1C0F38460D0
:1021800003E090FAA0F0B0FA80F000F1010000F056
:102190001F0000EB400041EA00513AE000290ED058
:1021A00090FAA0F1B1FA81F101F1010101F01F01F2
:1021B00006FA01F60ED100BFC0F384610EE0C0F351
:1021C0008461F1E700007F400040100400F0FF034D
:1021D000FFFF070090FAA0F1B1FA81F101F10101CE
:1021E00001F01F0146EA816102D1C0F3846003E07F
:1021F00090FAA0F0B0FA80F000F1010000F01F00AA
:102200003A4A00EB400002EB005041EA000141F085
:102210000071AA68206800E001E003F0E4FC3448A3
:102220002B6803425ED022684FF0A04C3148324EFA
:10223000324D624501D0AA4201D1014600E031464B
:102240008968DFF8BC8001F0E071434503D0DFF816
:10225000B480434520D15FEA01281DD4624505D0F2
:10226000294B9A423ED1AA4200D0304641F40001A7
:10227000826822F0E0720A438260244824490068A0
:10228000B0FBF1F0801C00EB4000800000E0401E3D
:1022900000900028FBD125E0DFF8788043450FD17E
:1022A0005FEAC1180CD4AA4202D11B4B9A4219D042
:1022B000624502D0AA4200D0304641F080710CE065
:1022C000DFF8588043450DD14B020BD4AA4209D008
:1022D000624500D0304641F48001826822F0E0720D
:1022E0000A43826084F85870484686E5000020FE64
:1022F000000008800003005000070050000100505B
:10230000000021C31000C090000600501000002003
:10231000400D0300000052C700050050000084CBB0
:102320000C4910B5884213D10B480168C9070FD07A
:10233000094910390968C906016821F001010160E5
:1023400006D50448FEF72AFBBDE81040FFF74EB95A
:1023500010BD0000FC000020102C01400068A1F519
:1023600080710F390ED0B1F5837F08D0B1F5037FAE
:1023700002D0D0F880007047D0F88C007047D0F8B9
:1023800088007047D0F88400704770472DE9F0410D
:10239000044600684FF0A0454C4FA84201D0B84217
:1023A00001D14B4900E04B49896801F01F0603F059
:1023B000F7FB08BB2168C868C96C00F0004011F445
:1023C000C07F00D190B194F85800012814D00120AA
:1023D00084F858002046FEF731FA01004FF0000261
:1023E0000CD084F858200846BDE8F081E06D40F03C
:1023F0002000E0650120F7E70220F5E7E06DC00569
:1024000004D5206E20F00800206600E02266E06D12
:1024100042F20103984340F48050E06520682E4B5F
:10242000DFF8B8C0B84201D1AE4604E0984201D10D
:10243000E64600E08646864500D02EB9D4F85CE03A
:102440002EF4801EC4F85CE04FF0600EC0F800E08F
:1024500084F858202068C268920203D5426842F48A
:1024600080624260A06908282068426807D022F094
:10247000400242602068426842F0200206E022F0FA
:10248000200242602068426842F0400242602068B8
:10249000B84204D0984201D1654600E00546854225
:1024A00009D046B1062E06D0072E04D0E06D40F4C8
:1024B0008010E06597E7C26812F0007F93D18268D0
:1024C000074B1A4042F0080282608CE7000100507E
:1024D00000030050000700500005005000040050A9
:1024E000C0FFFF7F704770472DE9F04F044690F81A
:1024F00058009BB00F464FF0000B012812D001206E
:1025000084F8580000261796189620684FF0A048C7
:10251000DFF81C91DFF81CA1474D404506D1284645
:10252000009508E002201BB0BDE8F08F48450AD1B5
:102530005046CDF800A003F03BFB0090206803F06C
:1025400037FB40B109E0E06D40F02000E06584F821
:1025500058600120E7E7009850B1E06D40F020009E
:10256000E0654FF0010B00BF84F858605846DAE789
:1025700020684146884201D0A84201D12F4800E09E
:102580002F48D7F800C02F4B40F61F72BCF1000F48
:102590002DD0D0F808C094F838802CF4604C4CEA68
:1025A000483CD7F804804CEA080CC0F808C0D4F8BE
:1025B00000C08C4501D0AC4504D18968AB6801F0FE
:1025C000010109E0D9F80810DAF8085001F001011A
:1025D00005F001059B68294303F001031943C3D1AA
:1025E000BB68396819438368934319431DE08768C2
:1025F00027F46047876027688F4201D0AF4204D13B
:102600008968AB6801F0010109E0D9F80810DAF82F
:10261000085001F0010105F001059B68294303F012
:1026200001031943A0D18168914381609CE70000B8
:10263000000400500005005000010050000300504D
:1026400000070050000600502DE9F84F002704460F
:10265000009790F85800DFF81C840D46B946012811
:1026600011D0012684F85860206803F09DFA60B10B
:10267000E06D40F02000E0655FF0010784F85890BD
:102680003846BDE8F88F0220FBE7D5E900210C238E
:10269000206803EA91131844036B01F01F014FF007
:1026A0001F0C0CFA01FCC2F3846223EA0C038A407B
:1026B00013430363206803F077FA8246206803F02F
:1026C0006BFA5AEA00003CD1AA6829682068B2F186
:1026D000004F37D003F078FA2068416921F00041BB
:1026E000416120686969C268C2F3C1025200914029
:1026F0002A69042A31D000EB82002B68026EDFF8D1
:1027000078C303F0F84302EA0C020B431A4342F089
:102710000041016622682869A96902EB8000026E07
:1027200022F080720A430266297F22682869012903
:1027300010D0002102EB8000026E22F000720A43EA
:1027400002667DE0002203F03FFA2068416941F013
:102750000041C5E74FF00071ECE7002103F010FAEB
:10276000400320684FF0000172D003F009FA90FA9C
:10277000A0F0B0FA80F1286842036ED090FAA0F081
:10278000B0FA80F0814204D100221146206803F0A3
:1027900039FA0121206803F0F3F9400320684FF073
:1027A00001015DD003F0ECF990FAA0F0B0FA80F1ED
:1027B0002868420359D090FAA0F0B0FA80F0814224
:1027C00004D100220121206803F01CFA02212068B4
:1027D00003F0D6F9400320684FF0020148D003F01F
:1027E000CFF990FAA0F0B0FA80F12868420344D003
:1027F00090FAA0F0B0FA80F0814204D100220221C8
:10280000206803F0FFF90321206803F0B9F94003C1
:1028100020684FF0030133D003F0B2F990FAA0F032
:10282000B0FA80F1286842032FD090FAA0F0B0FAF5
:1028300080F0814204D100220321206803F0E2F9F4
:102840002068816811F0010F22D0ACE000E004E0C4
:1028500003F096F9C0F384618DE7C0F3846091E7DB
:1028600003F08EF9C0F38461A2E7C0F38460A6E7A9
:1028700003F086F9C0F38461B7E7C0F38460BBE777
:1028800003F07EF9C0F38461CCE7C0F38460D0E745
:102890002A7B296850F8B03FC1F3120C23EA0C03DD
:1028A00002F0180C754A22FA0CF20A401343036036
:1028B000E968414577D1286841031CD090FAA0F11E
:1028C000B1FA81F1491C01F01F0109294FEA403199
:1028D00032D8002912D000BF90FAA0F1B1FA81F1EC
:1028E00001F1010101F01F0106FA01F609D100BF53
:1028F000C0F3846109E0C0F38461E3E7C0F384615D
:10290000EEE790FAA0F1B1FA81F101F1010101F0D5
:102910001F0146EA816102D1C0F3846003E090FAAE
:10292000A0F0B0FA80F000F1010000F01F0000EB11
:10293000400041EA005132E000290ED090FAA0F1A7
:10294000B1FA81F101F1010101F01F0106FA01F66E
:1029500006D100BFC0F3846106E0C0F38461F1E7F3
:1029600090FAA0F1B1FA81F101F1010101F01F012A
:1029700046EA816102D1C0F3846003E090FAA0F0DE
:10298000B0FA80F000F1010000F01F003C4A00EBBB
:10299000400002EB005041EA000141F00071AA68DA
:1029A000206803F011F937482B6803423FF466AE04
:1029B00021684FF0A04C3448344E354D614501D06C
:1029C000A94201D1024600E032469268DFF8C48095
:1029D00002F0E072434503D0DFF8BC80434521D1CB
:1029E0005FEA02281ED4614506D02C4B99427FF441
:1029F00045AEA94200D0304642F40001826822F080
:102A0000E0720A438260264826490068B0FBF1F074
:102A1000401C00EB4000800000E0401E00900028B9
:102A2000FBD12BE6DFF8808043450FD15FEAC21867
:102A30000CD4A94202D11D4B9942F2D0614502D07B
:102A4000A94200D0304642F080710CE0DFF860808F
:102A50004345E6D15302E4D4A942E2D0614500D017
:102A6000304642F48001826822F0E0720A438260BC
:102A700004E6000000007F4000F0FF03FFFF0700B6
:102A8000000020FE000008800003005000070050F6
:102A900000010050000021C31000C090000600504B
:102AA00010000020400D0300000052C70005005038
:102AB000000084CB70477047704700002DE9F84F45
:102AC00004460068066845684FF0A048DFF8909219
:102AD000404501D0484501D1A24800E0A2488068A5
:102AE00000F01F07B0070ED5A8070CD5E06DC00693
:102AF00003D4E06D40F40060E0652046FFF75EF926
:102B0000216802200860DFF864B2DFF864A2700771
:102B100001D5680703D430073FD528073DD5E06DC0
:102B2000C00603D4E06D40F40070E065206803F057
:102B300043F860B32068484501D1424604E0584557
:102B400001D1524600E00246824208D03FB1052F33
:102B500005D0092F03D0484503D1414606E0C1689E
:102B600005E0584501D1514600E00146C968890495
:102B70000DD4016809070AD503F016F858B3E06DC3
:102B800040F01000E065206E40F001002066204615
:102B9000FFF790FF21680C200860B00601D5A80659
:102BA00003D470065FD568065DD5E06DC00603D41A
:102BB000E06D40F40050E0652068C16C11F4C07F06
:102BC0001AD00021009102F0F7FF02462068484524
:102BD00014D1434617E02068416821F00C014160A0
:102BE000E06D20F48070E065E06DC004CFD4E06D4E
:102BF00040F00100E065CAE70121E3E7584501D153
:102C0000534600E00346834208D03FB1062F05D06B
:102C1000072F03D0484503D1414606E0C16805E0CF
:102C2000584501D1514600E00146C968009BA3B157
:102C30008B0102D58AB18A040FD4026852060CD5E2
:102C400089020AD402F0A8FFF0B3E06D40F0100052
:102C5000E065206E40F0010020662046FFF760FB33
:102C600021686020086030060BD5280609D5E06D84
:102C700040F48030E065204600F094F9216880201F
:102C80000860F0050CD5E8050AD5E06D40F4003089
:102C9000E0652046FFF726FC21684FF4807008604D
:102CA000B0050CD5A8050AD5E06D40F48020E0659C
:102CB0002046FFF718FC21684FF400700860F0060A
:102CC00031D5E8062FD500E009E0E06BE8B12068D7
:102CD000EFB3404501D0484512D1224811E02068A9
:102CE000416821F060014160E06D20F48050E065B2
:102CF000E06DC005B1D4E06D40F00100E065ACE7E7
:102D00001948806800F4604050B1E06D40F4806084
:102D1000E065206E40F0020020662046FFF7CCFE02
:102D2000216810200860700517D5680515D5E06D7D
:102D300040F48040E065206E40F008002066216885
:102D40004FF4806008602046BDE8F84F00E001E0E5
:102D5000FFF71BBBC068C007D6E7BDE8F88F0000CF
:102D60000001005000030050000700500005005013
:102D700000040050F8B54FF0000504002E46009501
:102D800002D0E06D10B107E00120F8BD204600F050
:102D90000BF9266684F8586020688168C1F3407199
:102DA00019B18168734A1140816020688168C1F35C
:102DB000007189B98168704A114041F08051816089
:102DC0006E486F490068B0FBF1F04000801C00E0E5
:102DD000401E00900028FBD120688168C1F300717B
:102DE00041B9E16D41F01001E165216E41F0010151
:102DF0002166012502F0D8FEE16DC90600D430B18C
:102E0000E06D40F01000E06501252846F8BDE06D5A
:102E100020F4807040F00200E0652068816811F0C5
:102E2000010F27D14FF0A043564A984201D090425B
:102E300004D19968966801F001010AE05249896855
:102E4000524E01F00101B66806F001063143504EC2
:102E5000B66806F0010631430CD1984201D0904289
:102E600001D14C4800E04C486168826822F47C1231
:102E70000A438260E168E06B627F0843A16841EA2F
:102E80004231084394F8241040EA0140012904D15A
:102E9000218D424A02EB41410843E16A29B101F424
:102EA0007871226B014342EA01002268D1683C4BF1
:102EB00019400143D16020680169626B21F04061D3
:102EC00011430161206802F067FE70BB207F94F817
:102ED00038102268800340EA4100D16844F20203BE
:102EE00099430143D16020690028206801690AD014
:102EF00041F480310161206850F8C01F22696FF3EE
:102F00000D01114307E021F480310161206850F880
:102F1000C01F6FF30D01016094F8400001280CD030
:102F20002068016921F001010161606901282068C0
:102F3000016B21F00F0111D013E0D4E91101084316
:102F4000D4E913121143084321680A6940F2FC7363
:102F50009A43104340F001000861E6E7226A521EDE
:102F600011430163E06D20F0020040F00100E065D4
:102F70004BE70000C0FFFF5FC0FFFF7F1000002095
:102F8000400D0300000100500004005000050050F7
:102F90000006005000030050000700500000FEFF34
:102FA0000740F0FF7047000070B59CB00646142142
:102FB00015A8FDF7B0FA54216846FDF7ACFA306861
:102FC000B0F1A04F56D14FF4004000908003119013
:102FD000684601F053F808B1FEF7D6F82649C86CE8
:102FE00040F40050C864C86C00F400501A90C86CDB
:102FF00040F00100C864C86C00F001001A90C86C71
:1030000040F00200C864C86C15A900F002001A90D4
:103010000F200324002581E831004FF0904000F09C
:10302000D7FD15A94FF4006081E83100134800F086
:10303000CFFD144C124820600520C4E90105802012
:10304000C4E90350400060618000C4E906054FF404
:1030500040502062204600F047F908B1FEF794F88E
:103060007465002211461220A66200F06FFF122044
:1030700000F05EFF1CB070BD00100240000400486C
:1030800008000240680100202DE9F047044600686E
:103090004FF0A0483D4F91468A46404501D0B84286
:1030A00001D13B4900E03B49896801F01F0502F06E
:1030B0007BFD002868D194F85800012864D00120D5
:1030C00084F8580034492068884201D1012000E08A
:1030D0000020401E28424FF0000605D0052D03D0E9
:1030E000092D01D0012003E02046FDF7A7FB18B110
:1030F00084F85860BDE8F087E06D40F601618843D0
:1031000040F48070E0652068B84201D1414605E096
:103110002249884201D1224900E00146814200D083
:103120001DB9E06D20F48010E065E06DC00404D5A9
:10313000206E20F00600206600E02666616D1948CA
:10314000C862616D18480863616D1848486321685A
:103150001C20086084F858602068416841F0100124
:1031600041602068C16841F00101C16021684B469F
:1031700052464031606D00F017F921688A680C4BA7
:103180001A40121D8A60B5E70220B3E70001005023
:1031900000030050000700500006005000050050DA
:1031A0000004005041070008C3070008A9070008F1
:1031B000C0FFFF7F70B590F8252000240121234631
:1031C000022A07D00422C26380F8251080F8243038
:1031D000012429E00268156825F00E0515600268D3
:1031E000156825F001051560826C156825F4807559
:1031F000156090F84420056C02F01F0201FA02F2FB
:103200006A60D0E913255560426D32B1156825F426
:1032100080751560D0E91625556080F8251080F876
:103220002430816B01B18847204670BDF0B4016C39
:103230000C6801680D6890F8442002F01F06042213
:1032400002FA06F3234211D06B070FD50B689B06D9
:1032500003D40B6823F004030B6090F8441001F0D2
:103260001F018A40016C4A60016B1DE0022303FAD2
:1032700006F727424FF0000C4FF0010218D0AF07BD
:1032800016D50C68A40605D40C6824F00A040C605A
:1032900080F8252090F8441001F01F018B40016C4C
:1032A0004B6080F824C0C16A00291AD0F0BC0847DE
:1032B0000823B340234214D02B0712D50B6823F008
:1032C0000E030B6090F84410036C01F01F0102FA2A
:1032D00001F15960C26380F8252080F824C0416B59
:1032E000E2E7F0BC7047000070B504000CD02B4A38
:1032F00021681420914209D2294A0A44B2FBF0F015
:103300008000606427480AE0012070BD234A5242D1
:103310000A44B2FBF0F08000606420480838206462
:10332000022084F825000A6847F6F0708243D4E949
:1033300002031843D4E904352B431843A369184307
:10334000E3691843236A1843104308602046FDF7D9
:10335000E3FCA0680025B0F5804F00D16560A16C4A
:1033600020790860D4E9130141606068401E032899
:1033700008D82046FDF7F0FC606D0560D4E9160121
:10338000416002E06565A565E565E563012084F8B7
:10339000250084F82450002070BD0000080402407D
:1033A000F8FFFDBF0000024070B5044690F824000D
:1033B000002501280CD0012084F8240094F8256011
:1033C0000020012E06D084F824000225284670BD76
:1033D000022070BD022684F82560E063206806683C
:1033E00026F0010606602046FDF7C8FC206B002889
:1033F0002068016802D041F00E0106E021F00401CE
:1034000001602068016841F00A010160A06C016858
:10341000C90303D5016841F480710160606D18B182
:10342000016841F4807101602068016841F0010188
:103430000160CBE770B5044600F000FD0546601C56
:1034400002D004484068044400F0F8FC401BA0424D
:10345000FAD370BD0400002030B590F85C30012B29
:1034600007D0022B05D0016E41F002010166012058
:1034700030BD0468A36D4D0701D0DD071DD011F0EC
:10348000380F01D09D0718D511F4E07F01D05D07FA
:1034900013D511F4F05F01D01D070ED511F4604F64
:1034A00001D0DD0609D511F4403F01D09D0604D5B9
:1034B00011F47C0F05D05D0603D4E56D45F00105E0
:1034C000E5654C0701D0DC071DD111F0380F01D0A4
:1034D0009C0718D411F4E07F01D05C0713D411F4D9
:1034E000F05F01D01C070ED411F4604F01D0DC0650
:1034F00009D411F4403F01D09C0604D411F47C0F90
:1035000006D05B0604D50368DC6D44F00204DC657C
:103510000B0604D5036853F8DC4F14431C60CB053D
:1035200004D5036853F8E04F14431C600068426DF3
:103530000A434265002030BD70B5044690F85C0037
:10354000022803D0206E40F0080007E02068D0F881
:10355000C4309B0205D5206E40F400702066012027
:1035600070BDD0F8C400C0F301452B462046FDF7DE
:1035700095FE21680120A840C1F8CC00A06500207C
:1035800070BD10B590F85C20012A07D0022A05D042
:10359000016E41F002010166012010BD0A687AB196
:1035A0000B7B0A690C7A42EA43734A69406C4968AA
:1035B00042EA847200EBC100C0E90032002010BD75
:1035C0000B7A4A690C8A42EA83720B7B006CDB0639
:1035D000496843EA04431A4340F82120EEE730B536
:1035E00090F85C50039C012D05D0016E41F0040160
:1035F0000166012030BD0901006841EA820141EA0B
:10360000430150F8802F214322F03F021143016013
:10361000002030BD70477047F0B590F85C40002541
:10362000022C03D0016E41F0080160E004684029DB
:1036300046D0D4F89860360756D0D4F89860F60192
:1036400004D5D4F88060F60500D50125D4F898405B
:10365000C4F301246619C46C06EBC60504EBC5046B
:10366000256815F080455560256843D025F06045F4
:10367000156025682C4F05F00055956020CC05F0AD
:103680000045156134F8045BADB2D56154F8045CB3
:10369000C5F30345D56054F8045C05F48015556105
:1036A00054F8045C05F40015956154F8045CC5F306
:1036B0000665156254F8045CED0F5562002522E0A2
:1036C000D4F8906036070FD0D4F89060F60104D596
:1036D000D4F88060B60500D50125D4F89040C4F335
:1036E00001246619846CB7E7016E41F480710166AC
:1036F0000120F0BDC5F38A45BAE700BF14F805C044
:1037000003F805C06D1CD2F80CC017F80CC0AC450E
:10371000F4D80068402903D0C0F89C600020F0BDB8
:10372000C0F89460FAE70000DA84000870472DE9D9
:10373000F05F04460068016D426D01F4E05102EA59
:103740000108016D426D01F0070102EA0109016DF6
:10375000426D01F0380102EA010A016D476D01F482
:1037600071010F40016D426D01F46021456D02EA67
:10377000010B016DCE43710607D4E943490604D419
:10378000402101652046FFF7D1FFF0050ED4E84344
:10379000C0050BD42068D0F8D820D0F8E010114034
:1037A0004FF480720265204600F00DFAB8F1000077
:1037B00005D0216808654146204600F006FAB9F1B7
:1037C000000005D0216808654946204600F0B4F99C
:1037D000BAF1000005D0216808655146204600F086
:1037E000D9F9B00509D4E843800506D421684FF41F
:1037F00000700865204600F0E9F930060DD4E84372
:1038000000060AD42068D0F8D420D0F8DC1011408B
:1038100080220265204600F0D7F9B00409D4E843BD
:10382000800406D421684FF400500865204600F05B
:10383000C9F9300409D4E843000406D421684FF4E0
:1038400000400865204600F0BCF970040AD4E84343
:10385000400407D421684FF480400865206E40F092
:1038600080002066BBF1000005D02168086559463C
:103870002046FFF7D0FE27B120680765206E384349
:103880002066206E002802D02046FFF7C3FEBDE868
:10389000F09F00002DE9F041040006D0DFF8F4812C
:1038A00094F85C00002518B107E00120BDE8F08124
:1038B00084F85D50204600F0F9F82068816921F015
:1038C0001001816100F0BAFA0646032705E000BF47
:1038D00000F0B4FA801B0A2811D82068806900071C
:1038E000F6D42068816941F00101816100F0A6FAF7
:1038F00006460BE000F0A2FA801B0A2806D9206ECB
:1039000040F00100206684F85C70CEE72068806992
:10391000C007EFD02068816941F002018161216810
:10392000414502D15C4960680860207C012820681C
:10393000816937D041F040018161607C01282068B5
:10394000816932D021F480418161A07C0128206806
:1039500081692DD041F48051816120688169A2681C
:1039600021F44071114381612068816921F0A40133
:1039700081612068016921F010010161E06801287E
:1039800019D010B302281BD02068816941F0800152
:1039900081612068016941F010010161E06803283C
:1039A0000ED012E021F04001C6E741F48041CBE7A0
:1039B00021F48051D0E72068816941F0040103E0DF
:1039C0002068816941F020018161207EE269400622
:1039D0006FF0FF0101EB0222A0F100701043226A98
:1039E000A38A521E10430A0202EB034318432368C2
:1039F000D861A068B0F5407F10D1D4E90A0301EB8B
:103A00000321401E0843216B131303EB01110843EC
:103A1000A18C02EB014108432168C860206850F87E
:103A2000C01FE26B114301601D4A21681B4891428F
:103A300000D11C481C4A914201D100F5D460206499
:103A400051F8802FA38E22F4F81242EA03420A6052
:103A500000F170016164216851F8802F94F83830CA
:103A600022F0706242EA03620A6000F1B001A164D0
:103A7000D831E164D831216518316165D83100E071
:103A800020C08842FCD3A5652566012084F85C002F
:103A900000200BE7006400400065004000A40040E7
:103AA0000068004050A70040006C004010B59CB07A
:103AB0000446142115A8FCF72EFD54216846FCF796
:103AC0002AFD1B492068884230D1801400904003B1
:103AD0000E90684600F0D2FA08B1FDF755FB154884
:103AE000816D41F000718165816D01F000711A9165
:103AF000C16C41F00101C164C06C15A900F0010066
:103B00001A904FF4C0501590022016900020179084
:103B1000189009201990C00600F05AF800220421DC
:103B2000152000F013FA152000F002FA1CB010BDA9
:103B3000006400400010024010B50446C80723D0BE
:103B40001249206888421FD1114B402103F14002E5
:103B50002046FFF761FD0E4840F2FA7240300168DE
:103B600001F003001140B1F5866F02D10849FDF75D
:103B700035FC002201212046FFF76EFC002803D00F
:103B8000BDE81040FDF7BCBB10BD00000064004064
:103B900034040020704790F85C10012905D0016EB4
:103BA00041F00401016601207047022180F85C1099
:103BB00001688A6922F001028A61002101660846D3
:103BC00070477047704770477047704770470000F4
:103BD0002DE9F04FDFF82092002301260324A9F1FC
:103BE000040B85B00F2709F1040AABF1040EFAE0CB
:103BF00006FA03F52A407CD091F804C00CF0030CBF
:103C0000BCF1010F02D0BCF1020F26D1D0F808C0E0
:103C1000CDF800C04FEA430C04FA0CF8CDF810C000
:103C2000DDF800C02CEA080CCDF800C0D1F80C80FB
:103C3000DDF810C008FA0CF8DDF800C048EA0C08FE
:103C4000C0F80880D0F804C02CEA050C0D79C5F343
:103C500000159D4045EA0C0545600D79ED43AD0723
:103C60000ED0C5684FEA430804FA08FC25EA0C05A3
:103C7000D1F808C00CFA08FC4CEA050CC0F80CC0DE
:103C80000D7905F00305022D16D1DD0800EB850C3A
:103C9000CDF808C0DCF820805D074FEAD56C07FA44
:103CA0000CF528EA05080D6905FA0CF5DDF808C0E1
:103CB00045EA0805CCF8205005684FEA430CCDF8DA
:103CC00008C004FA0CFC25EA0C0591F804C00CF0BD
:103CD0000308DDF808C008FA0CF848EA0508C0F83F
:103CE00000804D6815F4403F7CD0444DD5F860C04D
:103CF00000E077E04CF0010CC5F860C02D6E23F0B9
:103D0000030C05F0010500953D4D65440295AD6835
:103D10004FEA837C4FEA1C7807FA08FC25EA0C0579
:103D2000B0F1904F06D0DFF8DCC0604505D14FF010
:103D3000010C20E04FF0000C1DE0DFF8CCC0604526
:103D400002D14FF0020C16E0DFF8C0C0604502D18E
:103D50004FF0030C0FE0DFF8B8C0604502D14FF020
:103D6000040C08E0DFF8ACC0604502D14FF0050C50
:103D700001E04FF0060C0CFA08FC4CEA050C029D21
:103D8000C5F808C0D9F80050CC46D1F80480954356
:103D90005FEAC82800D51543CCF80050DAF8005087
:103DA000D446D1F8048095435FEA882800D51543AE
:103DB000CCF80050DBF80050DC46D1F80480954385
:103DC0005FEA883800D51543CCF80050DEF8005083
:103DD000F446D1F8048095435FEAC83800D515430E
:103DE000CCF800505B1C0A6832FA03F57FF400AF90
:103DF00005B0BDE8F08F000008040140001002404B
:103E0000000001400004004800080048000C004881
:103E100000100048001400480069084000D001204C
:103E20007047426921EA02030A4043EA0241816184
:103E300070470AB1816170478162704701488068AC
:103E40007047000004000020024881684268114465
:103E5000816070470400002010B50024032000F0AA
:103E600095F80F2000F008F808B1012401E000F0F7
:103E700047F8204610BD000030B505461C4887B005
:103E8000816D41F001018165806D06A900F001009E
:103E9000009001A800F060FB00F07EFB15494FF098
:103EA0008042B0FBF1F11448491E0260416040F2CB
:103EB000E7320021C0E90321816001F07AF90400B2
:103EC00012D10D4801F020FA04000DD11C2000F0A1
:103ED0002FF8102D07D2002229461C2000F036F8BA
:103EE0000648056000E0012407B0204630BD000010
:103EF0000010024040420F00E803002004000020B0
:103F00000A4882B0016E41F001010166016E01F0C4
:103F100001010091816D41F080518165806D00F05B
:103F20008050009002B000F0A1B8000000100240E4
:103F3000002809DB00F01F020121914040098000A8
:103F400000F1E020C0F8001170470000F0B40E4B03
:103F50001B680C46C3F30223C3F10705042D00D9E7
:103F60000425191D072901D2002300E0DB1E0126CC
:103F700006FA05F1491E214099409E40761E1640E2
:103F80003143F0BC02F08ABE0CED00E0064900F0BF
:103F9000070208684FF6FF03184040EA0220034A70
:103FA00010430860704700000CED00E00000FA05C7
:103FB0002B492C4B0A6832214A432B4940B1B0F5BA
:103FC000007F086829D020F4C06040F480602CE0B5
:103FD0000868C0F34120022804D051F8800F20F473
:103FE000807022E0D1F8800020F48070C1F8800059
:103FF000086820F4C06040F400700860B2FBF3F081
:10400000401C00E0401E4A69520501D50028F9D144
:10401000486940050AD503207047C0F341200228B3
:1040200006D051F8800F40F480700860002070477F
:10403000D1F8800040F48070C1F88000086820F456
:10404000C06040F400700860B2FBF3F0401C00E078
:10405000401E4A695205DBD50028F9D1D8E7000097
:104060001000002040420F000070004002488168AC
:1040700041F4804181607047007000402DE9F843B1
:10408000044600680026BB4D00035ED5A86D0027DE
:10409000C00008D4A86D40F08050A865A86D012725
:1040A00000F080500090DFF8D092D9F8001041F471
:1040B0008071C9F80010FFF7C1FE804606E000BF1E
:1040C000FFF7BCFEA0EB080002282BD8D9F80000AF
:1040D000C005F5D5D5F8900010F4407014D0216DCE
:1040E000814211D0D5F89000D5F8901020F440709E
:1040F00041F48031C5F89010D5F8901021F480314A
:10410000C5F89010C5F89000C00711D0FFF796FED3
:10411000804641F2883907E0FFF790FEA0EB0801E6
:10412000494501D903260BE0D5F890008007F3D567
:10413000D5F89000216D20F440700843C5F8900038
:104140001FB1A86D20F08050A8652078C00707D067
:10415000D5F88800616820F003000843C5F888009E
:104160002078800707D5D5F88800A16820F00C00DA
:104170000843C5F888002078400707D5D5F888009F
:10418000E16820F030000843C5F888002078000777
:1041900007D5D5F88800216920F0C0000843C5F88C
:1041A00088002078C00607D5D5F88800616920F41A
:1041B00040700843C5F888002078800607D5D5F8F8
:1041C0008800A16920F440600843C5F88800207881
:1041D000400607D5D5F88800E16920F4405008432F
:1041E000C5F888002078000607D5D5F88800216A30
:1041F00020F440400843C5F888002088C00507D552
:10420000D5F88800616A20F440300843C5F888007A
:104210002068800307D5D5F89C00A16A20F0030030
:104220000843C5F89C002088800507D5D5F888008C
:10423000E16A20F440200843C5F888002088400542
:104240000FD5D5F88800216B20F440100843C5F83D
:104250008800206BB0F5801F03D1E86840F480101F
:10426000E860208800050FD5D5F88800616B20F440
:1042700040000843C5F88800606BB0F5800F03D19B
:10428000E86840F48010E8602088C0040FD5D5F8B5
:104290008800A16B20F040700843C5F88800A06B2F
:1042A000B0F1807F03D1E86840F48010E860208896
:1042B0004FF0006180040ED5D5F88800E26B20F045
:1042C00040601043C5F88800E06B884203D1E8687D
:1042D00040F48010E860208840040ED5D5F88800AE
:1042E000226C20F040601043C5F88800206C8842A2
:1042F00003D1E86840F48010E860208800040FD5FE
:10430000D5F88800616C20F040500843C5F888005B
:10431000606CB0F1805F03D1E86840F48030E86001
:104320002068C0030FD5D5F88800A16C20F040406C
:104330000843C5F88800A06CB0F1804F03D1E8684D
:1043400040F48030E860206840030FD5D5F89C0029
:10435000E16C20F440100843C5F89C00E06CB0F517
:10436000001F03D1E86840F48010E8603046BDE8E3
:10437000F883000000100240007000402DE9F04773
:104380000E4605004FF0000725D0DFF8AC81D8F8C5
:10439000000000F00F00B0420CD2D8F8001021F05D
:1043A0000F013143C8F80010D8F8000000F00F00EA
:1043B000B04210D12968614CC80741F2883A5AD0FE
:1043C0006868DFF87C91032808D0022820682DD087
:1043D000400500282CDB0120BDE8F0872068800123
:1043E000F9D5E06800F00302E068C0F30310401C58
:1043F000032A19D0534A00BFB2FBF0F0E268C2F3BF
:1044000006225043E268C2F34162521C5200B0FBE4
:10441000F2F0484517D9A06810F0F00F0CD08807CB
:1044200011D5A86840B10EE0474AE5E78003D0E720
:1044300000F0C4F8484506D9A06820F0F00040F02C
:104440008000A0608027A068696820F0030008430E
:10445000A060FFF7F3FC814606E000BFFFF7EEFC2B
:10446000A0EB090151453AD8A068696800F00C003A
:10447000B0EB810FF2D12868810714D5400703D52E
:10448000A06840F4E060A0602878000705D5A06827
:1044900020F4605040F4E060A060A068A96820F0BB
:1044A000F000084304E0802F03D1A06820F0F00062
:1044B000A060D8F80010404601F00F01B14216D9B3
:1044C000016821F00F0131430160FFF7B7FC074697
:1044D00007E000BFFFF7B2FCC11B514501D9032023
:1044E0007AE7D8F8000000F00F00B042F2D1287847
:1044F000400705D5A068E96820F4E0600843A060A3
:104500002878000706D5A068296920F4605040EAA1
:10451000C100A06000F052F8A1680C4AC1F3031179
:10452000515C01F01F01C840094908600948006852
:10453000BDE8F047FFF7A0BC002002400010024099
:1045400000B4C4040024F40000127A00EA840008D5
:1045500010000020040000200F2202600C4A936823
:1045600003F003034360936803F0F00383609368F0
:1045700003F4E063C36092684FF4E06303EAD2029D
:1045800002610448006800F00F00086070470000F6
:104590000010024000200240054806490068896872
:1045A000054AC1F30221515C01F01F01C840704768
:1045B0001000002000100240FA840008184910B5CD
:1045C0008868C0F381021748012A0BD08A6843101B
:1045D000C2F38102022A06D08A68C2F38102032A4A
:1045E00003D0002010BD184610BDCA6802F00304B5
:1045F000CA68C2F30312521C032C02D0B0FBF2F0C3
:1046000001E0B3FBF2F0CA68C968C2F30622504366
:10461000C1F34161491C4900B0FBF1F010BD00003D
:10462000001002400024F4002DE9F84304007AD081
:104630002078F84DC00747D0A868E96800F00C0062
:1046400001F003010C2802D0082817D001E003294B
:1046500014D06068B0F5803F17D0B0F5A02F28685F
:1046600017D020F480302860286820F4802028604B
:104670006068E0B1FFF7E2FB064614E028688003BB
:1046800022D560680028D2D01EE0286840F480302F
:10469000EDE740F480202860F7E700BFFFF7CEFB8E
:1046A000801B642870D828688003F7D50CE0FFF7DA
:1046B000C5FB064605E000BFFFF7C0FB801B642872
:1046C000F0D828688003F7D4207880074CD5A868F4
:1046D000E96800F00C0001F003010C2802D0042866
:1046E0000DD001E002290AD0E068002828682BD00C
:1046F00040F480702860FFF7A1FB064619E02868A7
:10470000400502D5E068002891D06868217C20F03F
:10471000FE4040EA01606860BF480068FFF7ACFBFC
:10472000002800D120E072E1FFF788FB801B0228FF
:10473000B8D828684005F7D56868217C20F0FE408D
:1047400040EA016068600FE020F480702860FFF7A5
:1047500075FB064605E000BFFFF770FB801B0228D3
:10476000A0D828684005F7D42078000729D56069CB
:104770000028D5F8940013D040F00100C5F894004B
:10478000FFF75CFB064606E090E000BFFFF756FB34
:10479000801B022886D8D5F894008007F6D510E053
:1047A00020F00100C5F89400FFF748FB064604E03E
:1047B000FFF744FB801B022878D8D5F894008007C7
:1047C000F6D42078400761D5A86D0026C00008D433
:1047D000A86D40F08050A865A86D012600F08050BB
:1047E00000908E480168C90511D40168804641F4E3
:1047F00080710160FFF722FB074604E0FFF71EFB14
:10480000C01B022852D8D8F80000C005F6D5A06811
:10481000012815D00528D5F8900016D020F0010009
:10482000C5F89000D5F8900020F00400C5F890007D
:10483000A06841F28838B8B1FFF700FB07460EE0E8
:10484000D5F8900040F00100F0E740F00400C5F812
:104850009000F5E7FFF7F2FAC11B414526D8D5F8DD
:1048600090008007F6D50CE0FFF7E8FA074604E071
:10487000FFF7E4FAC11B414518D8D5F8900080072E
:10488000F6D41EB1A86D20F08050A865207880066F
:1048900029D5A0690028D5F8980013D040F0010070
:1048A000C5F89800FFF7CAFA064606E075E000BFB3
:1048B000FFF7C4FA801B02286FD8D5F8980080074C
:1048C000F6D510E020F00100C5F89800FFF7B6FA21
:1048D000064604E0FFF7B2FA801B02285DD8D5F83F
:1048E00098008007F6D4E069F0B3A968C1F38101AC
:1048F00003295DD00228286820F08070286003D04A
:10490000FFF79CFA04464BE0FFF798FA064604E0EE
:10491000FFF794FA801B02283FD828688001F7D45B
:10492000F4E908016FF00F0202EB01110843218A3C
:104930005204490802EB4151A26841EA02210843AE
:10494000217D4FF07E42490802EB41610843217B03
:1049500040EAC160E968324A11400843E8602868CB
:1049600040F08070286000E05EE0E86840F0807011
:10497000E860FFF763FA044605E000BFFFF75EFA60
:10498000001B022809D828688001F7D54CE000BF39
:10499000FFF754FA001B022802D90320BDE8F88370
:1049A00028688001F4D4E8681E490840E8603BE0CC
:1049B0000128F3D0E868226A00F00301914226D171
:1049C000616A00F0F0020901103991421FD1A26A18
:1049D00000F4FE41B1EB022F19D194F82C2000F025
:1049E0007841B1EBC26F12D1218E00F4C0024908A8
:1049F0004905A1F50011914209D194F8341000F055
:104A0000C06049084906A1F1007181420CD0012023
:104A1000C4E70000001002400400002000700040C5
:104A20000C809F01FCFFEEFE0020B7E770470000FE
:104A300038B5016804464A688868C043430606D50D
:104A4000C30704D1D3435B0601D4E16C05E08307BF
:104A500008D4D3431B0605D4216D01B02046BDE820
:104A600030400847830603D5430601D5C30551D41A
:104A7000D3439B064ED443060AD494F85D30032BEF
:104A800049D0236E43F004032366CB688B68009300
:104A9000830609D4236E43F0010323668B680093D9
:104AA0000B6823F040030B60C00506D4206E40F075
:104AB00008002066206880680090206E002829D0B9
:104AC0002068416821F0E0014160012084F85D0028
:104AD000900701D4D00722D02068416821F003015B
:104AE0004160114DA06D40B18563A06DFEF762FB82
:104AF00018B1206E40F040002066606D002809D09B
:104B00008563606DFEF756FB002803D0206E40F0F1
:104B10004000206638BDC8688868009038BD2046CF
:104B2000FFF784FF38BD00007564000870B504000D
:104B300009D0606A002540B125616561A56294F8DD
:104B40005D0040B10CE0012070BD6068B0F5827F6F
:104B5000F4D0E561F2E784F85C50204600F05CF8A0
:104B6000022084F85D002068016821F040010160A6
:104B7000E1684FF4E062914201D9002001E04FF476
:104B80008050B1F5706F02D0914200D0A562A1882B
:104B9000228901F4827102F404421143227C02F062
:104BA00002021143227D02F001021143228B02F422
:104BB00000721143227F02F03802114394F8202042
:104BC00002F080021143228D02F400521143226848
:104BD0001160A169042202EA114194F8242000F432
:104BE000805002F01002114394F8342002F00802C1
:104BF0001143A28902F470621143014320684160AD
:104C00002068C16921F40061C1612566012084F832
:104C10005D00002070BD00002DE9F04186B0054622
:104C200014216846FBF777FC2F492868884257D142
:104C30002E48016E41F480510166016E01F48051ED
:104C40000591C16C41F00101C164C06C4FF00008D6
:104C500000F001000590E02000900220CDE901085D
:104C60000520CDE90380474669464FF09040FEF7A6
:104C7000AFFF204C1E48802620600A20C4E90107AF
:104C8000C4E903766761A761E761B701204627623F
:104C9000FEF72AFB08B1FCF777FAAC65A562154C64
:104CA00013486034143020600B2060601020A06036
:104CB000C4E90386C4F81480C4F81880C4E90787DF
:104CC0002046FEF711FB08B1FCF75EFA6C65002286
:104CD00002212320A562FFF739F92320FFF728F9E5
:104CE00006B0BDE8F0810000003001400010024035
:104CF00008040240900200202DE9FF5F1D46934604
:104D000004464FF001090E9EFFF798F8074694F805
:104D10005D006168012806D0B1F5827F39D1A168B4
:104D2000B1BB042835D1019800287CD0BBF1000F1D
:104D3000FBD0002DF9D094F85C00012829D04FF069
:104D4000010A84F85CA094F85D00042802D00520D4
:104D500084F85D004FF00008C4F86080C4F840B0EB
:104D6000A4F84650A4F844500199A163E587A587AB
:104D7000C4F84C80C4F85080E0684FF4E061884289
:104D800001D8012D09D92068426822F4805208E038
:104D9000FFE7022004B0BDE8F09F2068426842F4BB
:104DA0008052426020680268520603D4026842F0D2
:104DB00040020260E0688842606846D908B1012D6F
:104DC0003BD1A06B01882068C160A06B801CA063F0
:104DD000E08F401EE08730E02068816889070FD5AA
:104DE000E18F69B1B9F1010F0AD1A16B0988C160E6
:104DF000A06B801CA063E08F401EE0874FF000098D
:104E000020688168C90711D0B4F8461071B1C06834
:104E1000216C0880206C801C2064B4F84600401E81
:104E2000A4F8460000E09EE04FF00109FFF706F805
:104E3000C01BB04201D3701C74D1E08F0028CBD1CD
:104E4000B4F846000028C7D175E008B1012D6BD138
:104E5000E08F0128A06B08D921680088C860A06B8A
:104E6000801CA063E08F801E07E021680078087333
:104E7000A06B401CA063E08F401EE08754E02068D8
:104E8000816889071AD5E18FC1B1B9F1010F15D138
:104E9000E18F0129A16B07D90988C160A06B801C33
:104EA000A063E08F801E06E009780173A06B401CB0
:104EB000A063E08F401EE0874FF000092068816802
:104EC000C90728D0B4F8461029B3B4F84610012910
:104ED00014D9C068216C0880206C801C2064B4F850
:104EE0004600801EA4F84600B4F84600012810D8F9
:104EF0002068416841F4805141600AE0007B216CE8
:104F00000870206C401C2064B4F84600401EA4F8D1
:104F100046004FF00109FEF791FFC01BB04202D3DB
:104F2000701C01D012E08EB1E08F0028A7D1B4F838
:104F300046000028A3D13A463146204601F0A3FAA4
:104F400050B12020206684F85C800CE084F85DA0DD
:104F500084F85C8003201DE784F85DA084F85C8001
:104F6000206E0028F7D0012014E770477047704783
:104F700030B590F83C20012A45D0012280F83C2031
:104F8000CA688B6822F440721A434B6822F480622C
:104F90001A430B6822F400621A430B6922F4805210
:104FA0001A434B6922F400521A430B6B22F48042DD
:104FB0001A430B8B22F4702242EA0342CB6922F09F
:104FC00080521A43114D03680024AB4205D0104DA6
:104FD000AB4202D00F4DAB4210D10D8D22F47002C6
:104FE00042EA05520D6A22F080722A434D6A22F08D
:104FF00000722A43C96A22F000520A435A6480F8B8
:105000003C40002030BD022030BD0000002C01409B
:10501000003401400050014070470068416D41F488
:10502000003141650020704770477047F0B590F837
:105030003C20012A43D0012580F83C50022280F810
:105040003D2003685A689C681E4E1F4FDFF87CC0E5
:10505000B34203D0BB4201D0634504D122F4700EA9
:105060004A6842EA0E02DFF868E002EA0E02D1F86E
:1050700000E04EEA020EC3F804E00268B24212D029
:10508000B2F1804F0FD0134B9A420CD0124B9A4280
:1050900009D0124B9A4206D0BA4204D0104B9A4221
:1050A00001D0624504D1896824F0800319439160DE
:1050B00080F83D50002180F83C100846F0BD0220E9
:1050C000F0BD0000002C01400034014000500140C0
:1050D0008FFFFFFD0004004000080040000C00406E
:1050E0000040014010B50446022249B104290ED007
:1050F000082913D094F84700012816D0012010BDCC
:1051000094F844000128F9D184F844200FE094F881
:1051100045000128F2D184F8452008E094F84600C3
:105120000128EBD184F8462001E084F847200422CE
:10513000206801F0AEFB2068416C41F400414164FD
:1051400013492068884214D0B0F1804F11D0114922
:1051500088420ED0104988420BD01049884208D0AE
:105160000F49884205D00F49884202D00E49884233
:1051700007D181680D4A1140062906D0B1F5803F5C
:1051800003D0016841F001010160002010BD000062
:10519000002C01400004004000080040000C0040CA
:1051A0000034014000400140005001400700010070
:1051B000704710B5040003D094F83D0010B107E02B
:1051C000012010BD002084F83C00204600F022F8A9
:1051D000022084F83D00211D206801F0DBFA012047
:1051E00084F8480084F83E0084F83F0084F84000CA
:1051F00084F8410084F8420084F8430084F84400B5
:1052000084F8450084F8460084F8470084F83D009F
:10521000002010BD08B5194A01681948914216D1FD
:10522000016E41F400610166006E002200F400602E
:10523000009011461820FEF789FE1820FEF778FE30
:10524000002211461920FEF781FE192010E00D4AB8
:10525000914211D1816D41F002018165806D002282
:1052600000F00200009001211D20FEF76FFE1D20BE
:10527000BDE80840FEF75CBE08BD0000002C014000
:10528000001002400004004090F83D10012901D0B8
:1052900001207047022180F83D10006812498842C1
:1052A00014D0B0F1804F11D0104988420ED010496F
:1052B00088420BD00F49884208D00F49884205D058
:1052C0000E49884202D00E49884207D181680D4AB2
:1052D0001140062906D0B1F5803F03D0016841F0A6
:1052E0000101016000207047002C014000040040D3
:1052F00000080040000C0040003401400040014024
:10530000005001400700010090F83D10012901D034
:1053100001207047022180F83D100168CA6842F000
:105320000102CA6000681349884214D0B0F1804F6E
:1053300011D0114988420ED0104988420BD0104933
:10534000884208D00F49884205D00F49884202D0D0
:105350000E49884207D181680D4A1140062906D0BE
:10536000B1F5803F03D0016841F0010101600020E8
:1053700070470000002C014000040040000800407D
:10538000000C00400034014000400140005001404A
:105390000700010070B5044690F83C000025012884
:1053A0001CD0012684F83C60022084F83D0022686D
:1053B0009068334B184020F47F4090600868B0F547
:1053C000005F2ED016DC402849D009DCD0B110286F
:1053D00018D0202816D0302849D113E0022070BD03
:1053E00050282AD0602830D070280FD0B0F5805FC8
:1053F0003DD13DE010F00F0F39D10111A1F5803101
:10540000072934D822680146104625E0CB68D1E947
:105410000121206801F04AFA2068816841F0770193
:1054200009E0CB68D1E90121206801F03FFA20684A
:10543000816841F4804181601AE0CA684968206847
:1054400001F008FC5021206806E0CA68496820681D
:1054500001F011FC6021206801F032FA08E0CA680E
:105460004968206801F0F6FB40212068F4E7012537
:1054700084F83D60002084F83C00284670BD0000A0
:1054800088FFCEFF70472DE9F04104460068C668EA
:1054900005694FF00007A90713D5B10711D5F91E0B
:1054A000016101202077206880698007204602D0B2
:1054B000FFF7E8FF04E000F001F9204600F0C3F92F
:1054C0002777680716D5700714D521686FF0040098
:1054D0000861022020772068806910F4407F204610
:1054E00002D0FFF7CFFF04E000F0E8F8204600F01C
:1054F000AAF92777280715D5300713D521686FF04B
:1055000008000861042020772068C06980072046D1
:1055100002D0FFF7B7FF04E000F0D0F8204600F01B
:1055200092F92777E80616D5F00614D521686FF0B2
:1055300010000861082020772068C06910F4407FBF
:10554000204602D0FFF79EFF04E000F0B7F82046A7
:1055500000F079F92777E80708D0F00706D021682E
:105560006FF001000861204600F098FA280601D487
:10557000A80408D5300606D521686FF402500861EA
:105580002046FFF7F3FCE80508D5300606D521686C
:105590006FF4807008612046FFF7E7FC680608D5C5
:1055A000700606D521686FF040000861204600F0C3
:1055B000A7FAA80608D5B00606D521686FF0200026
:1055C00008612046FFF7D3FCE80208D5F00206D5B3
:1055D00021686FF4801008612046FFF725FDA802BE
:1055E00008D5B00206D521686FF400100861204686
:1055F000FFF712FD680208D5700206D521686FF426
:10560000800008612046FFF710FD28020AD530020D
:1056100008D521686FF4000008612046BDE8F0411C
:10562000FFF7C6BDBDE8F081F0B587B00446142190
:105630006846FAF770FF1E492068884236D11D4837
:10564000C16C41F00201C164C16C01F0020105911D
:10565000C16C41F00101C164C06C022500F0010081
:1056600005904FF4C04000900024CDE90154062677
:10567000114FCDE9034669463846FEF7A9FAA8035B
:105680000090CDE901540420CDE903406946384635
:10569000FEF79EFA4FF4E0600090CDE90154CDE9A9
:1056A000034669464FF09040FEF792FA07B0F0BD0E
:1056B000002C01400010024000040048704770B503
:1056C000044690F83C0000260D4601280BD001202E
:1056D00084F83C000C2A4AD007DC82B1042A20D08E
:1056E000082A06D131E0022070BD102A53D0142AB6
:1056F00063D00126002084F83C00304670BD20684D
:1057000001F0E8F82068816941F0080181612068B2
:10571000816921F004018161206881692A6911434E
:1057200011E0206801F02CF92068816941F40061E2
:1057300081612068816921F48061816120688169CB
:105740002A6941EA02218161D4E7206801F068F901
:105750002068C16941F00801C1612068C16921F078
:105760000401C1612068C1692A69114311E0206800
:1057700001F0A6F92068C16941F40061C1612068A7
:10578000C16921F48061C1612068C1692A6941EA67
:105790000221C161AEE7206801F0E2F92068016DE5
:1057A00041F0080101652068016D21F004010165E7
:1057B0002068016D2A69114311E0206801F00CFA9C
:1057C0002068016D41F4006101652068016D21F4DC
:1057D000806101652068016D2A6941EA0221016545
:1057E00088E710B5040003D094F83D0010B107E03D
:1057F000012010BD002084F83C00204600F022F873
:10580000022084F83D00211D206800F0C3FF012024
:1058100084F8480084F83E0084F83F0084F8400093
:1058200084F8410084F8420084F8430084F844007E
:1058300084F8450084F8460084F8470084F83D0069
:10584000002010BD7047704770B50446022269B150
:10585000042912D0082917D00C291CD0102921D0D6
:1058600094F84300012824D0012070BD94F83E0034
:105870000128F9D184F83E201DE094F83F0001286A
:10588000F2D184F83F2016E094F840000128EBD1D3
:1058900084F840200FE094F841000128E4D184F816
:1058A000412008E094F842000128DDD184F842202C
:1058B00001E084F843200122206800F0DDFF1D494B
:1058C00020681D4A1D4B1E4D88420BD0904209D0C6
:1058D000984207D01B4EB04204D01B4EB04201D0BC
:1058E000A84203D1466C46F40046466420688842CC
:1058F00011D0B0F1804F0ED0144988420BD014491A
:10590000884208D01349884205D0904203D098427B
:1059100001D0A84207D181680F4A1140062906D05C
:10592000B1F5803F03D0016841F001010160002022
:1059300070BD0000002C01400034014000400140D7
:105940000050014000440140004801400004004074
:1059500000080040000C004007000100F0B50025E1
:105960000446022269B1042916D008295DD00C2909
:1059700066D010296BD094F8430001286ED0012026
:10598000F0BD94F83E000128F9D184F83E2020684B
:10599000C26842F0020209E094F83F000128EED10B
:1059A00084F83F202068C26842F00402C2600122ED
:1059B000206800F061FF2F4920682F4A2F4B304E9E
:1059C00088420BD0904209D0984207D02D4FB84260
:1059D00004D02D4FB84201D0B04203D1476C47F4F8
:1059E000004747642068884211D0B0F1804F0ED044
:1059F000264988420BD02649884208D0254988424A
:105A000005D0904203D0984201D0B04207D18168BE
:105A1000214A1140062906D0B1F5803F03D0016824
:105A200041F0010101602846F0BD94F840000128D2
:105A3000A5D184F840202068C26842F00802B5E78A
:105A400094F8410001289AD184F8412008E094F8A4
:105A50004200012893D184F8422003E084F84320D7
:105A60000C2901D00125DEE72068C26842F010024F
:105A70009CE70000002C0140003401400040014040
:105A80000050014000440140004801400004004033
:105A900000080040000C00400700010010B504465B
:105AA00000681349884219D01249884216D1FBF781
:105AB000CDFEFBF76BFB10490888421C0A80B0F54D
:105AC0007A6F0BD300220A800C49488988814A8169
:105AD0000868C1E90020C8890882CA812068B0F13D
