:020000040800F2
:10000000480900207902000883320008852D000885
:100010008132000881030008EF370008000000006B
:10002000000000000000000000000000873200080F
:100030000104000800000000853200088932000831
:10004000930200089302000893020008930200083C
:10005000930200089302000893020008930200082C
:100060009302000893020008930200088503000829
:10007000910300089302000893020008930200080D
:1000800093020008930200089302000893020008FC
:1000900093020008930200089302000893020008EC
:1000A00093020008930200089302000893020008DC
:1000B000053300081133000893020008930200087A
:1000C00093020008930200089302000893020008BC
:1000D00093020008930200089302000893020008AC
:1000E000930200089302000893020008930200089C
:1000F000930200089302000893020008930200088C
:10010000930200089302000893020008930200087B
:10011000930200089302000893020008930200086B
:10012000930200089302000893020008930200085B
:10013000930200089302000893020008930200084B
:10014000930200089302000893020008930200083B
:10015000930200089302000893020008930200082B
:10016000930200089302000893020008930200081B
:10017000930200089302000893020008930200080B
:1001800093020008930200089302000893020008FB
:100190009302000800000000930200089302000888
:1001A00093020008930200089302000893020008DB
:1001B00093020008930200089302000893020008CB
:1001C00093020008930200089302000893020008BB
:1001D000930200089302000800F002F800F03CF8D7
:1001E0000AA090E8000C82448344AAF10107DA4592
:1001F00001D100F031F8AFF2090EBAE80F0013F0A8
:10020000010F18BFFB1A43F0010318474C360000DA
:100210006C360000103A24BF78C878C1FAD852076B
:1002200024BF30C830C144BF04680C607047000070
:100230000023002400250026103A28BF78C1FBD8EF
:10024000520728BF30C148BF0B6070471FB503F08D
:10025000F2FA1FBD10B510BD00F05DF81146FFF7B2
:10026000F5FF03F0D5FA00F07BF803B4FFF7F2FFD7
:1002700003BC00F07FF800000948804709480047A8
:10028000FEE7FEE7FEE7FEE7FEE7FEE7FEE7FEE746
:10029000FEE7FEE704480549054A064B70470000A3
:1002A000F5320008D9010008480300204809002061
:1002B00048050020480500204FF0000200B5134615
:1002C00094469646203922BFA0E80C50A0E80C5076
:1002D000B1F12001BFF4F7AF090728BFA0E80C5027
:1002E00048BF0CC05DF804EB890028BF40F8042B20
:1002F00008BF704748BF20F8022B11F0804F18BF8D
:1003000000F8012B704770477047704700487047EE
:10031000E802002070477546FFF7F8FFAE4605007B
:100320006946534620F00700854618B020B5FFF710
:10033000B1FFBDE820404FF000064FF000074FF03E
:1003400000084FF0000B21F00701AC46ACE8C009F3
:10035000ACE8C009ACE8C009ACE8C0098D467047FC
:1003600010B50446AFF300802046BDE81040FFF70B
:100370007CBF000001491820ABBEFEE7260002004A
:10038000FEE70000014800F039BF000044010020F2
:10039000014800F033BF0000A40100200D490268AD
:1003A0008A4201D20C4901E00B492031D2B2142318
:1003B000083AB2FBF3F2436C02F01F0223F003038E
:1003C0001944816404498031C1640121914001656F
:1003D0007047000008040240000802400179074A03
:1003E00002EB81024265054A4432491E826501F0F2
:1003F0001F0201219140C16570470000FC080240C6
:10040000704772B6FEE700002DE9F84F4FF0000983
:100410000446CDF800900D4694F85820DFF8EC83A0
:1004200061694F464846012A0AD00126F84A84F8F5
:10043000586041B1296A012905D0A36EEBB129E0CA
:100440000220BDE8F88F6868092838D1A96A4FF4FE
:10045000785041B12B6801F07C0100EA5340084319
:10046000E96A084302E0296800EA51402368D96C30
:1004700011400143D964606621E0C4E91971A96A99
:10048000286A31B101F07C01401E0843E96A084343
:1004900000E0401E29682B79C1F3846103F01F033B
:1004A00099400143A06E401EA066636E43EA0103BB
:1004B000636604D12168C86C10401843C864206882
:1004C00002F071FC58B995F8250098B12068C16810
:1004D00095F8262021F4401141EA4251C16020687C
:1004E00002F069FC8246206802F05DFC5AEA0000D6
:1004F0000DD0FCE095F8260095F82410400540EA60
:1005000001512068C26822F440121143E6E7A86A4C
:1005100030B1E86A20B195F8250001285ED003E0EB
:1005200095F82500012804D02068C16821F00071E9
:1005300003E02068C16841F00071C16095F83000A7
:10054000012852D02068016921F002010161AA68E6
:1005500029682068B2F1004F38D002F03FFC2068D3
:10056000416921F00041416120686969C268C2F3B4
:10057000C102520091402A69042A45D000EB820052
:100580002B68026EDFF88CC203F0F84302EA0C021B
:100590000B431A4342F00041016620682A69A969A9
:1005A00000EB8200026E22F080720A430266297F0D
:1005B00022682869012924D05FF0000102EB800045
:1005C000026E22F000720A43026690E0002202F0FE
:1005D00005FC2068416941F00041C4E7E06D40F04E
:1005E0002000E0654FF00109A8E7D5E90D010843B7
:1005F00021680A6922F4FF7242F002021043086186
:10060000A5E74FF00071D9E7002102F0C2FB4003DB
:1006100020684FF0000172D002F0BBFB90FAA0F00E
:10062000B0FA80F1286842036ED090FAA0F0B0FAD8
:1006300080F0814204D100221146206802F0E5FBDF
:100640000121206802F0A5FB400320684FF0010162
:100650005DD002F09EFB90FAA0F0B0FA80F128681D
:10066000420359D090FAA0F0B0FA80F0814204D150
:1006700000220121206802F0C8FB0221206802F05C
:1006800088FB400320684FF0020148D002F081FB54
:1006900090FAA0F0B0FA80F12868420344D090FAB2
:1006A000A0F0B0FA80F0814204D10022022120683B
:1006B00002F0ABFB0321206802F06BFB40032068D3
:1006C0004FF0030133D002F064FB90FAA0F0B0FACF
:1006D00080F1286842032FD090FAA0F0B0FA80F0A1
:1006E000814204D100220321206802F08EFB2068A1
:1006F000816811F0010F22D0B5E000E004E002F0C3
:1007000048FBC0F384618DE7C0F3846091E702F099
:1007100040FBC0F38461A2E7C0F38460A6E702F067
:1007200038FBC0F38461B7E7C0F38460BBE702F035
:1007300030FBC0F38461CCE7C0F38460D0E72A7B50
:10074000296850F8B03FC1F3120C23EA0C0302F001
:10075000180C314A22FA0CF20A4013430360E9688C
:1007600041457DD1286841031BD090FAA0F1B1FA30
:1007700081F1491C01F01F0109294FEA403131D8AC
:10078000002911D090FAA0F1B1FA81F101F1010133
:1007900001F01F0106FA01F609D100BFC0F3846120
:1007A00009E0C0F38461E4E7C0F38461EEE790FA06
:1007B000A0F1B1FA81F101F1010101F01F0146EA56
:1007C000816102D1C0F3846003E090FAA0F0B0FA36
:1007D00080F000F1010000F01F0000EB400041EA52
:1007E00000513AE000290ED090FAA0F1B1FA81F15F
:1007F00001F1010101F01F0106FA01F60ED100BF5F
:10080000C0F384610EE0C0F38461F1E700007F4033
:100810000040100400F0FF03FFFF070090FAA0F172
:10082000B1FA81F101F1010101F01F0146EA816194
:1008300002D1C0F3846003E090FAA0F0B0FA80F037
:1008400000F1010000F01F003A4A00EB400002EB0B
:10085000005041EA000141F00071AA68206800E000
:1008600001E002F0BBFA34482B6803425ED02268F4
:100870004FF0A04C3148324E324D624501D0AA4271
:1008800001D1014600E031468968DFF8BC8001F003
:10089000E071434503D0DFF8B480434520D15FEADF
:1008A00001281DD4624505D0294B9A423ED1AA4267
:1008B00000D0304641F40001826822F0E0720A4321
:1008C0008260244824490068B0FBF1F0801C00EBF2
:1008D0004000800000E0401E00900028FBD125E091
:1008E000DFF8788043450FD15FEAC1180CD4AA42E3
:1008F00002D11B4B9A4219D0624502D0AA4200D0C5
:10090000304641F080710CE0DFF8588043450DD14E
:100910004B020BD4AA4209D0624500D0304641F4C4
:100920008001826822F0E0720A43826084F8587085
:10093000484686E5000020FE0000088000030050C5
:100940000007005000010050000021C31000C090BB
:10095000000600500C000020400D0300000052C7AC
:1009600000050050000084CB2DE9F04F044690F8BC
:1009700058009BB00F464FF0000B012812D0012009
:1009800084F8580000261796189620684FF0A04863
:10099000DFF81C91DFF81CA1474D404506D12846E1
:1009A000009508E002201BB0BDE8F08F48450AD151
:1009B0005046CDF800A002F0FEF90090206802F049
:1009C000FAF940B109E0E06D40F02000E06584F8FC
:1009D00058600120E7E7009850B1E06D40F020003A
:1009E000E0654FF0010B00BF84F858605846DAE725
:1009F00020684146884201D0A84201D12F4800E03A
:100A00002F48D7F800C02F4B40F61F72BCF1000FE3
:100A10002DD0D0F808C094F838802CF4604C4CEA03
:100A2000483CD7F804804CEA080CC0F808C0D4F859
:100A300000C08C4501D0AC4504D18968AB6801F099
:100A4000010109E0D9F80810DAF8085001F00101B5
:100A500005F001059B68294303F001031943C3D145
:100A6000BB68396819438368934319431DE087685D
:100A700027F46047876027688F4201D0AF4204D1D6
:100A80008968AB6801F0010109E0D9F80810DAF8CB
:100A9000085001F0010105F001059B68294303F0AE
:100AA00001031943A0D18168914381609CE7000054
:100AB00000040050000500500001005000030050E9
:100AC00000070050000600502DE9F84F00270446AB
:100AD000009790F85800DFF81C840D46B9460128AD
:100AE00011D0012684F85860206802F060F960B1E6
:100AF000E06D40F02000E0655FF0010784F8589059
:100B00003846BDE8F88F0220FBE7D5E900210C2329
:100B1000206803EA91131844036B01F01F014FF0A2
:100B20001F0C0CFA01FCC2F3846223EA0C038A4016
:100B300013430363206802F03AF98246206802F00A
:100B40002EF95AEA00003CD1AA6829682068B2F15F
:100B5000004F37D002F033F92068416921F000419D
:100B6000416120686969C268C2F3C10252009140C4
:100B70002A69042A31D000EB82002B68026EDFF86C
:100B800078C303F0F84302EA0C020B431A4342F025
:100B90000041016622682869A96902EB8000026EA3
:100BA00022F080720A430266297F2268286901299F
:100BB00010D0002102EB8000026E22F000720A4386
:100BC00002667DE0002202F0FAF82068416941F0F7
:100BD0000041C5E74FF00071ECE7002102F0D3F8C7
:100BE000400320684FF0000172D002F0CCF890FA78
:100BF000A0F0B0FA80F1286842036ED090FAA0F01D
:100C0000B0FA80F0814204D100221146206802F03F
:100C1000F4F80121206802F0B6F8400320684FF094
:100C200001015DD002F0AFF890FAA0F0B0FA80F1C7
:100C30002868420359D090FAA0F0B0FA80F08142BF
:100C400004D100220121206802F0D7F80221206897
:100C500002F099F8400320684FF0020148D002F0FA
:100C600092F890FAA0F0B0FA80F12868420344D0DC
:100C700090FAA0F0B0FA80F0814204D10022022163
:100C8000206802F0BAF80321206802F07CF84003E3
:100C900020684FF0030133D002F075F890FAA0F00D
:100CA000B0FA80F1286842032FD090FAA0F0B0FA91
:100CB00080F0814204D100220321206802F09DF8D7
:100CC0002068816811F0010F22D0ACE000E004E060
:100CD00002F059F8C0F384618DE7C0F3846091E7B6
:100CE00002F051F8C0F38461A2E7C0F38460A6E784
:100CF00002F049F8C0F38461B7E7C0F38460BBE752
:100D000002F041F8C0F38461CCE7C0F38460D0E71F
:100D10002A7B296850F8B03FC1F3120C23EA0C0378
:100D200002F0180C754A22FA0CF20A4013430360D1
:100D3000E968414577D1286841031CD090FAA0F1B9
:100D4000B1FA81F1491C01F01F0109294FEA403134
:100D500032D8002912D000BF90FAA0F1B1FA81F187
:100D600001F1010101F01F0106FA01F609D100BFEE
:100D7000C0F3846109E0C0F38461E3E7C0F38461F8
:100D8000EEE790FAA0F1B1FA81F101F1010101F071
:100D90001F0146EA816102D1C0F3846003E090FA4A
:100DA000A0F0B0FA80F000F1010000F01F0000EBAD
:100DB000400041EA005132E000290ED090FAA0F143
:100DC000B1FA81F101F1010101F01F0106FA01F60A
:100DD00006D100BFC0F3846106E0C0F38461F1E78F
:100DE00090FAA0F1B1FA81F101F1010101F01F01C6
:100DF00046EA816102D1C0F3846003E090FAA0F07A
:100E0000B0FA80F000F1010000F01F003C4A00EB56
:100E1000400002EB005041EA000141F00071AA6875
:100E2000206801F0CCFF37482B6803423FF466AEE0
:100E300021684FF0A04C3448344E354D614501D007
:100E4000A94201D1024600E032469268DFF8C48030
:100E500002F0E072434503D0DFF8BC80434521D166
:100E60005FEA02281ED4614506D02C4B99427FF4DC
:100E700045AEA94200D0304642F40001826822F01B
:100E8000E0720A438260264826490068B0FBF1F010
:100E9000401C00EB4000800000E0401E0090002855
:100EA000FBD12BE6DFF8808043450FD15FEAC21803
:100EB0000CD4A94202D11D4B9942F2D0614502D017
:100EC000A94200D0304642F080710CE0DFF860802B
:100ED0004345E6D15302E4D4A942E2D0614500D0B3
:100EE000304642F48001826822F0E0720A43826058
:100EF00004E6000000007F4000F0FF03FFFF070052
:100F0000000020FE00000880000300500007005091
:100F100000010050000021C31000C09000060050E6
:100F20000C000020400D0300000052C700050050D7
:100F3000000084CBF8B54FF0000504002E46009564
:100F400002D0E06D10B107E00120F8BD204600F0AE
:100F500009F9266684F8586020688168C1F34071F9
:100F600019B18168734A1140816020688168C1F3BA
:100F7000007189B98168704A114041F080518160E7
:100F80006E486F490068B0FBF1F04000801C00E043
:100F9000401E00900028FBD120688168C1F30071D9
:100FA00041B9E16D41F01001E165216E41F00101AF
:100FB0002166012501F0FBFEE16DC90600D430B1C8
:100FC000E06D40F01000E06501252846F8BDE06DB9
:100FD00020F4807040F00200E0652068816811F024
:100FE000010F27D14FF0A043564A984201D09042BA
:100FF00004D19968966801F001010AE052498968B4
:10100000524E01F00101B66806F001063143504E20
:10101000B66806F0010631430CD1984201D09042E7
:1010200001D14C4800E04C486168826822F47C128F
:101030000A438260E168E06B627F0843A16841EA8D
:101040004231084394F8241040EA0140012904D1B8
:10105000218D424A02EB41410843E16A29B101F482
:101060007871226B014342EA01002268D1683C4B4F
:1010700019400143D16020680169626B21F0406131
:1010800011430161206801F08AFE70BB207F94F853
:1010900038102268800340EA4100D16844F202031C
:1010A00099430143D16020690028206801690AD072
:1010B00041F480310161206850F8C01F22696FF34C
:1010C0000D01114307E021F480310161206850F8DF
:1010D000C01F6FF30D01016094F8400001280CD08F
:1010E0002068016921F0010101616069012820681F
:1010F000016B21F00F0111D013E0D4E91101084375
:10110000D4E913121143084321680A6940F2FC73C1
:101110009A43104340F001000861E6E7226A521E3C
:1011200011430163E06D20F0020040F00100E06532
:101130004BE70000C0FFFF5FC0FFFF7F0C000020F7
:10114000400D030000010050000400500005005055
:101150000006005000030050000700500000FEFF92
:101160000740F0FF30B59BB00446142115A8FFF7E7
:10117000A3F854216846FFF79FF82068B0F1A04F0C
:1011800035D14FF40040009080031190684600F084
:1011900087FC08B1FFF735F91648C16C41F40051DE
:1011A000C164C16C01F400511A91C16C41F001019C
:1011B000C164C16C01F001011A91C16C41F00201DE
:1011C000C164C06C15A900F002001A900F2003241E
:1011D000002581E831004FF0904000F017FA15A982
:1011E0004FF4006081E83100034800F00FFA1BB0B3
:1011F00030BD00000010024000040048F0B4016C53
:101200000C6801680D6890F8442002F01F06042263
:1012100002FA06F3234211D06B070FD50B689B0629
:1012200003D40B6823F004030B6090F8441001F022
:101230001F018A40016C4A60016B1DE0022303FA22
:1012400006F727424FF0000C4FF0010218D0AF070D
:1012500016D50C68A40605D40C6824F00A040C60AA
:1012600080F8252090F8441001F01F018B40016C9C
:101270004B6080F824C0C16A00291AD0F0BC08472E
:101280000823B340234214D02B0712D50B6823F058
:101290000E030B6090F84410036C01F01F0102FA7A
:1012A00001F15960C26380F8252080F824C0416BA9
:1012B000E2E7F0BC7047000070B504000CD02B4A88
:1012C00021681420914209D2294A0A44B2FBF0F065
:1012D0008000606427480AE0012070BD234A524222
:1012E0000A44B2FBF0F080006064204808382064B3
:1012F000022084F825000A6847F6F0708243D4E99A
:1013000002031843D4E904352B431843A369184357
:10131000E3691843236A1843104308602046FFF727
:101320003DF8A0680025B0F5804F00D16560A16C44
:1013300020790860D4E9130141606068401E0328E9
:1013400008D82046FFF74AF8606D0560D4E9160119
:10135000416002E06565A565E565E563012084F807
:10136000250084F82450002070BD000008040240CD
:10137000F8FFFDBF000002402DE9F041040006D057
:10138000DFF8F48194F85C00002518B107E0012033
:10139000BDE8F08184F85D50204600F0F9F820683F
:1013A000816921F01001816100F05AFA0646032795
:1013B00005E000BF00F054FA801B0A2811D820680D
:1013C00080690007F6D42068816941F001018161DC
:1013D00000F046FA06460BE000F042FA801B0A28AD
:1013E00006D9206E40F00100206684F85C70CEE7DC
:1013F00020688069C007EFD02068816941F0020150
:1014000081612168414502D15C4960680860207CA7
:1014100001282068816937D041F040018161607CFA
:1014200001282068816932D021F480418161A07C4B
:101430000128206881692DD041F4805181612068A4
:101440008169A26821F4407111438161206881693A
:1014500021F0A40181612068016921F0100101617E
:10146000E068012819D010B302281BD020688169D8
:1014700041F0800181612068016941F01001016142
:10148000E06803280ED012E021F04001C6E741F4E5
:101490008041CBE721F48051D0E72068816941F099
:1014A000040103E02068816941F020018161207E10
:1014B000E26940066FF0FF0101EB0222A0F100702B
:1014C0001043226AA38A521E10430A0202EB03430E
:1014D00018432368D861A068B0F5407F10D1D4E9E3
:1014E0000A0301EB0321401E0843216B131303EB96
:1014F00001110843A18C02EB014108432168C86037
:10150000206850F8C01FE26B114301601D4A21683A
:101510001B48914200D11C481C4A914201D100F560
:10152000D460206451F8802FA38E22F4F81242EA8E
:1015300003420A6000F170016164216851F8802F54
:1015400094F8383022F0706242EA03620A6000F1D7
:10155000B001A164D831E164D831216518316165E9
:10156000D83100E020C08842FCD3A5652566012063
:1015700084F85C0000200BE7006400400065004038
:1015800000A400400068004050A70040006C0040EC
:1015900010B59CB00446142115A8FEF78DFE542109
:1015A0006846FEF789FE17492068884228D18014D2
:1015B000009040030E90684600F072FA08B1FEF702
:1015C00020FF1148816D41F000718165816D01F04E
:1015D00000711A91C16C41F00101C164C06C15A980
:1015E00000F001001A904FF4C050159002201690A0
:1015F00000201790189009201990C00600F006F8F6
:101600001CB010BD00640040001002402DE9F04FF6
:10161000DFF82092002301260324A9F1040B85B0F2
:101620000F2709F1040AABF1040EFAE006FA03F5FC
:101630002A407CD091F804C00CF0030CBCF1010FDF
:1016400002D0BCF1020F26D1D0F808C0CDF800C0FE
:101650004FEA430C04FA0CF8CDF810C0DDF800C0D6
:101660002CEA080CCDF800C0D1F80C80DDF810C0D1
:1016700008FA0CF8DDF800C048EA0C08C0F8088049
:10168000D0F804C02CEA050C0D79C5F300159D4077
:1016900045EA0C0545600D79ED43AD070ED0C568F0
:1016A0004FEA430804FA08FC25EA0C05D1F808C003
:1016B0000CFA08FC4CEA050CC0F80CC00D7905F0DA
:1016C0000305022D16D1DD0800EB850CCDF808C00E
:1016D000DCF820805D074FEAD56C07FA0CF528EAA4
:1016E00005080D6905FA0CF5DDF808C045EA08059E
:1016F000CCF8205005684FEA430CCDF808C004FA36
:101700000CFC25EA0C0591F804C00CF00308DDF888
:1017100008C008FA0CF848EA0508C0F800804D68CF
:1017200015F4403F7CD0444DD5F860C000E077E030
:101730004CF0010CC5F860C02D6E23F0030C05F0D1
:10174000010500953D4D65440295AD684FEA837CE7
:101750004FEA1C7807FA08FC25EA0C05B0F1904F17
:1017600006D0DFF8DCC0604505D14FF0010C20E069
:101770004FF0000C1DE0DFF8CCC0604502D14FF007
:10178000020C16E0DFF8C0C0604502D14FF0030C38
:101790000FE0DFF8B8C0604502D14FF0040C08E05C
:1017A000DFF8ACC0604502D14FF0050C01E04FF00E
:1017B000060C0CFA08FC4CEA050C029DC5F808C0A2
:1017C000D9F80050CC46D1F8048095435FEAC82888
:1017D00000D51543CCF80050DAF80050D446D1F8C3
:1017E000048095435FEA882800D51543CCF8005063
:1017F000DBF80050DC46D1F8048095435FEA883876
:1018000000D51543CCF80050DEF80050F446D1F86E
:10181000048095435FEAC83800D51543CCF80050E2
:101820005B1C0A6832FA03F57FF400AF05B0BDE82F
:10183000F08F000008040140001002400000014049
:101840000004004800080048000C00480010004850
:10185000001400480AB1816170478162704700003E
:10186000014880687047000000000020024881683D
:1018700042681144816070470000002010B50024C8
:10188000032000F095F80F2000F008F808B10124BB
:1018900001E000F047F8204610BD000030B50546D5
:1018A0001C4887B0816D41F001018165806D06A9FA
:1018B00000F00100009001A800F060FB00F07EFB4A
:1018C00015494FF08042B0FBF1F11448491E026007
:1018D000416040F2E7320021C0E90321816000F05D
:1018E0004EFF040012D10D4800F0A4FF04000DD1FA
:1018F0001C2000F02FF8102D07D2002229461C20B2
:1019000000F036F80648056000E0012407B02046E4
:1019100030BD00000010024040420F009C02002039
:10192000000000200A4882B0016E41F0010101660A
:10193000016E01F001010091816D41F080518165DE
:10194000806D00F08050009002B000F0A1B800005F
:1019500000100240002809DB00F01F020121914025
:101960004009800000F1E020C0F80011704700003D
:10197000F0B40E4B1B680C46C3F30223C3F10705FA
:10198000042D00D90425191D072901D2002300E0E8
:10199000DB1E012606FA05F1491E214099409E40B2
:1019A000761E16403143F0BC01F022BF0CED00E082
:1019B000064900F0070208684FF6FF03184040EAA6
:1019C0000220034A10430860704700000CED00E05D
:1019D0000000FA052B492C4B0A6832214A432B4957
:1019E00040B1B0F5007F086829D020F4C06040F411
:1019F00080602CE00868C0F34120022804D051F830
:101A0000800F20F4807022E0D1F8800020F48070F4
:101A1000C1F88000086820F4C06040F400700860DD
:101A2000B2FBF3F0401C00E0401E4A69520501D5AC
:101A30000028F9D1486940050AD503207047C0F352
:101A40004120022806D051F8800F40F480700860D1
:101A500000207047D1F8800040F48070C1F8800009
:101A6000086820F4C06040F400700860B2FBF3F036
:101A7000401C00E0401E4A695205DBD50028F9D120
:101A8000D8E700000C00002040420F00007000402A
:101A90000248816841F480418160704700700040D5
:101AA0002DE9F843044600680026BB4D00035ED5CF
:101AB000A86D0027C00008D4A86D40F08050A8652C
:101AC000A86D012700F080500090DFF8D092D9F87F
:101AD000001041F48071C9F80010FFF7C1FE804684
:101AE00006E000BFFFF7BCFEA0EB080002282BD8E1
:101AF000D9F80000C005F5D5D5F8900010F4407075
:101B000014D0216D814211D0D5F89000D5F89010F5
:101B100020F4407041F48031C5F89010D5F8901051
:101B200021F48031C5F89010C5F89000C00711D09D
:101B3000FFF796FE804641F2883907E0FFF790FEF6
:101B4000A0EB0801494501D903260BE0D5F8900028
:101B50008007F3D5D5F89000216D20F4407008433C
:101B6000C5F890001FB1A86D20F08050A8652078BE
:101B7000C00707D0D5F88800616820F0030008434B
:101B8000C5F888002078800707D5D5F88800A168B7
:101B900020F00C000843C5F888002078400707D5DE
:101BA000D5F88800E16820F030000843C5F88800C7
:101BB0002078000707D5D5F88800216920F0C000FB
:101BC0000843C5F888002078C00607D5D5F88800F6
:101BD000616920F440700843C5F8880020788006C9
:101BE00007D5D5F88800A16920F440600843C5F8FE
:101BF00088002078400607D5D5F88800E16920F4F0
:101C000040500843C5F888002078000607D5D5F86D
:101C10008800216A20F440400843C5F888002088E5
:101C2000C00507D5D5F88800616A20F44030084324
:101C3000C5F888002068800307D5D5F89C00A16A04
:101C400020F003000843C5F89C002088800507D5D4
:101C5000D5F88800E16A20F440200843C5F88800E0
:101C6000208840050FD5D5F88800216B20F440105E
:101C70000843C5F88800206BB0F5801F03D1E868E1
:101C800040F48010E860208800050FD5D5F8880062
:101C9000616B20F440000843C5F88800606BB0F524
:101CA000800F03D1E86840F48010E8602088C00409
:101CB0000FD5D5F88800A16B20F040700843C5F817
:101CC0008800A06BB0F1807F03D1E86840F48010F9
:101CD000E86020884FF0006180040ED5D5F88800B8
:101CE000E26B20F040601043C5F88800E06B88424A
:101CF00003D1E86840F48010E860208840040ED5E5
:101D0000D5F88800226C20F040601043C5F88800A8
:101D1000206C884203D1E86840F48010E860208895
:101D200000040FD5D5F88800616C20F040500843BE
:101D3000C5F88800606CB0F1805F03D1E86840F4BA
:101D40008030E8602068C0030FD5D5F88800A16C0A
:101D500020F040400843C5F88800A06CB0F1804FE7
:101D600003D1E86840F48030E860206840030FD574
:101D7000D5F89C00E16C20F440100843C5F89C00A5
:101D8000E06CB0F5001F03D1E86840F48010E86013
:101D90003046BDE8F88300000010024000700040AB
:101DA0002DE9F0470E4605004FF0000725D0DFF87B
:101DB000AC81D8F8000000F00F00B0420CD2D8F887
:101DC000001021F00F013143C8F80010D8F80000CE
:101DD00000F00F00B04210D12968614CC80741F2F1
:101DE000883A5AD06868DFF87C91032808D0022826
:101DF00020682DD0400500282CDB0120BDE8F087AD
:101E000020688001F9D5E06800F00302E068C0F3C3
:101E10000310401C032A19D0534A00BFB2FBF0F054
:101E2000E268C2F306225043E268C2F34162521CE8
:101E30005200B0FBF2F0484517D9A06810F0F00F3F
:101E40000CD0880711D5A86840B10EE0474AE5E7F5
:101E50008003D0E700F0C4F8484506D9A06820F018
:101E6000F00040F08000A0608027A068696820F042
:101E700003000843A060FFF7F3FC814606E000BFC3
:101E8000FFF7EEFCA0EB090151453AD8A06869685C
:101E900000F00C00B0EB810FF2D12868810714D557
:101EA000400703D5A06840F4E060A06028780007F0
:101EB00005D5A06820F4605040F4E060A060A06800
:101EC000A96820F0F000084304E0802F03D1A06847
:101ED00020F0F000A060D8F80010404601F00F019B
:101EE000B14216D9016821F00F0131430160FFF7BB
:101EF000B7FC074607E000BFFFF7B2FCC11B514526
:101F000001D903207AE7D8F8000000F00F00B042B2
:101F1000F2D12878400705D5A068E96820F4E06090
:101F20000843A0602878000706D5A068296920F436
:101F3000605040EAC100A06000F052F8A1680C4A6D
:101F4000C1F30311515C01F01F01C8400949086049
:101F500009480068BDE8F047FFF7A0BC0020024038
:101F60000010024000B4C4040024F40000127A00FF
:101F7000403800080C000020000000200F22026002
:101F80000C4A936803F003034360936803F0F00383
:101F90008360936803F4E063C36092684FF4E06386
:101FA00003EAD20202610448006800F00F000860F2
:101FB000704700000010024000200240054806491A
:101FC00000688968054AC1F30221515C01F01F01D4
:101FD000C84070470C000020001002405038000834
:101FE000184910B58868C0F381021748012A0BD040
:101FF0008A684310C2F38102022A06D08A68C2F3BB
:102000008102032A03D0002010BD184610BDCA6803
:1020100002F00304CA68C2F30312521C032C02D05C
:10202000B0FBF2F001E0B3FBF2F0CA68C968C2F39A
:1020300006225043C1F34161491C4900B0FBF1F055
:1020400010BD0000001002400024F4002DE9F84308
:1020500004007AD02078F84DC00747D0A868E96816
:1020600000F00C0001F003010C2802D0082817D062
:1020700001E0032914D06068B0F5803F17D0B0F5B7
:10208000A02F286817D020F480302860286820F41A
:10209000802028606068E0B1FFF7E2FB064614E0AC
:1020A0002868800322D560680028D2D01EE0286806
:1020B00040F48030EDE740F480202860F7E700BF6F
:1020C000FFF7CEFB801B642870D828688003F7D503
:1020D0000CE0FFF7C5FB064605E000BFFFF7C0FBBD
:1020E000801B6428F0D828688003F7D42078800704
:1020F0004CD5A868E96800F00C0001F003010C2839
:1021000002D004280DD001E002290AD0E06800289E
:1021100028682BD040F480702860FFF7A1FB0646AA
:1021200019E02868400502D5E068002891D0686869
:10213000217C20F0FE4040EA01606860BF480068F2
:10214000FFF7ACFB002800D120E072E1FFF788FB2D
:10215000801B0228B8D828684005F7D56868217C1C
:1021600020F0FE4040EA016068600FE020F48070DB
:102170002860FFF775FB064605E000BFFFF770FB20
:10218000801B0228A0D828684005F7D420780007D3
:1021900029D560690028D5F8940013D040F00100DB
:1021A000C5F89400FFF75CFB064606E090E000BF30
:1021B000FFF756FB801B022886D8D5F894008007CD
:1021C000F6D510E020F00100C5F89400FFF748FBB9
:1021D000064604E0FFF744FB801B022878D8D5F8B8
:1021E00094008007F6D42078400761D5A86D0026BA
:1021F000C00008D4A86D40F08050A865A86D0126E5
:1022000000F0805000908E480168C90511D4016823
:10221000804641F480710160FFF722FB074604E02D
:10222000FFF71EFBC01B022852D8D8F80000C005DB
:10223000F6D5A068012815D00528D5F8900016D04D
:1022400020F00100C5F89000D5F8900020F00400BF
:10225000C5F89000A06841F28838B8B1FFF700FBDC
:1022600007460EE0D5F8900040F00100F0E740F09E
:102270000400C5F89000F5E7FFF7F2FAC11B4145ED
:1022800026D8D5F890008007F6D50CE0FFF7E8FADD
:10229000074604E0FFF7E4FAC11B414518D8D5F81A
:1022A00090008007F6D41EB1A86D20F08050A8657C
:1022B0002078800629D5A0690028D5F8980013D089
:1022C00040F00100C5F89800FFF7CAFA064606E09C
:1022D00075E000BFFFF7C4FA801B02286FD8D5F85D
:1022E00098008007F6D510E020F00100C5F89800AE
:1022F000FFF7B6FA064604E0FFF7B2FA801B0228A1
:102300005DD8D5F898008007F6D4E069F0B3A968E5
:10231000C1F3810103295DD00228286820F0807074
:10232000286003D0FFF79CFA04464BE0FFF798FAC9
:10233000064604E0FFF794FA801B02283FD828687D
:102340008001F7D4F4E908016FF00F0202EB0111EC
:102350000843218A5204490802EB4151A26841EA2C
:1023600002210843217D4FF07E42490802EB416182
:102370000843217B40EAC160E968324A11400843C2
:10238000E860286840F08070286000E05EE0E8685F
:1023900040F08070E860FFF763FA044605E000BF94
:1023A000FFF75EFA001B022809D828688001F7D5DC
:1023B0004CE000BFFFF754FA001B022802D90320AB
:1023C000BDE8F88328688001F4D4E8681E49084015
:1023D000E8603BE00128F3D0E868226A00F00301DE
:1023E000914226D1616A00F0F00209011039914250
:1023F0001FD1A26A00F4FE41B1EB022F19D194F86B
:102400002C2000F07841B1EBC26F12D1218E00F484
:10241000C00249084905A1F50011914209D194F87B
:10242000341000F0C06049084906A1F100718142F2
:102430000CD00120C4E70000001002400000002082
:10244000007000400C809F01FCFFEEFE0020B7E70B
:1024500070B5040009D0606A002540B1256165614E
:10246000A56294F85D0040B10CE0012070BD606889
:10247000B0F5827FF4D0E561F2E784F85C50204645
:1024800000F05CF8022084F85D002068016821F00B
:1024900040010160E1684FF4E062914201D90020FF
:1024A00001E04FF48050B1F5706F02D0914200D03E
:1024B000A562A188228901F4827102F404421143C9
:1024C000227C02F002021143227D02F0010211433C
:1024D000228B02F400721143227F02F03802114372
:1024E00094F8202002F080021143228D02F4005261
:1024F000114322681160A169042202EA114194F893
:10250000242000F4805002F01002114394F834208B
:1025100002F008021143A28902F4706211430143E0
:10252000206841602068C16921F40061C1612566AD
:10253000012084F85D00002070BD0000F0B587B078
:10254000064614216846FDF7B7FE294930688842DF
:102550004BD12848016E41F480510166016E01F4AF
:1025600080510591C16C41F00101C164C06C00242F
:1025700000F001000590E02000900220CDE9010468
:102580000520CDE9034069464FF09040FFF73EF843
:102590001A4D1948802728600A20C5E90104C5E9B9
:1025A00003476C61AC61EC6128462C62FEF784FE47
:1025B00008B1FDF726FFB565AE62104D0E486035D7
:1025C000143028600B20686005F10801102081E8B4
:1025D00091006C61AC61EC6128462C62FEF76CFEE8
:1025E00008B1FDF70EFF7565AE6207B0F0BD0000E3
:1025F0000030014000100240080002404401002069
:10260000704770477047000030B590F83C20012AB1
:1026100045D0012280F83C20CA688B6822F44072C1
:102620001A434B6822F480621A430B6822F400625A
:102630001A430B6922F480521A434B6922F4005268
:102640001A430B6B22F480421A430B8B22F4702244
:1026500042EA0342CB6922F080521A43114D0368CB
:102660000024AB4205D0104DAB4202D00F4DAB421F
:1026700010D10D8D22F4700242EA05520D6A22F04B
:1026800080722A434D6A22F000722A43C96A22F0FE
:1026900000520A435A6480F83C40002030BD0220BA
:1026A00030BD0000002C01400034014000500140CA
:1026B00070470068416D41F400314165002070476A
:1026C00070477047F0B590F83C20012A43D00125AF
:1026D00080F83C50022280F83D2003685A689C68CC
:1026E0001E4E1F4FDFF87CC0B34203D0BB4201D067
:1026F000634504D122F4700E4A6842EA0E02DFF804
:1027000068E002EA0E02D1F800E04EEA020EC3F8D9
:1027100004E00268B24212D0B2F1804F0FD0134BE6
:102720009A420CD0124B9A4209D0124B9A4206D0D0
:10273000BA4204D0104B9A4201D0624504D1896854
:1027400024F080031943916080F83D50002180F807
:102750003C100846F0BD0220F0BD0000002C0140F6
:1027600000340140005001408FFFFFFD0004004095
:1027700000080040000C004000400140704710B5C8
:10278000040003D094F83D0010B107E0012010BD13
:10279000002084F83C00204600F022F8022084F853
:1027A0003D00211D206800F0B9FD012084F848009B
:1027B00084F83E0084F83F0084F8400084F841002B
:1027C00084F8420084F8430084F8440084F845000B
:1027D00084F8460084F8470084F83D00002010BDCE
:1027E00008B5114A01681148914208D1016E41F4BF
:1027F00000610166006E00F40060009008BD0C4AA4
:102800009142FBD1816D41F002018165806D002212
:1028100000F0020000900F211D20FFF7A9F8BDE88D
:1028200008401D20FFF796B8002C01400010024020
:102830000004004090F83D10012901D001207047AC
:10284000022180F83D100168CA6842F00102CA60A6
:1028500000681349884214D0B0F1804F11D011495B
:1028600088420ED0104988420BD01049884208D0C7
:102870000F49884205D00F49884202D00E4988424C
:1028800007D181680D4A1140062906D0B1F5803F75
:1028900003D0016841F00101016000207047000091
:1028A000002C01400004004000080040000C0040E3
:1028B0000034014000400140005001400700010089
:1028C00070B5044690F83C00002501281CD0012674
:1028D00084F83C60022084F83D0022689068334B05
:1028E000184020F47F4090600868B0F5005F2ED05B
:1028F00016DC402849D009DCD0B1102818D0202897
:1029000016D0302849D113E0022070BD50282AD0BB
:10291000602830D070280FD0B0F5805F3DD13DE009
:1029200010F00F0F39D10111A1F58031072934D8EA
:1029300022680146104625E0CB68D1E901212068D4
:1029400000F05EFD2068816841F0770109E0CB6806
:10295000D1E90121206800F053FD2068816841F42D
:10296000804181601AE0CA684968206800F01CFF55
:102970005021206806E0CA684968206800F025FFF9
:102980006021206800F046FD08E0CA6849682068B8
:1029900000F00AFF40212068F4E7012584F83D603B
:1029A000002084F83C00284670BD000088FFCEFF60
:1029B00070472DE9F04104460068C66805694FF08C
:1029C0000007A90713D5B10711D5F91E0161012030
:1029D0002077206880698007204602D0FFF7E8FF53
:1029E00004E000F001F9204600F0C3F927776807FA
:1029F00016D5700714D521686FF004000861022015
:102A000020772068806910F4407F204602D0FFF7CD
:102A1000CFFF04E000F0E8F8204600F0AAF927779D
:102A2000280715D5300713D521686FF00800086115
:102A3000042020772068C0698007204602D0FFF775
:102A4000B7FF04E000F0D0F8204600F092F92777B5
:102A5000E80616D5F00614D521686FF0100008615D
:102A6000082020772068C06910F4407F204602D0FB
:102A7000FFF79EFF04E000F0B7F8204600F079F978
:102A80002777E80708D0F00706D021686FF001002B
:102A90000861204600F06EF9280601D4A80408D584
:102AA000300606D521686FF4025008612046FFF712
:102AB000A8FDE80508D5300606D521686FF48070BA
:102AC00008612046FFF79CFD680608D5700606D50C
:102AD00021686FF040000861204600F052F9A80616
:102AE00008D5B00606D521686FF0200008612046A1
:102AF000FFF788FDE80208D5F00206D521686FF4DB
:102B0000801008612046FFF7DBFDA80208D5B0025F
:102B100006D521686FF4001008612046FFF7C8FD54
:102B2000680208D5700206D521686FF4800008613C
:102B30002046FFF7C6FD28020AD5300208D52168D5
:102B40006FF4000008612046BDE8F041FFF716BEB3
:102B5000BDE8F081F0B587B0044614216846FDF762
:102B6000ABFB1E492068884236D11D48C16C41F03C
:102B70000201C164C16C01F002010591C16C41F018
:102B80000101C164C06C022500F0010005904FF402
:102B9000C04000900024CDE901540626114FCDE934
:102BA000034669463846FEF731FDA8030090CDE99B
:102BB00001540420CDE9034069463846FEF726FD5E
:102BC0004FF4E0600090CDE90154CDE90346694639
:102BD0004FF09040FEF71AFD07B0F0BD002C014009
:102BE0000010024000040048704770B5044690F899
:102BF0003C0000260D4601280BD0012084F83C0043
:102C00000C2A4AD007DC82B1042A20D0082A06D137
:102C100031E0022070BD102A53D0142A63D001265F
:102C2000002084F83C00304670BD206800F0FCFBBA
:102C30002068816941F0080181612068816921F083
:102C400004018161206881692A69114311E02068CB
:102C500000F040FC2068816941F4006181612068D6
:102C6000816921F480618161206881692A6941EA72
:102C700002218161D4E7206800F07CFC2068C169F2
:102C800041F00801C1612068C16921F00401C161FE
:102C90002068C1692A69114311E0206800F0BAFC7C
:102CA0002068C16941F40061C1612068C16921F4F3
:102CB0008061C1612068C1692A6941EA0221C1615C
:102CC000AEE7206800F0F6FC2068016D41F00801D5
:102CD00001652068016D21F0040101652068016D26
:102CE0002A69114311E0206800F020FD2068016D81
:102CF00041F4006101652068016D21F48061016586
:102D00002068016D2A6941EA0221016588E710B552
:102D1000040003D094F83D0010B107E0012010BD7D
:102D2000002084F83C00204600F022F8022084F8BD
:102D30003D00211D206800F0F1FA012084F84800D0
:102D400084F83E0084F83F0084F8400084F8410095
:102D500084F8420084F8430084F8440084F8450075
:102D600084F8460084F8470084F83D00002010BD38
:102D7000704770470068B0F1804F01D1FEF776BD13
:102D800070477047FEE700EB8100006E00F0F840EE
:102D9000704700EB8100006E00F0F84070478068DB
:102DA000C0F3C00070478068C0F3C00070478068FF
:102DB000C0F3800070478068C0F380007047042330
:102DC00003EAD15310B518444369C1F304510724F1
:102DD0008C40A3438A401343436110BD042303EA9C
:102DE000D15310B518444369C1F3045107248C40F2
:102DF000A3438A401343436110BD00EB8100016E81
:102E000021F0004111430166704700EB8100016E23
:102E100021F00041114301667047000070B59AB07F
:102E200000241794189420210FA81994FDF744FA50
:102E30003C216846FDF740FA47484FF0A041042581
:102E400001604FF44031C0E9011485610121C46083
:102E5000C0E9044104774477056280F82440C462E5
:102E6000046380F83840C46380F84040FEF762F89D
:102E700008B1FDF7C6FA17A937481794FDF774FD96
:102E800008B1FDF7BEFA35480F9010A906207F263D
:102E900081E85100CDE913540FA92F48FDF714FE26
:102EA00008B1FDF7AEFA2E480F900C2010900FA934
:102EB0002948FDF709FE08B1FDF7A3FA29480F904C
:102EC000122010900FA92448FDF7FEFD08B1FDF770
:102ED00098FA25480F90182010900FA91E48FDF76A
:102EE000F3FD08B1FDF78DFA2048009001A90920F3
:102EF00081E85100CDE904540320089080208DF82A
:102F000024408DF825400A900B908DF826408DF8CE
:102F1000304069461048FDF777FA08B1FDF771FABD
:102F20001348009040F20F10019069460A48FDF7DF
:102F30006BFA08B1FDF765FA0E48009040F21520D3
:102F4000019069460448FDF75FFA002801D0FDF7BB
:102F500058FA1AB070BD0000100000201000C01018
:102F60000040C03A000021C3000084CB02003004BE
:102F7000040060080800900C114808B5816C41F00D
:102F800004018164816C01F004010091816C41F0C5
:102F900001018164806C002200F001000090114664
:102FA0000B20FEF7E5FC0B20FEF7D4FC00221146B7
:102FB0000C20FEF7DDFCBDE808400C20FEF7CABC83
:102FC00000100240114810B50F4901600021416016
:102FD0008160C160017441748174102242610122D8
:102FE0008261C261026242628262C262C0E90C21F5
:102FF0008163C163FEF7C0F9002803D0BDE810402B
:10300000FDF7FFB910BD0000006400407C00002007
:103010002DE9F04186B014216846FDF74DF92348AB
:10302000C16C41F02001C164C16C01F02001059127
:10303000C16C41F00101C164C16C01F00101059155
:10304000C16C41F00201C164C06C4FF0904700F0C8
:1030500002000590002210213846FEF7FBFBDFF846
:10306000508040F20326002231464046FEF7F2FB34
:103070001020009001250024CDE90154694638460E
:103080000394FEF7C3FA0096CDE901546946404621
:103090000394FEF7BBFAE420CDE9000469464046FC
:1030A0000294FEF7B3FA06B0BDE8F08100100240CA
:1030B00000040048124810B5104901604FF48271B5
:1030C000416000214FF4E062C0E902120222026175
:1030D00001224261520282610822C0E907210722CF
:1030E0004162C0E90A1201634163FFF7B1F90028A8
:1030F00003D0BDE81040FDF784B910BD0030014099
:10310000E000002070B59CB0002419941A94179424
:103110001894149415941C210DA81694FDF7CCF85E
:1031200034216846FDF7C8F838483749202680E83A
:10313000520040F64851C0E9031444618461FFF72E
:103140001EFB08B1FDF75DF94FF4805517A92F4814
:103150001795FFF7B5FB08B1FDF753F92B48FFF7BB
:10316000D6FD08B1FDF74DF9CDE9146414A927483F
:103170001694FFF7A7FA08B1FDF743F96020CDE9EF
:103180000D040420CDE910400F94129400220DA9E3
:103190001E481394FFF729FD08B1FDF732F9042208
:1031A0000DA91A48FFF721FD08B1FDF72AF90822F9
:1031B0000DA91648FFF719FD08B1FDF722F91348CC
:1031C000FFF777FA4FF400600090401001908010F4
:1031D00002905520CDE903054FF40050CDE90504D8
:1031E0000003CDE9084007940A940B946946074808
:1031F0000C94FFF709FA08B1FDF703F90348FFF74C
:10320000A9FC1CB070BD0000002C0140040200208D
:1032100010B588B0002419480094019402940394D6
:10322000049405941449069401601021C0E9011426
:1032300040F6C311C1604FF480710161802181614A
:10324000FFF79DFA08B1FDF7DCF84FF480500090CD
:1032500069460A48FFF734FB08B1FDF7D2F8049439
:1032600004A906480694FFF72DFA002801D0FDF7BF
:10327000C8F808B010BD0000000400405002002053
:10328000FEE7FEE770477047704700B593B03821FE
:103290006846FDF711F814210EA8FDF70DF800207F
:1032A000FEF798FB0220C101039140210491042103
:1032B000CDE9080100905521CDE90A1007900C9046
:1032C0000D906846FEF7C2FE08B172B6FEE70F2009
:1032D0000E9003200F900020109011901290042166
:1032E0000EA8FEF75DFD002801D072B6FEE713B010
:1032F00000BD00000248016841F4700101607047A0
:1033000088ED00E00148FFF754BB00009C0200205C
:103310000148FFF74EBB0000500200202DE9F04F9E
:1033200002682E4B2E4E2F4FDFF8BCC02F4C304D75
:103330004FF0804B98420BD0584509D0B04207D08F
:10334000B84205D0604503D0A04201D0A84204D1C4
:1033500022F070084A6842EA0802DFF89880DFF835
:103360009890DFF898A0984211D058450FD0B042FD
:103370000DD0B8420BD0604509D0A04207D04045DF
:1033800005D0484503D0504501D0A84203D122F4CE
:103390004076CA6832434E6922F0800232430260AE
:1033A0008A68C2620A688262984209D0A04207D045
:1033B000404505D0484503D0504501D0A84201D131
:1033C00009690163012141610169C90703D00169EC
:1033D00021F001010161BDE8F08F0000002C0140E7
:1033E0000004004000080040000C00400034014090
:1033F00000500140004001400044014000480140AD
:1034000010B5846842EA032224F47F440A4322432D
:10341000826010BD8268034B1A400A4342F00701E4
:10342000816070478FFFCFFF2DE9F047056A026A80
:1034300022F001020262436882691F4C25F00205F6
:1034400022400C6822F0030214438A681C4E2A436F
:103450001A4D1C4FDFF870C0DFF87090DFF870A0D5
:10346000A84209D0B04207D0B84205D0604503D089
:10347000484501D0504506D122F00808CA6842EA02
:10348000080222F00402A84209D0B04207D0B84294
:1034900005D0604503D0484501D0504505D14D6960
:1034A00023F440731D438B692B4343608461496857
:1034B00041630262BDE8F0878FFFFEFF002C0140F0
:1034C00000340140004001400044014000480140F8
:1034D00000500140F0B5056A026A22F01002026253
:1034E000426883691C4C1E4E23400C6823F44073D1
:1034F00043EA042425F020038D681A4F43EA05139C
:10350000164DA84203D0B04201D0B84207D1D1F83D
:103510000CC023F0800343EA0C1323F04003A842BD
:103520000CD0B0420AD0104DA84207D00F4DA8428F
:1035300004D00F4DA84201D0B84207D14D6922F402
:10354000406242EA85028D6942EA850242608461F6
:10355000496881630362F0BDFF8FFFFE002C0140CC
:10356000003401400050014000400140004401404F
:1035700000480140F0B5056A026A22F480720262D6
:103580004368C2691C4C1E4E22400C6822F00302A4
:10359000144325F400728D681A4F42EA0522174D34
:1035A000A84203D0B04201D0B84207D1D1F80CC034
:1035B00022F4006242EA0C2222F48062A8420CD07B
:1035C000B0420AD0104DA84207D0104DA84204D0F6
:1035D0000F4DA84201D0B84207D14D6923F44053A2
:1035E00043EA05138D6943EA05134360C4614968E2
:1035F000C1630262F0BD00008FFFFEFF002C01409E
:1036000000340140005001400040014000440140AE
:1036100000480140F0B5056A026A22F48052026255
:103620004268C3691C4C1E4E23400C6823F440734F
:1036300043EA042425F400538D681A4F43EA053306
:10364000164DA84203D0B04201D0B84207D1D1F8FC
:103650000CC023F4004343EA0C3323F48043A84214
:103660000CD0B0420AD0104DA84207D00F4DA8424E
:1036700004D00F4DA84201D0B84207D14D6922F4C1
:10368000404242EA85128D6942EA85124260C46175
:10369000496801640362F0BDFF8FFFFE002C01400A
:1036A000003401400050014000400140004401400E
:1036B0000048014030B5056A026A22F48032026295
:1036C0004268036D124C23400C681C4325F4003300
:1036D0000D8943EA05430F4DA8420ED00E4DA84276
:1036E0000BD00E4DA84208D00D4DA84205D00D4D6F
:1036F000A84202D00C4DA84204D14D6922F4803278
:1037000042EA05224260046549688164036230BD73
:103710008FFFFEFF002C01400034014000400140BB
:1037200000440140004801400050014030B5046AA7
:10373000026A22F4801202624268036D134D24F47F
:1037400000142B400D6843EA05230D8944EA055413
:103750000F4DA8420ED00F4DA8420BD00E4DA842DF
:1037600008D00E4DA84205D00D4DA84202D00D4DF7
:10377000A84204D14D6922F4802242EA85224260A7
:1037800003654968C164046230BD0000FF8FFFFE1D
:10379000002C014000340140004001400044014041
:1037A000004801400050014010B5036A046A24F04B
:1037B00001040462846924F0F00444EA021423F052
:1037C0000A020A438461026210BD10B5036A046AEA
:1037D00024F010040462846923F0A00324F47044EC
:1037E00044EA023243EA01118261016210BDFEE740
:1037F0000907090E002804DB00F1E02080F800141E
:10380000704700F00F0000F1E02080F8141D7047B1
:10381000FEF734F8FFF739FDFFF7FAFBFFF7ACFBD3
:10382000FFF7F6FCFFF7FAFAFFF744FCFFF7CAFBD5
:10383000FFF768FCFEE74FF00000E1EE100A70476A
:103840000000000000000000010203040607080950
:103850000000000001020304783800080000002086
:103860001000000014020008883800081000002032
:1038700038090000300200081000000001000000BC
:08388000000000000024F40028
:04000005080001D915
:00000001FF
